S0120000626F6F746C6F616465722E73726563E7
S3150800000050030020672600085526000857260008D2
S31508000010592600085B2600085D2600080000000037
S315080000200000000000000000000000005F26000835
S3150800003061260008000000006326000865260008FF
S315080002002DE9F04FA1B08046002017461D46029101
S315080002100B900DF1440A6FF000490AE017F8011B2C
S315080002200298C0470028029000F0A7820B98401C4D
S315080002300B90387808B90B98A1E22528EED1002052
S31508000240059006900790089009900A9001E040F002
S31508000250010017F8011F2029F9D023290DD02B29D1
S3150800026004D02D2906D030290AD00CE040F002002F
S3150800027080B2EEE740F00400FAE740F00800F7E73E
S3150800028040F01000F4E72A290ED12968296051F8B0
S31508000290042B2960002A0D9204D5514240F004002F
S315080002A00D9180B27F1C11E000210D9109E00D9996
S315080002B0494505D001EB810302EB430130390D9125
S315080002C07F1C3A78A2F130010A29F0D339782E2911
S315080002D003D04FF0FF310C911DE017F8011F2A29B2
S315080002E007D1296829607F1C51F8042B29600C92D4
S315080002F011E000210C9109E00C99494505D001EB64
S31508000300810302EB430130390C917F1C3A78A2F144
S3150800031030010A29F0D3ADF838000FF67040397865
S3150800032000F046FE08B117F8010B8DF83A009DF863
S315080003303A00682802BF39786829622005D06C28F7
S3150800034004BF38786C2803D171208DF83A007F1CD9
S3150800035011A8049017F8014BB4F1250029D01C38D0
S3150800036000F0C280001F022840F2BE80133800F059
S31508000370E380093800F0B880801E00F04A81401EEC
S3150800038000F02381401E022840F2AE80001F00F0D4
S315080003901C81401F79D0401E00F0CE80401E24D01C
S315080003A0C01E0BD0801E00F0C780C01E00F0C4809F
S315080003B039E125208DF8440001203DE128682860B0
S315080003C050F8046B286003960C9C002C04D5304624
S315080003D000F0FAFD044606E022460021304600F009
S315080003E00FFE00B1841B069427E1296829603C2486
S315080003F051F8040B29600021CDE9000111A80390EA
S31508000400DDE90001049E11B908B90C9AB2B10206D9
S31508000410120FA0EB02123032D2B2631E3A2AA8BFDC
S31508000420273200099A5540EA0170090908BF0028D1
S315080004301C4603D0039AA3199A42E8D3A01903903D
S31508000440C4F13C010C980691814209DA401A0890D9
S315080004504FF6EF71BDF838000840ADF83800ECE00B
S31508000460002840F1EA809DF8380000F014001028B2
S3150800047040F0E3800D98059A801A089A801A441A63
S31508000480012CC0F2DA800894D7E09DF83A00622879
S315080004901AD0682806D06A280CD06C281CD0712877
S315080004A008D019E02868286050F8041B28600B98C3
S315080004B00880C2E02868286050F8042B28600B984A
S315080004C0C117C2E90001B8E02868286050F8041B83
S315080004D028600B980870B0E02868286050F8041B5C
S315080004E028600B980860A8E02868C01D20F007025D
S315080004F02A60D2E9000108322A60CDE90001002904
S3150800050002D505982D210AE0BDF83800810702D5E5
S3150800051005982B2103E0C00705D50598202100F88A
S315080005200A10401C059011A8059908180390214641
S31508000530684600F0E1F980E09DF83A006C280DD095
S31508000540712818BF6A2809D12868C01D20F007023B
S315080005502A60D2E9000108322A6005E02968296084
S3150800056051F8040B29600021CDE900019DF83A00F5
S31508000570682803D1DDE9000180B20BE0622803D1C7
S31508000580DDE90001C0B205E0742818BF7A2804D155
S31508000590DDE900010021CDE900019DF838000007DA
S315080005A02ED5DDE90001002908BF002828D044F02F
S315080005B02000782824D10598302100F80A10401C1C
S315080005C0411C059100F80A401AE09DF83A002946B0
S315080005D000F0D8F8CDE90001002902DA05982D21A6
S315080005E00AE0BDF83800810702D505982B2103E0FB
S315080005F0C00705D50598202100F80A10401C05906B
S3150800060011A80599081803902146684600F0F1F8E4
S3150800061013E0012005902868286050F8041B28601C
S315080006208DF8441009E025208DF844000120059036
S315080006301CB18AF80140022005900D980599401AC8
S315080006400899401A0699401A0999401A0799401AB2
S315080006500A99441A9DF83800400710D42020012C26
S315080006608DF840000BDB2646012310AA6946404652
S3150800067000F074FC002840F08080761EF4D1DDF886
S3150800068014B0BBF1000F11AE0CD016F8011B02987E
S31508000690C0470028029070D00B98401CBBF1010B94
S315080006A00B90F2D130208DF84000089E012E09DB10
S315080006B0012310AA6946404600F050FC00285CD188
S315080006C0761EF5D1DDF818B0039EBBF1000F0CD0ED
S315080006D016F8011B0298C047002802904DD00B98C7
S315080006E0401CBBF1010B0B90F2D130208DF8400075
S315080006F0099E012E09DB012310AA6946404600F02F
S315080007002DFC002839D1761EF5D103980699DDF817
S315080007101CB00E18BBF1000F0BD016F8011B02987F
S31508000720C047029048B30B98401CBBF1010B0B90D5
S31508000730F3D130208DF840000A9E012E08DB0123F4
S3150800074010AA6946404600F009FCB0B9761EF6D1F3
S315080007509DF8380040077FF56CAD2020012C8DF8F8
S315080007604000FFF666AD012310AA6946404600F030
S31508000770F5FB10B9641EF6D15BE54FF0FF3021B0EA
S31508000780BDE8F08F622826D068281DD06A2808D0D0
S315080007906C2827D0712804D0742823D07A280CD046
S315080007A020E00868C01D20F007000860D0E9002393
S315080007B0083008601946104670470A680A6052F8F9
S315080007C0040B0A60002170470A680A6052F8040B95
S315080007D00A6000B20BE00A680A6052F8040B0A6065
S315080007E040B204E00A680A6052F8040B0A60C117AE
S315080007F070472DE9FA4E05460A462F696F2A08BF43
S31508000800082405D041F02000782814BF0A241024B3
S315080008103C26D5E90001642A18BF692A81468A461A
S3150800082005D1002903DAD9F100096AEB4A0ABAF1B7
S31508000830000F08BFB9F1000F0CD1286B50B9082C6E
S3150800084036D195F83800000732D530203B2687F890
S315080008503B002DE0E31748465146224600F0FCFBD4
S31508000860A4FB0023A9EB02023032D2B2A6F1010B97
S315080008703A2A5E4603DB9DF80030513B9A180BF87E
S31508000880072081465FEA010A08BFB9F1000F03D0C5
S31508000890E868F1198842DDD3082C09D195F83800A3
S315080008A0000705D5F05D302802D0761E3020F055B9
S315080008B0C6F13C00A861F119E960296B884208DA9B
S315080008C0081A28624FF6EF71288F08402887BDE876
S315080008D0F38E00290ED595F8381001F01401102969
S315080008E008D1696B6A69891A2A6A891A0E1A012E49
S315080008F0A8BF2E62BDE8F38E2DE9F24F04468EB0EE
S31508000900D4E90001CDE9020104AF9DF8380040F0B2
S31508000910200BBBF1610F0AD0206B002848BF0620C8
S3150800092004D408BFBBF1670F01D1012020636168B9
S31508000930C1F30A5040F2FF7290421CD1080304BF6B
S315080009402068002809D10320A0619DF83800613885
S315080009501A2836D30FF2486108E00320A0619DF8F3
S31508000960380061381A2829D30FF22C61E06803226F
S3150800097000F0EAFBBEE1012816DA204600F01FFC6B
S31508000980012811DB00250020BBF1610F20D1E168A9
S31508000990302201F8012B4A1CE2609DF83820612AB2
S315080009A00CBF782258220FE0626840F2FE3161F3EC
S315080009B01E52451A62604FF0FF30E5E70FF2D45138
S315080009C0D4E70FF2D851D1E70A706169891C6161D1
S315080009D010B90026002584E1BBF1610F40F098802C
S315080009E0206B00284CBF2126461CD4E900ABDDE964
S315080009F002010022002300F003FC36B23ABF8BF056
S31508000A000040CDE902A0CDE902AB06F101082D1F91
S31508000A10B8F1010F8DF810200DF1110736DBDDE96D
S31508000A2002010022002300F003FC2FD21C2102A899
S31508000A3000F016FCDDE9020100F098FCA8F10708B1
S31508000A40B8F1010F814609DB00F0BCFC02460B46F3
S31508000A50DDE9020100F0CEFCCDE90201F81D07210F
S31508000A6005E009F00F0200F8012D4FEA2919B9F13E
S31508000A70010F01DB491EF4D5491E5CBF002200F8B0
S31508000A80012DF9D5C71DB8F1010FC8DA0DF111000E
S31508000A90391AB142B8BF0E4636B230000DF1110709
S31508000AA02FD4884206DA04A9411849780829A8BF2C
S31508000AB00F2100DA002104AA821800E0761E12F837
S31508000AC00139401E8B42F9D00F2904D104A94118D7
S31508000AD04A78521C4A70002802D504AF761C2D1D90
S31508000AE036B2701E0DD4C1190A783032D2B23A2AFB
S31508000AF003DB9DF838303A3B9A18401E01F8012965
S31508000B00F2D5206B002840F1EC80701E2063E8E0E7
S31508000B10DDE902010022002300F072FB3CBF81F0F0
S31508000B200041CDE902012DB247F2975068434B497F
S31508000B30DFF82C9190FBF1F52DB2C5F1070ABAF151
S31508000B40010F90461CDBDDE902675FEACA7007D52C
S31508000B5042464B463046394600F00CFD06460F46DF
S31508000B604046494642464B464FEA6A0A00F002FDAD
S31508000B70BAF1000F80468946E7D1CDE9026724E03D
S31508000B80CAF1000A0026374F14E05FEACA7007D593
S31508000B9042464B463046394600F0ECFC06460F46C0
S31508000BA04046494642464B4600F0E4FC4FEA6A0A8C
S31508000BB080468946BAF1000FE7D1DDE902013246DF
S31508000BC03B4600F0A9FDCDE90201BBF1660F0CBF5B
S31508000BD005F10A000620216BDFF88C904618142EC2
S31508000BE0A8BF132630208DF810000DF11107012E2D
S31508000BF03CDBDDE9020100F0CFFB07F10801042226
S31508000C000A23B0FBF3F303EB8307A0EB470030306E
S31508000C1001F8010C0A20B3FBF0F000EB8007A3EB08
S31508000C2047033033521E01F8023DE9D1083E012E32
S31508000C3001F10807DBDBDDE9020100F0ADFB00F09E
S31508000C40CBFB02460B46DDE9020100F0D3FB00228E
S31508000C504B4600F08FFCCDE90201CAE7A0860100E9
S31508000C60000024400000F03F84D797410DF11100A1
S31508000C70381A0DF1110702E0401E6D1E7F1C3978E7
S31508000C803029F9D0BBF1660F02D12DB2691C04E0F8
S31508000C90BBF1650F0CBF01210021226B8E1836B2FD
S31508000CA0B042B8BF064636B231001AD4814204DAD9
S31508000CB0C85D3528A8BF392000DA3020CA19521E67
S31508000CC000E0761E12F80139491E8342F9D0392808
S31508000CD002D1C85D401CC855002902D57F1E761C66
S31508000CE06D1C2DB29DF83810009533B23A46204651
S31508000CF000F003F80FB0BDE8F08F2DE9F043054684
S31508000D0085B01E46D5F83080012E8946174602DA88
S31508000D1001260FF2902749F02000BDF930406628D9
S31508000D2008BF641C17D0672840F0828014F1040FAE
S31508000D30C0F28480444580F2818095F83800641CAE
S31508000D40000702D44645B8BFB04624B2B8EB04083B
S31508000D5048BF4FF0000824B2E868A969012C25DAD3
S31508000D604A1C30230B54B8F1010F03DA95F83810F2
S31508000D70090702D52E211154521CAA6118EB040F3B
S31508000D80B8BFC8F1000424B26142A0446962B04504
S31508000D90B8BF4646AB6936B2EE61324639461818D0
S31508000DA000F0D2F9A8EB0600A862C0E00818A6422F
S31508000DB018DA3246394600F0C7F9A9697118A01B36
S31508000DC0B8F1010FA961686203DA95F838000007DF
S31508000DD005D5EA682E208854E869401CE861C5F8FC
S31508000DE02880A4E02246394600F0AEF9A869201802
S31508000DF0361BB8F1010F03DA95F83810090703D541
S31508000E00EA682E218154401C36B2A861B045B8BFA5
S31508000E104646E868AB6936B23246E119181800F05A
S31508000E2093F9A8693018A861A8EB060068627EE005
S31508000E30B9F1610F16D14FF0700918E0464504DA8A
S31508000E4095F83810090758BFB046B8F1010848BFE9
S31508000E504FF00008B9F1670F14BF4FF045094FF07E
S31508000E60650904E0B9F1410F08BF4FF05009A969B7
S31508000E70E8684A1CAA61B8F1010F17F8013B0B5440
S31508000E8003DA95F83810090717D5531CAB612E21DC
S31508000E901154B8F1010F10DB761E36B2B045B8BF53
S31508000EA0464636B232463946181800F04DF9A86952
S31508000EB03018A861A8EB06006862E868A9690918ED
S31508000EC0200081F8009003D42B2048708F1C03E083
S31508000ED02D224A708F1C644200260DF1080808E08E
S31508000EE00A22684600F043FD019808F8010B761CB3
S31508000EF0009C21B20129F3DA022E06DA49F0200015
S31508000F00652804BF302007F8010B4EB9302007F8D2
S31508000F10010B07E0761E02A8305C303007F8010B9B
S31508000F20012EF7DAE868A9690818381AE86195F809
S31508000F30380000F0140010280DD16869A96908184E
S31508000F40696A0818E9690818A96A0818696B88425D
S31508000F50BCBF081A286205B0BDE8F083F8B5044698
S31508000F600D4616461F46002077B116F8011BA868DD
S31508000F70A047A86030B1E86A401CE86200207F1EDE
S31508000F80F3D1F2BD4FF0FF30F2BD0000686A6C7411
S31508000F907A4C00006E616E004E414E00696E660026
S31508000FA0494E460030000268531C036011707047B2
S31508000FB00278C9B28A421AB11CBF10F8012FF9E7A4
S31508000FC018BF00207047000000F10103810704D014
S31508000FD010F8011B89B18107FAD10268B2F1013113
S31508000FE0914311F0803F04BF50F8042FF6E710F83C
S31508000FF0011B11B110F8011BFBE7C01A704700006E
S31508001000C9B2830706D0521E22D310F8013B994273
S31508001010F7D11FE0083A13D302F1040241EA01218D
S3150800102041EA014150F8043B121F21BF4B40A3F18E
S31508001030013C2CEA030C1CF0803FF3D0C9B2001F18
S31508001040083210F8013B521E28BF91EA030FF8D860
S3150800105018BF0120401E70471B4213D1094236D1E2
S315080010602AB18446B0FBF2F002FB10C2704700F0CA
S3150800107085BCFCD30022002370470B000200002128
S3150800108000207047904271EB030CF6D370B5B1FAA5
S3150800109081F4B3FA83F52C1BA340C4F1200532FA78
S315080010A005F63343A2405FF00046E64002E05B08DF
S315080010B05FEA3202841A71EB030524BF20462946EB
S315080010C07641F4D302000B003000002170BD012ADE
S315080010D0CFD970B5140C20D0B1FA81F4B2FA82F5E2
S315080010E0C4F120046419B4F12006D6D3B2405FF0E7
S315080010F00044F440002502E052085FEA3303C61AAA
S3150800110071EB020E24BF3046714664416D41F3D33C
S3150800111002000B002000290070BD0C46B1FBF2F15D
S3150800112002FB11452D0445EA1045B5FBF2F402FB16
S31508001130145580B240EA0545B5FBF2F002FB1052A1
S3150800114040EA044070BD000062B38B0708D0521E07
S3150800115011F8013B00F8013B00F024808B07F6D11B
S31508001160830740F0208000BF103A07D330B4B1E8B7
S315080011703810103AA0E83810F9D230BC530724BF0B
S31508001180B1E80810A0E8081044BF51F8043B40F83D
S31508001190043BD20724BF31F8022B20F8022B44BFA8
S315080011A00B7803707047083A07D3B1E80810083A75
S315080011B040F8043B40F804CBF7D25307E4E730B4D1
S315080011C0436803F0004201211B031B0B436004BF65
S315080011D00368002B08D10DE00368DD0F45EA4404D7
S315080011E044605B000360491E4468E302F4D52303A8
S315080011F01B0B436043681A434260084630BC70477D
S315080012004FF4001C1CEB410F94BF1CEB430F09E085
S3150800121041EA030C50EA4C0C52EA0C0C03D29942F0
S3150800122008BF9042704714BF8B4282427047000045
S315080012304FF4001C1CEB410F94BF1CEB430F09E055
S3150800124041EA030C50EA4C0C52EA0C0C03D28B42CE
S3150800125008BF8242704714BF994290427047000007
S3150800126070B504460D466068C0F30A5040F2FF7137
S31508001270884207D16068000304BF2068002817D099
S31508001280022070BD20B92046FFF799FF012866DACB
S31508001290012D0FDB40F2FF71091A8D420AD36068EF
S315080012A0002847BF00202F4900202F49C4E9000124
S315080012B0012070BD4142A942616806DA6FF31E51EA
S315080012C0401941EA0050606040E0401E63684519D5
S315080012D0012205F1350062F31F53352801F000415C
S315080012E0636003D361600020206070BD002015F1A3
S315080012F01F0F04DA206823600022203562606A42E4
S3150800130012D0401E25688041C2F12003C0439D408B
S3150800131045EAD07025686668D54006FA03F32B437C
S3150800132023606368D340636062680A43B0F1004F84
S31508001330626003D80DD12078C0070AD52068401C02
S315080013402060206828B96068401C60604FF0FF3054
S3150800135070BD6068884204BF20680028F6D1002066
S3150800136070BD00BF0000F0FF0000F07FF446400D9E
S3150800137040EAC120490006D200F014F8004248BFEE
S315080013806FF00040604700F00DF84FF000418842CA
S315080013908CBF084640426047400D40EAC1204900DC
S315080013A080F00D8040F00040490DA1F58061491C90
S315080013B005D4D1F11F0154BFC840C01770474FF07C
S315080013C000007047010040F10980F446404200F0F1
S315080013D005F851F000416047010000BF09D0B0FA96
S315080013E080F18840C91CC1F58461090501EBD0214B
S315080013F040057047F0B44FF0004591EA030F44BF2B
S315080014006B4000F0BDBA00BF841A71EB030604D224
S315080014106E40001BB141121973414FF4001C1CEBBE
S31508001420410F34BF7CEB430684E00C0DA4EB135646
S31508001430362E7DDC012E43DC45EAC32343EA5253AC
S3150800144012BFD20292025B08240545EAC12141EA8D
S315080014505051D2EBC020994125D407D1B0FA80F675
S3150800146010FA06F164D00020203608E0B1FA81F6B9
S31508001470B140C6F1200220FA02F21143B0404FEA09
S31508001480F474B4EB465434F001064FEA74040AD8EF
S31508001490D6F50016760D04F00044F04061FA06F21F
S315080014A05040F1404840C00A40EA415021F000410E
S315080014B028BF5FEA500550F1000044EBD12137E020
S315080014C045EAC323DB0A45EAC121C90AB6F1200564
S315080014D00EDD42EA0242120CC5F1200603FA06F6B0
S315080014E0EB4042EA06056D42984161F100010DE0C4
S315080014F062FA06F5F240554063FA06FC82EA0C02E7
S31508001500F3405A406D42904161EB030111F4801F8C
S3150800151005D1641E620502D06D004041494121F49F
S315080015208011430875F1004350F1000041EB045166
S31508001530F0BC70471CEB410F15D223F0004352EA6A
S3150800154043060BD04FEA4C0CBCEB410F04D80C0DEC
S31508001550661E342EB7DDEBE7801A994150EA41063C
S3150800156008BF0021E4E708BF1CEB430F28BF6FF054
S315080015700001DDE7B0B581EA030C0CF0004C40F23F
S31508001580FF7515EA11541DBF15EA1357AC42AF4251
S3150800159039E0E41923EA455343F48013C90241F0BC
S315080015A0004141EA505EC7021100A7FB020200286B
S315080015B04FF00000EEFB01204FF00001E3FB07218E
S315080015C018BF42F00102401800214941E3FB0E0111
S315080015D0A4F580640F0302D252004041494154F1F8
S315080015E001046CDD470872F1004250F1000051EB2E
S315080015F00451A1F580115CBF41EA0C01B0BD4CEA6B
S3150800160005510020B0BD05EA1357AC4214BFAF42DE
S3150800161041E050EA410E1CBF52EA430E02E0614621
S315080016200020B0BD24423C441BD15FEA070EF6D029
S31508001630090302BF01460020AEF1140EB1FA81F784
S31508001640AEEB070401FA07FE0C37C7F1200100FAD2
S3150800165007F7C8404EEA000E23EA455343F48013C1
S31508001660A2E733F00043B3FA83F704BFB2FA82FE67
S3150800167077440B3FE41BB7F1200E2FBF02FA0EF397
S31508001680BB40C7F1200E22FA0EFE38BF43EA0E030E
S31508001690BA40641C82E750EA410E14BF52EA430E70
S315080016A06FF000014FF4001717EB430F8ABF194676
S315080016B017EB410FB5E74CEA05510020B0BDD4F150
S315080016C00104B4F120070FDAC4F12007520828BF35
S315080016D042F0010210FA07F501FA07F7E1BF2A43BB
S315080016E0E0403843E1400FE0352C98DCC7F1200490
S315080016F052EA400220FA07F218BF42F0010231FA14
S3150800170007F0A1400A43002172F1004250F100009F
S3150800171051EB0C01B0BD00002DE9F04140F2FF7518
S3150800172081EA030C0CF0004C15EA11541DBF15EAAA
S315080017301357AC42AF42E9E0BC41C1F31301C3F30E
S315080017401303801A994143F4801304D2641E40009F
S31508001750494180185941C90241EA5051B1FBF3F693
S3150800176003FB1611A2FB0675D7EBC020A94102D2CE
S31508001770761E80185941C90241EA5051B1FBF3FE61
S3150800178003FB1E11A2FB0E75D7EBC020A94103D29D
S31508001790AEF1010E80185941890241EA9051760549
S315080017A046EA8E2EB1FBF3F603FB1611A2FB06756D
S315080017B0D7EB8020A94102D2761E80185941C9026A
S315080017C041EA50514EEA060EB1FBF3F603FB161139
S315080017D0A2FB0675D7EBC020A94102D2761E801857
S315080017E05941C90241EA5051B1FBF3F703FB1711FE
S315080017F0A2FB0735D3EBC020A94167F100070CBF50
S31508001800004247F0010766F3D5274FEA1E31B808AC
S3150800181014F5806414DDBD0775F1004250EB0E50D7
S3150800182051EB045111F5801F5CBF41EA0C01BDE87C
S31508001830F0814CF07F6141F0E0410020BDE8F08185
S31508001840BD076D0840EA0E5041F48011D4F1010439
S31508001850B4F120060ADAC4F120060200E04001FAD3
S3150800186006F3E1401843B24015430EE0342C14DC6D
S31508001870C6F1200445EA40056D0820FA06F215432C
S3150800188021FA06F0A1400D43002175F1004250F1FE
S31508001890000051EB0C01BDE8F08100205FEA0C0165
S315080018A0BDE8F081CFB992185B41B3FA83F704BF5C
S315080018B0B2FA82F6BF190B3FB7F120062FBF02FA1C
S315080018C006F3BB40C7F1200622FA06F638BF3343B3
S315080018D0BA401CB1E419641E2FE77F4231F000417B
S315080018E0B1FA81F404BFB0FA80F6A4190B3CB4F13E
S315080018F020062FBF00FA06F1A140C4F1200620FAFF
S3150800190006F638BF3143A0403C1B16E7AC421ABF67
S3150800191005EA1357AF4214E050EA41061CBF52EAE3
S315080019204306BFE750EA4107304661461CBF41EA15
S315080019300551BDE8F08152EA430C08BFC143BDE832
S31508001940F08100204FF4001616EB410F98BF16EBF6
S31508001950430F08BF16EB410F24BFC14305E016EB42
S31508001960430F0CBF61464CEA0551BDE8F08191FB77
S31508001970F2F303FB1211C0E900317047704700000B
S31508001980841A71EB030603D2001BB1411219734185
S315080019904FF4001C1CEB410F34BF7CEB430443E0BF
S315080019A00C0DA4EB1356352E50DC45EAC323DB0A8F
S315080019B045EAC121C912B6F120050DDD63FA05F61F
S315080019C0EB4086EA0305124218BF45F00105C01828
S315080019D051F100010CD213E062FA06F5F2405540C7
S315080019E0F3415A40B340F3405A408018594107D34F
S315080019F049085FEA30005FEA350528BF45F001056A
S31508001A0001F58011420875F1004250F1000041EBE2
S31508001A100451F0BC4FF4001C1CEB410F38BF704753
S31508001A200020090D090570471CEB410F10D252EA38
S31508001A3043060BD0BCEB410F05D80C0DAB43661E15
S31508001A40342EB5DD02E0AB4380185941F0BC70472F
S31508001A50F0BC704780B500F03DFADFF8B043DFF818
S31508001A609C53204600F000FBDFF8A40300F0B4FB0B
S31508001A70DFF8A00300F016FCDFF89C0300F012FC68
S31508001A8000F05CF900F0E0F900F09AF900F0C5F80A
S31508001A9005F1300000210022002300264EC062B660
S31508001AA0A9700091DFF874A3DFF874B3DFF87463E4
S31508001AB0DFF874730AE0401C5045A86403D38021FC
S31508001AC058464161C0460098401C0090288D18BBB6
S31508001AD000F092FC287888B10020E862A068C0046B
S31508001AE008D44FF47A7000F08FFCE86A401C14287A
S31508001AF0E862F3D300F0A9F8002028700098B842ED
S31508001B0024BF0120A870A86CB042D4D380215846BF
S31508001B100161C0460020CFE7002000904CF2513604
S31508001B200FF2A037DFF804934FF064080AE0401C70
S31508001B30B042A86403D3802158464161C046009844
S31508001B40401C0090288D90B300F056FC287888B188
S31508001B500020E862A068C00408D44FF47A7000F048
S31508001B6053FCE86A401C1428E862F3D300F06DF8C9
S31508001B70002028700098484510D300200090686C13
S31508001B80296C08FB00F0B0FBF1F2394605F14C0070
S31508001B9000F042FC687808B100206870A86C5045CF
S31508001BA0C5D3802158460161C0460020C0E7686C4D
S31508001BB0296C08FB00F0B0FBF1F2394605F14C0040
S31508001BC000F02AFC00200090E87818B90098401C1C
S31508001BD00090FBE7BFF34F8F9548964A016801F4DA
S31508001BE0E06111430160BFF34F8FFEE780B592486D
S31508001BF000F00AFC7D2000F00BFA18B100F018FA84
S31508001C00FFF728FF8048016811F1010FFAD072B674
S31508001C1081F3088840688047F4E710B54021784882
S31508001C20764C00F013FC4021764800F00FFC20218A
S31508001C30201D00F00FFC04F12800002101704170FE
S31508001C4000F003F80020208510BD2DE9F843714CFB
S31508001C50714DDFF8BC81794F794E204600F022FBA2
S31508001C60284600F01FFB404600F0B6FA7E614FF4A6
S31508001C7040596348B861C7F838900020F86107F101
S31508001C80140140203862002078628020B862002063
S31508001C90F8623863202078630020F863204600F055
S31508001CA069FB2C2107F1140000F0D0FB7E61C7F810
S31508001CB0389007F114015348B8611020F8612020C4
S31508001CC03862002078628020B8620020F8623863A3
S31508001CD0202078630020F863284600F04BFB01219A
S31508001CE0204600F062FB0121284600F05EFB00203A
S31508001CF038607860394601203881002078810820CC
S31508001D00B8810020F88101203882404600F096FA12
S31508001D1001227121404600F0B7FA0320A8F8040012
S31508001D200121206840F003002060286840F0030085
S31508001D3028604046BDE8F44300F09CBA80B500F040
S31508001D40C9F84FF4803000F0DEF800F0F5F83D49A8
S31508001D500128087025D1102000F086FB022000F02B
S31508001D607DFB002000F013F94FF4806000F01BF9AA
S31508001D704FF4806000F010F94FF4E0114FF4803012
S31508001D8000F0EEF8012000F0F3F8392000F040F9F1
S31508001D900028FAD0022000F0EEF800F0F3F8082840
S31508001DA0FBD10121082000F00FF901214FF48040F2
S31508001DB000F013F9BDE804400121012000F0FBB84A
S31508001DC080B54FF47040ADF80000694603208DF8E1
S31508001DD0020018208DF803000C4800F092F98020C4
S31508001DE0ADF80000694614208DF8030003208DF82D
S31508001DF002000B4800F085F901BD00000000002034
S31508001E00CC0000200C01002000400008000C014016
S31508001E10003800404400024058000240A1860100F4
S31508001E2000100140410D030001001000A0860100CA
S31508001E300CED00E00400FA0540420F008C0000207B
S31508001E400C3800404C01002080B500214FF000609E
S31508001E5000F049FB4FF4C06000F012FB23208DF818
S31508001E60000001208DF8010002208DF802000120F3
S31508001E708DF80300684600F008FB24208DF8000062
S31508001E8000208DF8010001208DF80200684600F058
S31508001E90FCFA0E208DF8000000208DF801000120C4
S31508001EA08DF80200684600F0F0FA0F208DF8000061
S31508001EB000208DF8010001208DF80200684600F028
S31508001EC0E4FA01BD6C6F6164696E672E2E2E257566
S31508001ED02525000059485A4A016841F00101016068
S31508001EE0416811404160574A016811400160016824
S31508001EF021F480210160416821F4FE0141604FF41C
S31508001F001F01816070474D490A6822F480320A60D1
S31508001F10B0F5803F0A6822F480220A6003D0B0F543
S31508001F20802F04D07047086840F4803002E00868C3
S31508001F3040F4A0200860704781B0002000903F4917
S31508001F400A68009B5B1C0093009BB3F5A06F01D049
S31508001F509203F5D50968890348BF012001B0704787
S31508001F60394A136823F47C131843084310607047F2
S31508001F7036490860704734490A68920840EA820080
S31508001F80086070473048006800F00C0070472E491A
S31508001F900A6822F0F00203E02B490A6822F4E0629C
S31508001FA010430860704728490A6822F4605242EADA
S31508001FB0C00008607047264A0029116814BF084304
S31508001FC021EA000010607047224A0029116814BFF0
S31508001FD0084321EA0000106070471F4A002911686B
S31508001FE014BF084321EA0000106070471B4A002905
S31508001FF0116814BF084321EA000010607047184AA8
S315080020000029116814BF084321EA000010607047D0
S3150800201041090A4A012908BF116803D002290CBFE1
S31508002020116A516A00F01F00C14001F001007047B3
S315080020300C48016841F08071016070470010024049
S315080020400000FFF8FFFFF6FE04100240600042425F
S3150800205014100240181002401C1002400C100240D6
S31508002060101002402410024080B55449884206D117
S3150800207001210420FFF7BAFF002104203CE0504963
S31508002080884206D101210820FFF7B0FF0021082069
S3150800209032E04C49884206D101211020FFF7A6FFFD
S315080020A00021102028E04849884206D10121202035
S315080020B0FFF79CFF002120201EE04449884206D1F4
S315080020C001214020FFF792FF0021402014E04049FB
S315080020D0884206D101218020FFF788FF0021802051
S315080020E00AE03C4988420BD101214FF48070FFF782
S315080020F07DFF00214FF48070BDE80440FFF776BFEE
S3150800210001BD2DE9F041CC78002204F00F03E40666
S3150800211044BF8C7823430C88E5B21DB3D0F800C0C1
S3150800212001250F2605FA02F707EA0408B84514D16F
S315080021304FEA820E06FA0EF82CEA080C03FA0EFE8F
S315080021404EEA0C0C91F803E0BEF1280F08BF476170
S3150800215003D0BEF1480F08BF0761521C082AE1D315
S31508002160C0F800C0FF2C27DDD0F804C000220125E6
S315080021700F2602F1080705FA07F707EA0408B84523
S3150800218015D14FEA820E06FA0EF82CEA080C03FA65
S315080021900EFE4EEA0C0C91F803E0BEF1280F08BFBC
S315080021A0476191F803E0BEF1480F08BF0761521C6A
S315080021B0082ADED3C0F804C0BDE8F0810008014053
S315080021C0000C0140001001400014014000180140B5
S315080021D0001C01400020014080B5154988420BD1FA
S315080021E001214FF48050FFF701FFBDE804400021AC
S315080021F04FF48050FFF7FABE0E49884208D10121F4
S315080022004FF48040FFF7FBFE00214FF480400AE0C0
S31508002210094988420BD101214FF40040FFF7EFFE30
S3150800222000214FF40040BDE80440FFF7E8BE01BDB9
S315080022300030014000380040003C004002880B880E
S3150800224002F441521A434B881A438B881A43CB88A7
S315080022501A430B891A434B891A438B891A43CB892C
S315080022601A4302804FF2FF73828B1A408283098ACF
S31508002270018270470029018812BF41F040014FF6DC
S31508002280BF7211400180704701230909002A03FA29
S3150800229001F1828889B214BF114322EA01018180C3
S315080022A07047000001684FF6FE7211400160002178
S315080022B0016041608160C1604149884204D141485A
S315080022C0016841F00F0153E03F49884204D13D4877
S315080022D0016841F0F0014BE03C49884204D1394895
S315080022E0016841F4706143E03949884204D13548B0
S315080022F0016841F470413BE03649884208BF3148DD
S3150800230033D03549884204D12E48016841F470011A
S315080023102EE03249884204D12A48016841F07061AA
S3150800232026E02F49884204D12E48016841F00F0162
S315080023301EE02D49884204D12A48016841F0F0017F
S3150800234016E02A49884204D12648016841F470619A
S315080023500EE02749884204D12248016841F47041B9
S3150800236006E02449884204D11E48016841F47021D8
S315080023700160704702688B686FF30E121A430B6A86
S315080023801A430B691A434B691A438B691A43CB697B
S315080023901A434B6A1A438B6A1A430260CA68426038
S315080023A00A6882604968C16070470029016812BFDF
S315080023B041F001014FF6FE721140016070470000BE
S315080023C008000240040002401C000240300002409F
S315080023D044000240580002406C000240800002405F
S315080023E008040240040402401C040240300402406F
S315080023F0440402405804024002494AF6AA200860EA
S31508002400704700000030004001B40098411E0028C3
S315080024100091FAD101B070470CB41CB5044604A863
S3150800242001900A46009401AB69460748784418307B
S31508002430FDF7E6FE009A0021117000285CBF00989F
S31508002440001B16BC5DF80CFB5FEBFFFF002200F0DB
S315080024505FB80000002200F075B80000DFF81C1015
S315080024600A6802F0380206E0DFF810100A6822F05F
S3150800247010020A600A68104308607047002002408C
S315080024801C4908431C490860704770B40378C4782F
S315080024901A460121ECB1184B1B68447803F4E06333
S315080024A0C3F5E0631B0AC3F10405AC4085780F2623
S315080024B0DE4006EA05032343104C1B01135500783A
S315080024C000F01F0291400E4A400942F8201070BCE5
S315080024D0704703F01F0001FA00F00A49520941F853
S315080024E0220070BC7047084A114008430749086033
S315080024F0704700000000FA050CED00E000E400E07B
S3150800250000E100E080E100E080FFFF1F08ED00E049
S3150800251000B500BF130096469446103928BFA0E8B8
S315080025200C50FAD85FEA417C28BF0CC048BF40F877
S31508002530042BC90728BF20F8022B48BF00F8012B37
S3150800254000BD0000401810F0030308D0C91A1FD3B5
S31508002550DB0748BF00F8012D28BF20F8022D13001D
S3150800256030B414461546103928BF20E93C00FAD87D
S31508002570490728BF20E90C0048BF40F8042D890008
S3150800258028BF20F8022D48BF00F8012D30BC70473F
S31508002590C91818BF00F8012DCB0728BF00F8012D70
S315080025A0704719E050F8041BCB0744BFA9F1010393
S315080025B05918121F0023042A41F8043BF9D25FEA8E
S315080025C0827C0B4604D54FF0000CA1F800C09B1C7A
S315080025D0D10744BF0021197050F8042B002AE1D115
S315080025E07047000010B5074979441831064C7C44F9
S315080025F0163404E00A68081D511888470146A142A6
S31508002600F8D110BD080000001400000097FFFFFF76
S315080026105001000000000020000000000120C04614
S31508002620002801D0FFF7DEFF0020C046C046FFF7AE
S31508002630DDFA00F000F800F001B800000746384659
S3150800264000F002F8FBE700002021090326311820D4
S31508002650ABBEF9E77047FEE7FEE7FEE7FEE7704721
S31508002660704770477047C046C046C046C046FFF729
S30708002670D5FF86
S7050800266765
