S016000061726D5F7065726970686572616C2E7372656343
S3150800400050370020298400081D75000833750008FC
S31508004010497500085F7500087575000800000000FE
S315080040200000000000000000000000008B7500087A
S31508004030A175000800000000216B000871630008E4
S31508004040B7750008CD750008E3750008F97500080E
S315080040500F760008257600083B760008517600089A
S31508004060677600087D76000893760008A97600082A
S31508004070BF760008D57600088B7B00080D7C000803
S31508004080EB76000801770008177700082D770008F7
S3150800409043770008597700086F7700088577000886
S315080040A09B770008B1770008C5770008D97700081C
S315080040B0ED770008017800081578000829780008C7
S315080040C03D78000851780008657800087978000876
S315080040D04D7C00084B5900084D590008535A0008F2
S315080040E08D780008A1780008B5780008C978000816
S315080040F0DD780008F17800080579000819790008C4
S315080041002D79000841790008557900086979000871
S315080041107D79000891790008A5790008B979000821
S31508004120CD790008E1790008F5790008097A0008D0
S315080041302DE9F04FA1B0804617461D46029102AE02
S315080041400020706211AC6FF000490AE017F8011BF5
S315080041500298C0470290002800F06A82706A401CE4
S315080041607062387808B9706A64E22528EED10020B2
S31508004170F06030617061B061F061306201E040F07A
S31508004180010017F8011F2029F9D023290DD02B2962
S3150800419004D02D2906D030290AD00CE040F00200C0
S315080041A080B2EEE740F00400FAE740F00800F7E7CF
S315080041B040F01000F4E72A290DD129680A1D2A6063
S315080041C00968F162002904D54942F16240F0040009
S315080041D080B27F1C12E00021F16209E0F16A4945CC
S315080041E005D001EB810302EB43013039F1627F1CF4
S315080041F03A78A2F13001C9B20A29EFD339782E29C3
S3150800420003D04FF0FF31B1621DE017F8011F2A29CC
S3150800421006D129680A1D2A600968B1627F1C12E066
S315080042200021B16209E0B16A494505D001EB810375
S3150800423002EB43013039B1627F1C3A78A2F13001B2
S31508004240C9B20A29EFD3308639780FF6983000F0CC
S31508004250EDFD08B117F8010B8DF83A009DF83A0004
S31508004260682804D1387868280AD1622005E06C28C5
S3150800427004BF38786C2803D171208DF83A007F1C6A
S3150800428011A8B0603978B1F1250023D01C3871D057
S31508004290001F02286ED9133800F09680093869D0B5
S315080042A0801E00F02781401E00F0D180401E0228A3
S315080042B060D9001F00F0CB80401F30D0401E00F0B0
S315080042C08380401E20D0C01E09D0801E7CD0C01E10
S315080042D07AD017E1F068411CF16025211BE12868B6
S315080042E0011D296000687060B26A002A02D500F0D4
S315080042F0B9FD07E0002100F0D5FD00281ABF716856
S31508004300401AB06A306107E12868011D2960006813
S315080043100021CDE9000111A870607821E6E09DF83A
S315080043203A00622818D0682806D06A280BD06C286C
S3150800433019D0712807D016E02868011D2960716A0E
S3150800434000680180E8E02A68101D2860706AC117B5
S315080043501268C2E90001DFE02868011D2960716A58
S3150800436000680170D8E02868011D2960716A006834
S315080043700160D1E02868C01D20F00700286000F120
S3150800438008022A60D0E90023CDE90023002B04D5D2
S31508004390F068421CF2602D220DE0308E820704D5AB
S315080043A0F068421CF2602B2205E0C00704D5F068CD
S315080043B0421CF26020220255F06811AA801870602B
S315080043C000A800F0C5F9A7E09DF83A006C2808BFD8
S315080043D02A6811D0712808BF2A6802D06A282A6874
S315080043E00AD1D21D22F007022A6094460CF108026F
S315080043F02A60DCE9002303E0131D2B601268002302
S31508004400CDE90023682808BF92B207D0622808BF02
S31508004410D2B203D0742818BF7A2802D10023CDE976
S31508004420002396F8300000075CD5DDE90023002B51
S3150800443008BF002A56D041F02000782852D1F068EB
S3150800444030220255401C421CF26001554AE09DF894
S315080044503A0062280CD0682810D06A281AD06C282E
S3150800446023D0712816D074281FD07A280CD01CE0C7
S315080044702868021D2A6090F900201AE02868021DA3
S315080044802A60B0F9002014E02868021D2A60026834
S3150800449000230FE02868C01D20F00700286000F1FF
S315080044A008022A60D0E9002304E02868021D2A6071
S315080044B00268D317CDE90023002B04DAF068421C02
S315080044C0F2602D220DE0308E820704D5F068421C7A
S315080044D0F2602B2205E0C00704D5F068421CF260A2
S315080044E020220255F06811AA8018706000A800F012
S315080044F0A4F811E0F068411CF16029680A1D2A60D9
S31508004500096808E0F068421CF2602522025519B1D4
S31508004510F068421CF26001557F1CF06AF168401A87
S31508004520B169401A3169401AF169401A7169401A2D
S31508004530316AA0EB010A96F83000400711D4202012
S315080045408DF84000BAF1010F0BDBD346012310AA00
S3150800455000A9404600F02FFC002869D1BBF1010BE9
S31508004560F4D1F36811AA00A9404600F024FC0028FB
S315080045705ED130208DF84000D6F818B0BBF1010F97
S315080045800ADB012310AA00A9404600F014FC002803
S315080045904ED1BBF1010BF4D13369726800A94046CC
S315080045A000F009FC002843D130208DF84000D6F8E9
S315080045B01CB0BBF1010F09DB012310AA00A9404674
S315080045C000F0F9FBA0BBBBF1010BF5D173693069AB
S315080045D07168421800A9404600F0EDFB40BB302048
S315080045E08DF84000D6F820B0BBF1010F09DB012396
S315080045F010AA00A9404600F0DEFBC8B9BBF1010BC2
S31508004600F5D196F8300040077FF5ABAD20208DF840
S315080046104000BAF1010FFFF6A4AD012310AA00A9C4
S31508004620404600F0C8FB18B9BAF1010AF5D198E579
S315080046304FF0FF3021B0BDE8F08F2DE9FA4782B080
S31508004640064635696F2908BF082705D041F02000BE
S31508004650782814BF0A2710273C24D6E9000180468B
S3150800466089469DF80820642A18BF692A05D10029B9
S3150800467003DAD8F1000869EB4909B9F1000F08BF58
S31508004680B8F1000F0CD1306B50B9082F3BD196F812
S315080046903800000737D53B24302085F83B0032E048
S315080046A0A4F1010A5446FB17404649463A4600F02B
S315080046B025FCCDE90089B846A8FB0023DDE9008979
S315080046C0A8EB02023032D2B23A2A03D39DF8083058
S315080046D0513B9A180AF8052080465FEA010908BF87
S315080046E0B8F1000F03D0F06861198842D8D3082FB3
S315080046F009D196F83800000705D5605D302802D044
S31508004700641E30206055C4F13C00B0616119F16047
S31508004710316B884207DA081A3062308F4FF6EF712C
S315080047200840308710E000290ED596F8381001F0B9
S315080047301401102908D1716B7269891A326A891AAB
S31508004740081A0128A8BF306204B0BDE8F087000047
S315080047502DE9F24F8EB0044604AED4E90001CDE946
S3150800476002019DF8380040F020008DF8000061280D
S315080047700BD0206B002848BF062005D404BF9DF83F
S315080047800000672801D1012020636168C1F30A503F
S3150800479040F2FF7398421ED1080304BF2068002820
S315080047A00AD10320A0619DF838006138C0B21A28E2
S315080047B038D30FF2446109E00320A0619DF8380060
S315080047C06138C0B21A282AD30FF224610322E0689E
S315080047D000F00CFCB9E1012817DA204600F041FC8C
S315080047E0012812DB002700209DF80010612920D13E
S315080047F0E168302201F8012B4A1CE2609DF8382056
S31508004800612A0CBF782258220FE040F2FE31626816
S3150800481061F31E526260471A4FF0FF30E4E70FF269
S31508004820CC51D3E70FF2CC51D0E70A706169891CE5
S31508004830616110B9002500277EE19DF80000612816
S3150800484040F09780206B00284CBF2125451C2DB2CF
S315080048506E1CD4E90089DDE902010022002300F07C
S3150800486021FC3ABF89F00040CDE90280CDE90289F2
S315080048703F1F8DF810200DF11108012E35DBDDE9FB
S3150800488002010022002300F025FC2ED21C2102A8DA
S3150800489000F038FCDDE9020100F0BAFC8146F61F9B
S315080048A0012E09DB00F0E0FC02460B46DDE90201B9
S315080048B000F0F2FCCDE9020108F20700072105E045
S315080048C009F00F0200F8012D4FEA2919B9F1010F75
S315080048D001DB491EF4D5491E5CBF002200F8012DF4
S315080048E0F9D500F20708012EC9DA0DF11100A8EB77
S315080048F000010DF11106A942B8BF0D462DB2002DD3
S3150800490030D42846884206DA04A941184978082985
S3150800491028BF0F2100D2002104AA821800E06D1ECC
S31508004920401E12F801398B42F9D00F2904D104A987
S3150800493041184A78521C4A70002802D504AE6D1CEC
S315080049403F1D2DB2681E0DD481190A783032D2B2B5
S315080049503A2A03D39DF838303A3B9A1801F80129C8
S31508004960401EF2D5206B002840F1E680681E2063C1
S31508004970E2E0DDE902010022002300F093FB3CBFE0
S3150800498081F00041CDE902013FB247F297507843E2
S31508004990474990FBF1F73FB2C7F107069246DFF8A1
S315080049A014B1012E19DBDDE90289F00707D5524655
S315080049B05B464046494600F02FFD804689467610FC
S315080049C05046594652465B4600F026FD82468B46BF
S315080049D0002EEAD1CDE9028921E076429046DFF839
S315080049E0D89012E0F00707D552465B46404649463E
S315080049F000F012FD804689467610504659465246C2
S31508004A005B4600F009FD82468B46002EEAD1DDE9B9
S31508004A10020142464B4600F0D1FDCDE902019DF860
S31508004A20000066280CBF07F10A000620216B45180E
S31508004A30142DA8BF132530208DF810000DF111068E
S31508004A40DFF87890012D3BDBDDE9020100F0F6FB8B
S31508004A5006F1080104220A26B0FBF6F303EB830EDF
S31508004A60A0EB4E00303001F8010DB3FBF6F000EB79
S31508004A708006A3EB4603303301F8013D521EEAD106
S31508004A8001F10806083D012DDCDBDDE9020100F035
S31508004A90D5FB00F0F3FB02460B46DDE9020100F008
S31508004AA0FBFB00224B4600F0B7FCCDE90201CBE741
S31508004AB0A0860100000024400000F03F84D79741FB
S31508004AC00DF11100301A0DF1110602E0401E7F1E8D
S31508004AD0761C31783029F9D09DF80010662902D164
S31508004AE03FB2791C03E065290CBF01210021226B26
S31508004AF08D182DB2A842B8BF05462DB2002D1BD47D
S31508004B002946814204DA885D352828BF392000D233
S31508004B1030208A19521E00E06D1E491E12F801390E
S31508004B208342F9D0392802D1885D401C885500296E
S31508004B3002D5761E6D1C7F1C3FB200972BB23246FB
S31508004B409DF83810204600F003F80FB0BDE8F08F46
S31508004B502DE9F04385B00546894617461E46D5F821
S31508004B603080012E02DA01260FF2902749F0200044
S31508004B70BDF93040662808BF641C18D0672840F085
S31508004B8082806FF003008442C0F28380444580F23D
S31508004B908080641C95F83800000702D44645B8BFE3
S31508004BA0B04624B2B8EB040848BF4FF00008E868DE
S31508004BB0A96924B2012C25DA4A1C30230B54B8F112
S31508004BC0010F03DA95F83810090702D52E2111547A
S31508004BD0521CAA6118EB040FB8BFC8F1000424B22E
S31508004BE061426962A044B045B8BF464636B2EE6136
S31508004BF032463946AB69181800F0F8F9A8EB0600F2
S31508004C00A862C1E00818A64218DA3246394600F00A
S31508004C10EDF9A9697118A961A01B6862B8F1010FBD
S31508004C2003DA95F83800000705D5E8682E220A54F5
S31508004C30E869401CE861C5F82880A5E0224639469F
S31508004C4000F0D4F9A8692018361BB8F1010F03DA69
S31508004C5095F83810090703D5E9682E224254401CF6
S31508004C60A86136B2B045B8BF464636B23246E119F3
S31508004C70EB68C01800F0BAF9A8693018A861A8EB63
S31508004C800600686280E0B9F1610F16D14FF070092D
S31508004C9018E0464504DA95F83810090758BFB046B3
S31508004CA0B8F1010848BF4FF00008B9F1670F14BF03
S31508004CB04FF045094FF0650904E0B9F1410F08BF07
S31508004CC04FF05009A9694A1CE86817F8013B0B54CC
S31508004CD0B8F1010F05DA95F83810090758BFAA6127
S31508004CE017D52E211154531CAB61B8F1010F10DBF7
S31508004CF0761E36B2B045B8BF464636B23246394653
S31508004D00181800F073F9A8693018A861A8EB06000E
S31508004D106862A869E968471807F8019B002C03D45C
S31508004D202B2007F8010B03E02D2007F8010B64423E
S31508004D3000260DF1080809E00A22214600A800F01D
S31508004D4060FD019808F8010B009C761C24B2012C22
S31508004D50F2DA022E06DA49F02000652804BF302070
S31508004D6007F8010B4EB9302007F8010B07E0761E4D
S31508004D7002A8305C303007F8010B012EF7DAA86973
S31508004D80E9684018381AE86195F8380000F0140008
S31508004D9010280DD16869A9690818696A0818E969A7
S31508004DA00818A96A0818696B8842BCBF081A2862DD
S31508004DB005B0BDE8F083F8B504460D4616461F460D
S31508004DC0002077B116F8011BA868A047A86030B183
S31508004DD0E86A401CE86200207F1EF3D1F2BD4FF05E
S31508004DE0FF30F2BD686A6C747A4C00006E616E0022
S31508004DF04E414E00696E6600494E4600300010B4BA
S31508004E0050F8041B81B102681218001D50F8043BC3
S31508004E10DC0744BFA9F10104E31852F8044B43F830
S31508004E20044B091FF9D1EBE710BC70470278C9B2E9
S31508004E308A421AB11CBF10F8012FF9E718BF0020E3
S31508004E40704750F8041B61B150F8042BD30744BFD0
S31508004E50A9F101039A18002342F8043B091FFAD165
S31508004E60EFE7704700F10103810704D010F8011B32
S31508004E7089B18107FAD10268B2F10131914311F083
S31508004E80803F04BF50F8042FF6E710F8011B11B154
S31508004E9010F8011BFBE7C01A70470268531C036031
S31508004EA011707047C9B2830706D0521E22D310F874
S31508004EB0013B9942F7D11FE0083A13D302F10402E5
S31508004EC041EA012141EA014150F8043B121F21BF82
S31508004ED04B40A3F1013C2CEA030C1CF0803FF3D0B5
S31508004EE0C9B2001F083210F8013B521E28BF91EACA
S31508004EF0030FF8D818BF0120401E70471B4213D174
S31508004F00094236D12AB18446B0FBF2F002FB10C240
S31508004F10704700F07DBCFCD30022002370470B00CD
S31508004F200200002100207047904271EB030CF6D373
S31508004F3070B5B1FA81F4B3FA83F52C1BA340C4F11A
S31508004F40200532FA05F63343A2405FF00046E640F4
S31508004F5002E05B085FEA3202841A71EB030524BF9C
S31508004F60204629467641F4D302000B003000002182
S31508004F7070BD012ACFD970B5140C20D0B1FA81F4CE
S31508004F80B2FA82F5C4F120046419B4F12006D6D326
S31508004F90B2405FF00044F440002502E052085FEAA0
S31508004FA03303C61A71EB020E24BF304671466441BC
S31508004FB06D41F3D302000B002000290070BD0C469A
S31508004FC0B1FBF2F102FB11452D0445EA1045B5FB8C
S31508004FD0F2F402FB145580B240EA0545B5FBF2F03F
S31508004FE002FB105240EA044070BD000062B38B0712
S31508004FF008D0521E11F8013B00F8013B00F024804E
S315080050008B07F6D1830740F0208000BF103A07D3FC
S3150800501030B4B1E83810103AA0E83810F9D230BCEC
S31508005020530724BFB1E80810A0E8081044BF51F898
S31508005030043B40F8043BD20724BF31F8022B20F882
S31508005040022B44BF0B7803707047083A07D3B1E8C0
S315080050500810083A40F8043B40F804CBF7D2530747
S31508005060E4E730B4436803F0004201211B031B0B3D
S31508005070436004BF0368002B08D10DE00368DD0F09
S3150800508045EA440444605B000360491E4468E30241
S31508005090F4D523031B0B436043681A434260084652
S315080050A030BC70474FF4001C1CEB410F94BF1CEB3F
S315080050B0430F09E041EA030C50EA4C0C52EA0C0C87
S315080050C003D2994208BF9042704714BF8B4282426E
S315080050D0704700004FF4001C1CEB410F94BF1CEBFB
S315080050E0430F09E041EA030C50EA4C0C52EA0C0C57
S315080050F003D28B4208BF8242704714BF994290423E
S315080051007047000070B504460D466068C0F30A5043
S3150800511040F2FF72904207D16068000304BF20681E
S31508005120002817D0022070BD20B92046FFF799FF46
S31508005130012867DA012D0FDB40F2FF71091A8D424B
S315080051400AD36068002847BF00202F4900202F494E
S31508005150C4E90001012070BD4142A942616806DA2E
S315080051606FF31E51401941EA0050606041E001F0BA
S3150800517000410122636862F31F536360401E4519AC
S3150800518005F13500352803D361600020206070BD25
S31508005190002215F11F0F04DA20352268236000204B
S315080051A06060684213D0521E9241D243C0F1200378
S315080051B025689D4055EAD2722568C540666806FA94
S315080051C003F32B432360636823FA00F0606060688A
S315080051D008436060B2F1004F03D80DD12078C007AC
S315080051E00AD52068401C2060206828B96068401CE1
S315080051F060604FF0FF3070BD6068884204BF206869
S315080052000028F6D1002070BD0000F0FF0000F07FF6
S31508005210F446400D40EAC120490006D200F014F8D1
S31508005220004248BF6FF00040604700F00DF84FF0AD
S31508005230004188428CBF084640426047400D40EA1C
S31508005240C120490080F00D8040F00040490DA1F5CD
S315080052508061491C05D4D1F11F0154BFC840C0174D
S3150800526070474FF000007047010040F10980F4468E
S31508005270404200F005F851F000416047010000BFC8
S3150800528009D0B0FA80F18840C91CC1F584610905C6
S3150800529001EBD0214005704770B44FF0004591EA04
S315080052A0030F44BF6B4000F0B5BA00BF841A71EB18
S315080052B0030604D26E40001BB141121973414FF424
S315080052C0001C1CEB410F34BF7CEB430684E00C0D3D
S315080052D0A4EB1356362E7DDC012E43DC45EAC323A8
S315080052E043EA525312BFD20292025B08240545EAEA
S315080052F0C12141EA5051D2EBC020994125D407D1AA
S31508005300B0FA80F610FA06F164D00020203608E0DC
S31508005310B1FA81F6B140C6F1200220FA02F2114331
S31508005320B0404FEAF474B4EB465434F001064FEA41
S3150800533074040AD8D6F50016760D04F00044F04039
S3150800534061FA06F25040F1404840C00A40EA41502E
S3150800535021F0004128BF5FEA500550F1000044EBF8
S31508005360D12137E045EAC323DB0A45EAC121C90A48
S31508005370B6F120050EDD42EA0242120CC5F12006FE
S3150800538003FA06F6EB4042EA06056D42984161F1DA
S3150800539000010DE062FA06F5F240554063FA06FC94
S315080053A082EA0C02F3405A406D42904161EB0301D8
S315080053B011F4801F05D1641E620502D06D004041BC
S315080053C0494121F48011430875F1004350F100006A
S315080053D041EB045170BC70471CEB410F15D223F00A
S315080053E0004352EA43060BD04FEA4C0CBCEB410F84
S315080053F004D80C0D661E342EB7DDEBE7801A9941EA
S3150800540050EA410608BF0021E4E708BF1CEB430F3A
S3150800541028BF6FF00001DDE7B0B581EA030C0CF098
S31508005420004C40F2FF7515EA11541DBF15EA1357D3
S31508005430AC42AF4239E0E41923EA455343F48013FA
S31508005440C90241F0004141EA505EC7021100A7FBBC
S31508005450020200284FF00000EEFB01204FF0000189
S31508005460E3FB072118BF42F0010240180021494119
S31508005470E3FB0E01A4F580640F0302D252004041FB
S31508005480494154F101046CDD470872F1004250F1BC
S31508005490000051EB0451A1F580115CBF41EA0C01F3
S315080054A0B0BD4CEA05510020B0BD05EA1357AC4221
S315080054B014BFAF4241E050EA410E1CBF52EA430E08
S315080054C002E061460020B0BD24423C441BD15FEA9D
S315080054D0070EF6D0090302BF01460020AEF1140EEE
S315080054E0B1FA81F7AEEB070401FA07FE0C37C7F1EC
S315080054F0200100FA07F7C8404EEA000E23EA455392
S3150800550043F48013A2E733F00043B3FA83F704BFEA
S31508005510B2FA82FE77440B3FE41BB7F1200E2FBF89
S3150800552002FA0EF3BB40C7F1200E22FA0EFE38BF70
S3150800553043EA0E03BA40641C82E750EA410E14BFE0
S3150800554052EA430E6FF000014FF4001717EB430FB2
S315080055508ABF194617EB410FB5E74CEA05510020FB
S31508005560B0BDD4F10104B4F120070FDAC4F1200765
S31508005570520828BF42F0010210FA07F501FA07F7A8
S31508005580E1BF2A43E0403843E1400FE0352C98DC80
S31508005590C7F1200452EA400220FA07F218BF42F087
S315080055A0010231FA07F0A1400A43002172F10042D4
S315080055B050F1000051EB0C01B0BD0000F0B540F20F
S315080055C0FF7581EA030C0CF0004C15EA11541DBF57
S315080055D015EA1357AC42AF42E5E0BC41C1F31301EB
S315080055E0C3F31303801A994143F4801304D2641E4B
S315080055F04000494180185941C90241EA5051B1FB5E
S31508005600F3F603FB1611A2FB0675D7EBC020A941DA
S3150800561002D2761E80185941C90241EA5051B1FB9F
S31508005620F3FE03FB1E11A2FB0E75D7EBC020A941A2
S3150800563003D2AEF1010E80185941890241EA905110
S31508005640760546EA8E2EB1FBF3F603FB1611A2FB8E
S315080056500675D7EB8020A94102D2761E80185941DB
S31508005660C90241EA50514EEA060EB1FBF3F603FBB6
S315080056701611A2FB0675D7EBC020A94102D2761EE9
S3150800568080185941C90241EA5051B1FBF3F703FBAF
S315080056901711A2FB0735D3EBC020A94167F1000714
S315080056A00CBF004247F0010766F3D5274FEA1E31C3
S315080056B0B80814F5806412DDBD0775F1004250EB99
S315080056C00E5051EB045111F5801F5CBF41EA0C01E5
S315080056D0F0BD4CF07F6141F0E0410020F0BDBD0710
S315080056E06D0840EA0E5041F48011D4F10104B4F17A
S315080056F020060ADAC4F120060200E04001FA06F3A1
S31508005700E1401843B24015430EE0342C13DCC6F1D1
S31508005710200445EA40056D0820FA06F2154321FAE9
S3150800572006F0A1400D43002175F1004250F100003A
S3150800573051EB0C01F0BD00205FEA0C01F0BDCFB9BA
S3150800574092185B41B3FA83F704BFB2FA82F6BF191F
S315080057500B3FB7F120062FBF02FA06F3BB40C7F18D
S31508005760200622FA06F638BF3343BA401CB1E419BC
S31508005770641E33E77F4231F00041B1FA81F404BF79
S31508005780B0FA80F6A4190B3CB4F120062FBF00FA34
S3150800579006F1A140C4F1200620FA06F638BF3143C7
S315080057A0A0403C1B1AE7AC421ABF05EA1357AF42A2
S315080057B012E050EA41061CBF52EA4306BFE750EA28
S315080057C04107304661461CBF41EA0551F0BD52EA21
S315080057D0430C08BFC143F0BD00204FF4001616EB7A
S315080057E0410F98BF16EB430F08BF16EB410F24BFB6
S315080057F0C14305E016EB430F0CBF61464CEA055161
S31508005800F0BD91FBF2F303FB1211C0E900317047BA
S3150800581070470000841A71EB030603D2001BB141DE
S31508005820121973414FF4001C1CEB410F34BF7CEB7B
S31508005830430443E00C0DA4EB1356352E50DC45EA21
S31508005840C323DB0A45EAC121C912B6F120050DDDDD
S3150800585063FA05F6EB4086EA0305124218BF45F0DF
S315080058600105C01851F100010CD213E062FA06F5E1
S31508005870F2405540F3415A40B340F3405A4080182D
S31508005880594107D349085FEA30005FEA350528BF62
S3150800589045F0010501F58011420875F1004250F105
S315080058A0000041EB045170BC4FF4001C1CEB410F87
S315080058B038BF70470020090D090570471CEB410FDA
S315080058C010D252EA43060BD0BCEB410F05D80C0D9B
S315080058D0AB43661E342EB5DD02E0AB438018594152
S315080058E070BC704770BC70473AE139E1DFF8B048E0
S315080058F06422DFF8B01804F53050F83000F096FC52
S315080059004FF47A72DFF8A018201D00F08FFC8C2166
S31508005910362000F073FE352000F0E2FD362000F058
S31508005920DFFD372000F0DCFD002020804FF4806189
S3150800593004F1620000F0A6FE0020A4F8600000F062
S315080059400FF9C82001F035F8FBE77047F0B581B0CC
S31508005950DFF858482078401C2070DFF85458082192
S31508005960284601F0B7F818B108212846C94301802E
S315080059700221284601F0AEF818B102212846C9438B
S3150800598001800421284601F0A5F818B1042128460B
S31508005990C94301800121284601F09CF818B101216C
S315080059A02846C94301802021284601F093F8B8B15A
S315080059B0284601F08BF88DF80000DFF8E467B6F8A2
S315080059C0600080199DF8001080F86210B6F8600033
S315080059D0401CA6F8600006F53050F83000F03DFC93
S315080059E08021284601F076F810B340F22777394629
S315080059F0284601F076F801281AD1DFF8A467F08B5B
S31508005A0080B1B08B811991F820108DF80010401CD8
S31508005A10B0839DF80010284601F054F8F08B401E1C
S31508005A20F08305E0B08300223946284601F032F8B3
S31508005A3001F0D5F82078012803D1606808B101F093
S31508005A40C4F82078401E207001B0BDE8F04001F08F
S31508005A50C0B8704730B581B00121042001F01FF9A4
S31508005A6001214FF4804001F01AF901214FF400306A
S31508005A7001F01EF901214FF4802001F019F9DFF831
S31508005A803447042020820320A0741820E07404F10F
S31508005A901001DFF8240701F02BF94FF416502060A7
S31508005AA0002060602081A0810C2060812146DFF8FB
S31508005AB00C0700F0A7FFDFF8F8562146284600F045
S31508005AC0A1FF2146DFF8F80600F09CFF012240F20C
S31508005AD02551284600F0DEFF012240F227712846AC
S31508005AE000F0D8FF0121284601B0BDE8304000F09B
S31508005AF0C7BF00002DE9F041002445F6FE72DFF825
S31508005B00A03601E0641C401C8C4226DA0778102F68
S31508005B101CBF012F022FF5D05D8B002647FA06FC25
S31508005B208CEA050C0CF0010C02EA550E4FEA0568E2
S31508005B308CEA586808F0010848EA0E0E8CEA953592
S31508005B4005F001054EEA453545EACC35761C082EA2
S31508005B50E4D35D830578032DD4D1BDE8F081000038
S31508005B6070B584B042F67144DFF83456605D10B102
S31508005B70002004B070BD0120605528880B2800F26B
S31508005B800683DFE810F00C00060331004700280101
S31508005B907901D3018B00D500040304034102281DB3
S31508005BA000F0BFFB0020288385F8620442F67440A3
S31508005BB0002141510BA005F53051027801F8782FE4
S31508005BC04FF4806105F1620000F05CFD0020A5F845
S31508005BD0600042F6704000214155022028804FF4AB
S31508005BE0FA61CDE2000000000020E883052085F870
S31508005BF020000120E883012240F22771DFF8B00572
S31508005C0000F048FF0020A5F86000032028804FF424
S31508005C10FA61B5E2B5F8601021B9022028804FF480
S31508005C20FA61ADE2002205F16003881E01E0521C0C
S31508005C305B1C8A4218DA0629F9DB824204BF1E7801
S31508005C40102EF4D15E78172E18BF032EEFD15019F7
S31508005C5090F86200511991F8631040EA01220FF298
S31508005C608C5100A801F0B2F895F86200052807D112
S31508005C700020A5F86000042028804FF4FA617FE22E
S31508005C80102806D10020A5F8600007202880C82122
S31508005C9076E20020A5F8600003206EE20020E88383
S31508005CA0102085F820000120E88385F821000220CD
S31508005CB0E883687E002814BF0FF208510FF21851C6
S31508005CC005F1220001F082F8E98B4018E883E88B99
S31508005CD04019102180F82010E88B401CE88380B218
S31508005CE04019032180F82010E88B411CE983002025
S31508005CF0688389B205F12000FFF7FCFEE88B40199E
S31508005D00698B80F82010E88B401CE88380B2401924
S31508005D10698B090A80F82010E88B401CE883012269
S31508005D2040F22771DFF8880400F0B4FE082024E268
S31508005D30B5F86010002900F06A81002205F16003B9
S31508005D40881E01E0521C5B1C8A4218DA0629F9DB18
S31508005D50824204BF1E78102EF4D15E78172E18BF23
S31508005D60032EEFD1501990F86200511991F863107B
S31508005D7040EA01220FF2744100A801F027F8B5F8AD
S31508005D806000022804BF95F8620010281ED195F815
S31508005D906300312818BF302818D10020E883042072
S31508005DA085F820000120E883012240F22771DFF8F8
S31508005DB0000400F06FFE01202876687E00280FBFD9
S31508005DC004200020A5F864040B200BE10020A5F8A8
S31508005DD060000820D1E1B5F86010002900F01781AD
S31508005DE0002205F16003881E01E0521C5B1C8A42F2
S31508005DF018DA0629F9DB824204BF1E78102EF4D180
S31508005E005E78172E18BF032EEFD1501990F862004E
S31508005E10511991F8631040EA01220FF2D03100A817
S31508005E2000F0D4FF95F86200052820D10020E88309
S31508005E30102085F820000120E8830220E88342F636
S31508005E407040415D002914BF3122302285F8212097
S31508005E504A1E9241D20F4255012240F22771D44878
S31508005E6000F018FE0020A5F86000052085E1002056
S31508005E70A5F86000042080E1B5F86010002900F05C
S31508005E80C680002205F16003881E01E0521C5B1CD7
S31508005E908A4218DA0629F9DB824204BF1E78102ED8
S31508005EA0F4D15E78172E18BF032EEFD1501990F84B
S31508005EB06200511991F8631040EA01220FF22C3161
S31508005EC000A800F083FF95F86200102829D1B5F8DC
S31508005ED06000042825D3401990F85F00032820D1D4
S31508005EE00020E883102085F820000120E88302209E
S31508005EF0E88342F67040415D002914BF3122302202
S31508005F0085F821204A1E9241D20F4255012240F2BD
S31508005F102771A74800F0BEFD0020A5F860000620FE
S31508005F202BE10020A5F86000052026E1B5F86010F1
S31508005F3000296CD0002205F16003881E01E0521C7E
S31508005F405B1C8A4218DA0629F9DB824204BF1E78EE
S31508005F50102EF4D15E78172E18BF032EEFD15019E4
S31508005F6090F86200511991F8631040EA01220FF285
S31508005F707C2100A800F02AFF95F8620004283ED18B
S31508005F8001206876287E60B30020A5F86404B5F879
S31508005F906000022823D342F668400021415142F6A8
S31508005FA06C404151E983102085F820000120E883E0
S31508005FB00220E88342F67040415D002914BF312271
S31508005FC0302285F821204A1E9241D20F42550122DD
S31508005FD040F22771764800F05DFD0B2002E00B20A9
S31508005FE000E0072028804FF47A71281D00F008FF8A
S31508005FF0281D00F032F90020A5F86000C9E000204D
S31508006000A5F860000620B8E0B5F8601009B90020C8
S31508006010B1E0002205F16003881E01E0521C5B1CFA
S315080060208A4218DA0629F9DB824204BF1E78102E46
S31508006030F4D15E78172E18BF032EEFD1501990F8B9
S315080060406200511991F8631040EA01220FF29C117F
S3150800605000A800F0BBFE95F86200052825D142F697
S3150800606068400021415142F66C404151A5F8601044
S31508006070E983102085F820000120E8830220E883C0
S3150800608042F67040415D002914BF3122302285F85E
S3150800609021204A1E9241D20F4255012240F2277111
S315080060A0434800F0F7FC0B2067E0B5F860100629B6
S315080060B04CD310284AD195F86300022802BF481924
S315080060C090F85E00102853D18A1F42F66C4672512A
S315080060D005F16401B5F86404401900F26640FEF75C
S315080060E085FFB5F8640471590818A5F864044FF4D7
S315080060F0806105F1620000F0C5FA0020A5F860008D
S3150800610042F668404159491C41510020E883102055
S3150800611085F820000120E8830220E88342F67040D3
S31508006120415D002914BF3122302285F821204A1EFC
S315080061309241D20F4255012240F227711C4800F0C5
S31508006140A9FC0B2028804FF47A6119E004280FD1A6
S315080061500020A5F8600042F674400121415103224F
S315080061600EA105F530507830FEF750FF012004E007
S315080061700020A5F860002883022028804FF47A7151
S31508006180281D00F03DFE281D00F067F801E00020FC
S3150800619028800020605504B070BD00006F6B0000B9
S315080061A02C000020E9580008EB58000800000020E1
S315080061B00044004030350020000801400038014006
S315080061C000480040303031323334353637383930CC
S315080061D0525230314C30310031323334353637385B
S315080061E03930525230314C30310000003C4348536C
S315080061F03A252E34583E000010B504460DE0A0613D
S315080062000168616100210174A069816000F0E1FC08
S31508006210A0694068804700F0E2FC606928B181689F
S31508006220226A8A1A012AEADB616210BD30B581B09A
S31508006230002300241D4638C018C01438C260826086
S31508006240416000F0CCFC4848407820B901B0BDE870
S31508006250304000F0BEBC01B030BD30B581B0044658
S3150800626000F0BDFC404D207CE0B100F0B8FC207C7D
S3150800627090B100202074A068296A401AA06005F22F
S31508006280140000E00846016819B1A142FAD1216854
S315080062900160686900B9E861687808B900F099FC96
S315080062A000F09DFCE068A060204600F009F86878D8
S315080062B020B901B0BDE8304000F08BBC01B030BD5C
S315080062C070B50446207C58BBA068012828DB264DFB
S315080062D0296A0818A060064600F081FC012020748F
S315080062E0686920B920606C612048E8610BE005F216
S315080062F014018268B21A012A03DB014608680028DD
S31508006300F7D120600C6068698068696A411A48BFDD
S3150800631068626878002804BFBDE8704000F059BC80
S3150800632070BD10B5044600F05AFC0F48217C91B1A7
S3150800633000212174A168026A891AA16000F2140179
S3150800634000E011460A681AB1A242FAD122680A6028
S31508006350416901B9C1614078002804BFBDE8104011
S3150800636000F037BC10BD000000000020F9610008ED
S3150800637010B5B74C2078401C207000F055FD00F091
S315080063802EFC2078012803D1606808B100F01DFCB6
S315080063902078401E2070BDE8104000F01ABCF0B509
S315080063A081B000F01CFCAA4C6078401C6070A948BB
S315080063B00021C16001611421416100218161C1612F
S315080063C0016841F0010101604168A34A114041603A
S315080063D00168A24A11400160016821F48021016028
S315080063E0416821F4FE01416000218160016821F4C1
S315080063F080310160016821F480210160016841F45F
S3150800640080310160016896490A6802F038020A601C
S315080064100A6842F002020A600A6822F010020A605C
S315080064200A6842F010020A60416821F0F0014160F2
S3150800643041684160416821F4605141600021416032
S31508006440416821F4E06141604FF480614160416830
S3150800645021F47C1141F4E8114160824901220A6065
S31508006460016841688908890041F002014160416874
S3150800647001F00C010829FAD17B4D7C48C5F8F80CC7
S315080064807B4868600520286000F0A9FBFF2685F890
S31508006490136D00F0EDF900F0A2FB95F8137D85F871
S315080064A0136D00F0E5F900F09AFB781E85F8130DD8
S315080064B000F0DEF900F093FB286840F0020028603F
S315080064C000F0D6F96078401E6070C0B220B901B0FD
S315080064D0BDE8F04000F07DBB01B0F0BD30BFFDE780
S315080064E010B5044600F07BFB4C2C3CDA102C0CDB78
S315080064F0103C60115F49012204F01F039A4041F8DD
S315080065002020BDE8104000F0B3B9042C0AD1564843
S31508006510D0F8141D41F48031C0F8141DBDE81040B0
S3150800652000F0A6B9052C0AD14F48D0F8141D41F43D
S315080065300031C0F8141DBDE8104000F099B9062CCA
S315080065400AD14948D0F8141D41F48021C0F8141D19
S31508006550BDE8104000F08CB90F2C04D14248016800
S3150800656041F002010160BDE8104000F081B910B5A4
S31508006570044600F034FB4C2C3CDA102C0CDB103CA7
S3150800658060113D49012204F01F039A4041F820207A
S31508006590BDE8104000F06CB9042C0AD13248D0F896
S315080065A0141D21F48031C0F8141DBDE8104000F018
S315080065B05FB9052C0AD12C48D0F8141D21F40031F6
S315080065C0C0F8141DBDE8104000F052B9062C0AD1D7
S315080065D02548D0F8141D21F48021C0F8141DBDE803
S315080065E0104000F045B90F2C04D11F48016821F06E
S315080065F002010160BDE8104000F03AB9F0B581B07B
S3150800660004460D4600264C2C1FDA102C06DB00F03B
S31508006610E6FA1A4807193E783D7014E0042CB4BF10
S3150800662001200020E11F042989410D2C0CBF0122FD
S31508006630002250EAD170104307D100F0D0FA104F6B
S31508006640241FE65DE55500F013F9304601B0F0BDAC
S3150800665000000020001002400000FFF8FFFFF6FED1
S31508006660002002406000424210E000E000400008BE
S315080066703F19010000E100E080E100E0F0E300E0FE
S3150800668018ED00E0002200F0F1BB000070B500F044
S31508006690A6FADFF86863B4680020307100F099FA4A
S315080066A0002C1CBF2568002D1CD0607C697C8142AB
S315080066B018D100E00D46296811B14A7C8242F9D00A
S315080066C000F08DFA20683169A14208BF306161691E
S315080066D00860416165612868206000B144612C60EA
S315080066E0687F2877BDE8704000F073BA30B581B08E
S315080066F0044600F0EBFB042809DBDFF80003006A18
S31508006700DFF8FC12884224BFFE2000F0F1FB0020CF
S31508006710A071206A00F57A606062E16908001CBF12
S315080067202046884700F055FAE5681FE000F057FA5A
S31508006730206920B1687C2169497C88421DD3287C60
S31508006740400710D5E868216A401A012806DA284663
S3150800675000F0B1F800F043FA287C70B1E868616A85
S31508006760411A48BF606200F034FA2D68002DDDD169
S3150800677001B0BDE8304000F032BA01B030BD70B5A6
S3150800678004460020607001202070A06800281CBF05
S31508006790016A002904D009680A001CBF40688847B6
S315080067A094F8290048B1A06894F828100177DFF812
S315080067B04C02007908B1FFF769FF206938B303E096
S315080067C02868206100F005FA00F009FA2569002D0D
S315080067D01CBF2E7C002E1CD070070ED5E868216AD7
S315080067E0411A012905DA284600F065F8287C20B9FF
S315080067F00DE0616A411A48BF606206F0FB00102886
S31508006800DED1A86880684068007C0028D8D100F0EE
S31508006810E6F9A07960B9002060712069F0B12069B5
S31508006820007C002820690AD080688068406806E0F5
S315080068302046FFF75BFFA0790028F9D1EBE7A060B7
S31508006840016A21B149680A001CBF40688847A068E8
S31508006850007F84F8280084F8290007E084F82900D6
S3150800686084F82800A060207000F0B3F9204670BDB7
S3150800687062484078002808BF00F0ABB9704710B5E9
S315080068805E4C2078401E2070C0B298B9606888B106
S3150800689000F0A5F9606830B101202070204600F0AC
S315080068A088F9002020706078002804BFBDE81040F1
S315080068B000F08FB910BD30B581B081684F4C41B139
S315080068C0226AC2600A68496802B151600A600021FA
S315080068D08160017C11F0030101740ED12169A9B907
S315080068E02061207838B901202070204600F061F92F
S315080068F00020207001E001206071607820B901B0A5
S31508006900BDE8304000F065B901B030BD427C4B7C33
S315080069109342E5DB8142E4D09A42EED103461B68F6
S31508006920002BEAD05D7CAA42E7D18B42F7D1D7E7A4
S3150800693010B50446607C31490A78521C0A7001F287
S315080069400C0100E011460A6812B1537C9842F9DB43
S31508006950226061610C6032B15461517C81420CBF86
S31508006960607F00202077207C20B900F038F9204687
S31508006970FFF7A1FFBDE8104081E730B581B01F4C95
S315080069802578681C2070204600F013F92570607879
S3150800699020B901B0BDE8304000F01BB901B030BDE8
S315080069A000B581B000F0B8FA14480121017001B0B1
S315080069B000BD30B581B0114C216A0D18207830B170
S315080069C000F007F9206A401BFCD401B030BD00F086
S315080069D006F9A068C560042101742578681C207032
S315080069E0204600F0E6F82570607820B901B0BDE8C9
S315080069F0304000F0EEB801B030BD000000000020C5
S31508006A00012E930230B585B004460D46208A4CF611
S31508006A10FF710840E98808432082A0894EF6F311E1
S31508006A200840A98808432989084369890843A08139
S31508006A30A08A4FF6FF410840A9890843A08200A80A
S31508006A4000F0E4F80D4884420CBF03980298192117
S31508006A50484329688900B0FBF1F06421B0FBF1F2E4
S31508006A601201130901FB130000013230B0FBF1F0EB
S31508006A7000F00F001043208105B030BD00380140FA
S31508006A800029818912BF41F400514DF6FF72114069
S31508006A90818170470B065B0F4FF0010C01F01F0157
S31508006AA00CFA01F1012B08BF0C3003D0022B0CBFE6
S31508006AB010301430002A026814BF114322EA01017B
S31508006AC001607047C905C90D818070478088C00577
S31508006AD0C00D704700220088084218BF01221046E0
S31508006AE0704730B40A46002113065B0F012402F0F2
S31508006AF01F0504FA05F5012B08BF838903D0022B6D
S31508006B000CBF038A838A2B40120A04FA02F2008811
S31508006B101040002B1CBF00280121084630BC7047D6
S31508006B2032488168002904BF08B008E0EFF30982FB
S31508006B30A2F12402036882E8F80F83685A6000B558
S31508006B40FFF71DFE5DF804EB816869B14A6892E8B3
S31508006B50F80F036002F1240282F309884EF0040E4E
S31508006B6013F47F4F35D07047214822490968401AE7
S31508006B7080F308884FF08071C1611F4981617FF0F9
S31508006B80060E70472046DFF874E000BDFEE71C4895
S31508006B90006818490968401A203820F0070080F371
S31508006BA008884FF0000181F3118862B600F00DF8ED
S31508006BB0FEE74FF0000181F311881249124A0A6074
S31508006BC04FF0800181F3118870470E490E4A0A601A
S31508006BD070474FF0000181F31188704700BF4FF0EE
S31508006BE0800181F31188704700BF00000000002073
S31508006BF03037002034840008DD6400088D6B0008F7
S31508006C000040000804ED00E0000000102D490A6865
S31508006C1002F00C02082A0FD10A68C2F38342921CBA
S31508006C200B68DB0358BF284B04D50B689B034CBF86
S31508006C30254B264B5A4300E0244A02600B680FF2A4
S31508006C409C02D0F800C0C3F303139B5C2CFA03F331
S31508006C5043600B68D0F804C0C3F302239B5C2CFA8C
S31508006C6003F383600B68D0F804C0C3F3C2239A5CAD
S31508006C702CFA02F2C2600968C268C1F381310FF2C8
S31508006C806C03C95CB2FBF1F101617047104A002937
S31508006C90116814BF084321EA0000106070470D4AC6
S31508006CA00029116814BF084321EA000010607047E4
S31508006CB0094A0029116814BF084321EA0000106038
S31508006CC0704700000410024000093D0000127A00D7
S31508006CD014100240181002401C1002400000000068
S31508006CE00102030401020304060708090204060850
S31508006CF02DE9F0410022CC7804F00F03E40644BFE6
S31508006D008C7823430C88E5B235B3D0F800C001254A
S31508006D105FF00F0605FA02F7BE460EEA0408F045CC
S31508006D2015D14FEA820E06FA0EF82CEA080C03FA79
S31508006D300EFE4EEA0C0C91F803E0BEF1280F08BFD0
S31508006D40476191F803E0BEF1480F08BF0761521C7E
S31508006D50082ADFD3C0F800C0B4F5807F28D3D0F85E
S31508006D6004C0002201250F2602F1080705FA07F7D5
S31508006D70BE460EEA0408F04515D14FEA820E06FA19
S31508006D800EF82CEA080C03FA0EFE4EEA0C0C91F8E3
S31508006D9003E0BEF1280F08BF476191F803E0BEF192
S31508006DA0480F08BF0761521C082ADDD3C0F804C083
S31508006DB0BDE8F08100228068084218BF012210460B
S31508006DC070470AB101617047416170470CB41CB540
S31508006DD0044604A80190009401AB0A4600A9074896
S31508006DE078441830FDF7A4F9009900220A700028A3
S31508006DF05CBF0098001B16BC5DF80CFB9FE0FFFF0C
S31508006E0030B581B004460D46FFF7E9FEE560054852
S31508006E10407820B901B0BDE83040FFF7DABE01B0CE
S31508006E2030BD00BF0000002010B50E48016A491C9D
S31508006E300162426A891A5CBF0121817190F82810A3
S31508006E4031B1491E80F82810C9B209B9012101716A
S31508006E500548046824B1606880472468002CFAD184
S31508006E6010BD00BF0000002048350020401810F073
S31508006E70030308D0C91A1FD3DB0748BF00F8012D42
S31508006E8028BF20F8022D130030B4144615461039D1
S31508006E9028BF20E93C00FAD8490728BF20E90C009A
S31508006EA048BF40F8042D890028BF20F8022D48BFA6
S31508006EB000F8012D30BC7047C91818BF00F8012D1D
S31508006EC0CB0728BF00F8012D7047000010B507480A
S31508006ED00178491C0170C068002418B10068641C58
S31508006EE00028FBD1FFF7CBFC204610BD0000002090
S31508006EF010B5044606480178491C01700021417006
S31508006F00FFF767FE0348047001780029FCD110BD1D
S31508006F10000000204C350020EFF3108072B60449BB
S31508006F200A6842F47F020A6080F31088704700BF3F
S31508006F3020ED00E030B581B00446DFF8D855E0070B
S31508006F404CBF0122002208212846FFF73AFFA00776
S31508006F504CBF0122002204212846FFF732FF6007B2
S31508006F604CBF0122002202212846FFF72AFF2007EC
S31508006F7047BF0122012100220121284601B0BDE8B0
S31508006F803040FFF71EBF000030B581B00121102048
S31508006F90FFF785FEDFF880550320A8701020E870FB
S31508006FA04FF480602880DFF86C4529462046FFF7B5
S31508006FB09FFE0320A8701020E8704FF40060288018
S31508006FC029462046FFF794FE0320A8701020E87093
S31508006FD04FF48050288029462046FFF789FE032073
S31508006FE0A8701020E8700F20288029462046FFF751
S31508006FF07FFE012208212046FFF7E3FE0122042135
S315080070002046FFF7DEFE002202212046FFF7D9FEC2
S31508007010002201212046FFF7D4FE43F69825009565
S315080070200098411E00910028FAD101220821204625
S31508007030FFF7C7FE012204212046FFF7C2FE002201
S3150800704002212046FFF7BDFE002201212046FFF758
S31508007050B8FE01224FF480612046FFF7B2FE3220C7
S3150800706000900098411E00910028FAD100224FF4A2
S3150800707080612046FFF7A5FE41F2040000900098C3
S31508007080411E00910028FAD1012208212046FFF767
S3150800709098FE012204212046FFF793FE00220221D2
S315080070A02046FFF78EFE002201212046FFF789FEC3
S315080070B001224FF480612046FFF783FE32200090BC
S315080070C00098411E00910028FAD100224FF48061F1
S315080070D02046FFF776FE642000900098411E009136
S315080070E00028FAD1012208212046FFF76AFE01226C
S315080070F004212046FFF765FE002202212046FFF7FD
S3150800710060FE002201212046FFF75BFE01224FF4B4
S3150800711080612046FFF755FE322000900098411EF8
S3150800712000910028FAD100224FF480612046FFF72B
S3150800713048FE00BF00F08FF90028FBD10022082185
S315080071402046FFF73EFE012204212046FFF739FEBE
S31508007150002202212046FFF734FE002201212046A4
S31508007160FFF72FFE01224FF480612046FFF729FE24
S31508007170322000900098411E00910028FAD1002282
S315080071804FF480612046FFF71CFE00BF00F063F94C
S315080071900028FBD100224FF480512046FFF711FE4C
S315080071A00220FFF7C7FE01224FF480612046FFF751
S315080071B008FE322000900098411E00910028FAD15E
S315080071C000224FF480612046FFF7FBFD0820FFF7F9
S315080071D0B1FE01224FF480612046FFF7F2FD32200E
S315080071E000900098411E00910028FAD100224FF421
S315080071F080612046FFF7E5FD00F02DF90028FBD158
S3150800720000224FF480512046FFF7DBFD0020FFF7F0
S3150800721091FE01224FF480612046FFF7D2FD32200D
S3150800722000900098411E00910028FAD100224FF4E0
S3150800723080612046FFF7C5FD0C20FFF77BFE012283
S315080072404FF480612046FFF7BCFD3220009000987D
S31508007250411E00910028FAD100224FF48061204691
S31508007260FFF7AFFD00F0F7F80028FBD100224FF436
S3150800727080512046FFF7A5FD0020FFF75BFE01229F
S315080072804FF480612046FFF79CFD3220009000985D
S31508007290411E00910028FAD100224FF48061204651
S315080072A0FFF78FFD0620FFF745FE01224FF48061A8
S315080072B02046FFF786FD322000900098411E009177
S315080072C00028FAD100224FF480612046FFF779FDA5
S315080072D000F0C1F80028FBD100224FF48051204667
S315080072E0FFF76FFD0020FFF725FE01224FF48061AE
S315080072F02046FFF766FD322000900098411E009157
S315080073000028FAD100224FF480612046FFF759FD84
S315080073100120FFF70FFE01224FF480612046FFF798
S3150800732050FD322000900098411E00910028FAD1A5
S3150800733000224FF480612046FFF743FD00F08BF8EA
S315080073400028FBD100950098411E00910028FAD12B
S3150800735001B030BD30B581B040F080056D4C0022DB
S315080073604FF480512046FFF72CFD2809FFF7E2FD70
S3150800737001224FF480612046FFF723FD322000905A
S315080073800098411E00910028FAD100224FF480612E
S315080073902046FFF716FD05F00F00FFF7CBFD01228B
S315080073A04FF480612046FFF70CFD322000900098CC
S315080073B0411E00910028FAD100224FF48061204630
S315080073C0FFF7FFFC00F047F80028FBD101B030BDFD
S315080073D0F0B581B0064610244E4D3778CFB301225A
S315080073E04FF480512846FFF7ECFC3809FFF7A2FD59
S315080073F001224FF480612846FFF7E3FC3220009013
S315080074000098411E00910028FAD100224FF48061AD
S315080074102846FFF7D6FC07F00F00FFF78BFD012281
S315080074204FF480612846FFF7CCFC32200090009884
S31508007430411E00910028FAD100224FF480612846A7
S31508007440FFF7BFFC00F007F80028FBD1761C641E86
S31508007450C3D101B0F0BD30B581B02F4C0320A07068
S315080074600420E070012020802A4D21462846FFF797
S315080074703FFC00224FF480512846FFF7A2FC012268
S315080074804FF400612846FFF79CFC01224FF4806107
S315080074902846FFF796FC642000900098411E00914C
S315080074A00028FAD101212846FFF784FC012818D1C3
S315080074B000224FF480612846FFF783FC00224FF430
S315080074C000612846FFF77DFC0320A0701020E070BD
S315080074D00120208021462846FFF70AFC012001B03A
S315080074E030BD00224FF480612846FFF76AFC00226F
S315080074F04FF400612846FFF764FC0320A0701020B3
S31508007500E0700120208021462846FFF7F1FB002085
S3150800751001B030BD0010014044350020DFF8FC04FE
S315080075200168002904D5016841F0004101607047EF
S31508007530FEE7DFF8E8040168002904D5016841F090
S31508007540004101607047FEE7DFF8D00401680029B2
S3150800755004D5016841F0004101607047FEE7DFF895
S31508007560BC040168002904D5016841F000410160A6
S315080075707047FEE7DFF8A4040168002904D501680E
S3150800758041F0004101607047FEE7DFF890040168AA
S31508007590002904D5016841F0004101607047FEE703
S315080075A0DFF878040168002904D5016841F0004134
S315080075B001607047FEE7DFF864040168002904D516
S315080075C0016841F0004101607047FEE7DFF84C04AE
S315080075D00168002904D5016841F00041016070473F
S315080075E0FEE7DFF838040168002904D5016841F090
S315080075F0004101607047FEE7DFF8200401680029B2
S3150800760004D5016841F0004101607047FEE7DFF8E4
S315080076100C040168002904D5016841F000410160A5
S315080076207047FEE7DFF8F4030168002904D501680E
S3150800763041F0004101607047FEE7DFF8E0030168AA
S31508007640002904D5016841F0004101607047FEE752
S31508007650DFF8C8030168002904D5016841F0004134
S3150800766001607047FEE7DFF8B4030168002904D516
S31508007670016841F0004101607047FEE7DFF89C03AE
S315080076800168002904D5016841F00041016070478E
S31508007690FEE7DFF888030168002904D5016841F090
S315080076A0004101607047FEE7DFF8700301680029B2
S315080076B004D5016841F0004101607047FEE7DFF834
S315080076C05C030168002904D5016841F000410160A6
S315080076D07047FEE7DFF844030168002904D501680E
S315080076E041F0004101607047FEE7DFF830030168AA
S315080076F0002904D5016841F0004101607047FEE7A2
S31508007700DFF818030168002904D5016841F0004133
S3150800771001607047FEE7DFF804030168002904D515
S31508007720016841F0004101607047FEE7DFF8EC02AE
S315080077300168002904D5016841F0004101607047DD
S31508007740FEE7DFF8D8020168002904D5016841F090
S31508007750004101607047FEE7DFF8C00201680029B2
S3150800776004D5016841F0004101607047FEE7DFF883
S31508007770AC020168002904D5016841F000410160A6
S315080077807047FEE7DFF894020168002904D501680E
S3150800779041F0004101607047FEE7DFF880020168AA
S315080077A0002904D5016841F0004101607047FEE7F1
S315080077B09A480168002904D5016841F00041016032
S315080077C07047FEE795480168002904D5016841F02D
S315080077D0004101607047FEE790480168002904D51A
S315080077E0016841F0004101607047FEE78B48016877
S315080077F0002904D5016841F0004101607047FEE7A1
S3150800780086480168002904D5016841F000410160F5
S315080078107047FEE781480168002904D5016841F0F0
S31508007820004101607047FEE77C480168002904D5DD
S31508007830016841F0004101607047FEE7774801683A
S31508007840002904D5016841F0004101607047FEE750
S3150800785072480168002904D5016841F000410160B9
S315080078607047FEE76D480168002904D5016841F0B4
S31508007870004101607047FEE768480168002904D5A1
S31508007880016841F0004101607047FEE763480168FE
S31508007890002904D5016841F0004101607047FEE700
S315080078A05E480168002904D5016841F0004101607D
S315080078B07047FEE759480168002904D5016841F078
S315080078C0004101607047FEE754480168002904D565
S315080078D0016841F0004101607047FEE74F480168C2
S315080078E0002904D5016841F0004101607047FEE7B0
S315080078F04A480168002904D5016841F00041016041
S315080079007047FEE745480168002904D5016841F03B
S31508007910004101607047FEE740480168002904D528
S31508007920016841F0004101607047FEE73B48016885
S31508007930002904D5016841F0004101607047FEE75F
S3150800794036480168002904D5016841F00041016004
S315080079507047FEE731480168002904D5016841F0FF
S31508007960004101607047FEE72C480168002904D5EC
S31508007970016841F0004101607047FEE72748016849
S31508007980002904D5016841F0004101607047FEE70F
S3150800799022480168002904D5016841F000410160C8
S315080079A07047FEE71D480168002904D5016841F0C3
S315080079B0004101607047FEE718480168002904D5B0
S315080079C0016841F0004101607047FEE7134801680D
S315080079D0002904D5016841F0004101607047FEE7BF
S315080079E00E480168002904D5016841F0004101608C
S315080079F07047FEE709480168002904D5016841F087
S31508007A00004101607047FEE704480168002904D573
S31508007A10016841F0004101607047FEE72CED00E087
S31508007A20F0B581B0DE4CB4F8E400042859D8DFE894
S31508007A3000F0035814585500B4F84E00012850D1E8
S31508007A400F20FEF794FD72B672B64FF0006001681B
S31508007A5081F30888C0698047FEE7B4F84E0002281B
S31508007A6004D003282CD0002001B0F0BD0121A4F8D1
S31508007A70721040F40040A4F86E00B4F8500000F10B
S31508007A80006505F5FE35002604F15407B4F85200E2
S31508007A9080080BD057F8041B05EB860000F0A0F908
S31508007AA0761CB4F85200B6EB900FF3D3B4F8500036
S31508007AB0A4F870000020A4F87200002001B0F0BD00
S31508007AC040F40040A4F86E000020A4F87200A4F860
S31508007AD0E40084F8E000002001B0F0BD0020A4F81E
S31508007AE0E400002001B0F0BD98B000243420FEF771
S31508007AF0F7FC1E20FEF7F4FC1F20FEF7F1FC8C2194
S31508007B001E20FEF77BFD8C211F20FEF777FD002047
S31508007B10FFF720FC0FF2B020FFF75AFC0FF2B8254A
S31508007B2048F20106DFF87882032000F039FA0746A2
S31508007B30C00725D510A908F1E80000F055FA08F1A4
S31508007B406C00002100220B468C46A0E80E10A0E827
S31508007B500E10A0E80E10A0E80E10BDF8420001288D
S31508007B6008BFA8F86E60641C0020FFF7F3FBA4B2F8
S31508007B702246294600A8FFF729F900A8FFF728FC9E
S31508007B80B807D1D5FFF74CFFCEE7F0B581B0854CE5
S31508007B902078401C20708248B0F84E10B0F8C220F9
S31508007BA0914202BFB0F85010B0F8C420914217D0E5
S31508007BB000F14C0100F1C002E8C9E8C2E8C9E8C210
S31508007BC0B0F8E41041B9B0F84E00012808D176495A
S31508007BD0022000F029FA03E0022908BFFFF720FF78
S31508007BE07248016841F480510160FEF7F8FF207879
S31508007BF0012803D1606808B1FEF7E7FF2078401E28
S31508007C00207001B0BDE8F040FEF7E3BF10B5654C43
S31508007C102078401C20706548016841F48031016075
S31508007C205F4890F88410491C80F88410FEF7D7FF47
S31508007C302078012803D1606808B1FEF7C6FF2078CE
S31508007C40401E2070BDE81040FEF7C3BF7047F0B570
S31508007C5081B0534C04F12C00002100220B460D463E
S31508007C602EC02EC02EC02EC02EC02EC02EC02EC096
S31508007C7004F1C0002EC02EC0022104F1E40000F079
S31508007C80F7F904F580730422202104F1E80000F0D6
S31508007C90F2F901210846FEF7F9FF01210820FEF74F
S31508007CA0FEFF01214FF48040FFF702F840494FF4E8
S31508007CB070400880032088701820C8703D48FFF778
S31508007CC017F83D4D256004F12C0060600020A06087
S31508007CD04020E06000202061802060610020A061D3
S31508007CE0E061202020624FF4405767620020A062BE
S31508007CF0324E2146304600F0CBF9256004F16C007F
S31508007D0060601020A0602020E060002020618020B4
S31508007D1060610020A061E061202020626762002087
S31508007D20A062274D2146284600F0B2F901213046C7
S31508007D3000F0C9F90121284600F0C5F90020A4F889
S31508007D40AC00A4F8AE00A4F8B000A4F8B200A4F8F9
S31508007D50B400A4F8B6000820A4F8B8000020A4F8D7
S31508007D60BA000120A4F8BC00164F04F1AC0138464D
S31508007D7000F0B2F901227121384600F0D3F9032048
S31508007D80B880306840F003003060286840F003008F
S31508007D9028600121384601B0BDE8F04000F0B8B9C6
S31508007DA0B033002000000020382F002004000240D5
S31508007DB044350020000C01400C38004044000240C5
S31508007DC0580002400038004068656C6C6F2020201F
S31508007DD02020202020202000693D25640000000086
S31508007DE070B481B002460B460F250424DFF8AC01B7
S31508007DF00168C90748BF012408D40168490748BF74
S31508007E00022403D40168C90648BF0324FF2104E0FD
S31508007E100668F60648BF03246D1E012C25D12DB32E
S31508007E20002400940091009CA4B1009C641E009458
S31508007E30009C7CB1009C641E0094009C54B1009C7C
S31508007E40641E0094009C2CB1009C641E0094009C47
S31508007E50002CEAD104240668F60748BF0124DBD4BF
S31508007E6006687607D4D50224D6E705B90524042C76
S31508007E7040F09080416841F00101416013800F2570
S31508007E800168C90748BF012408D40168490748BFE3
S31508007E90022403D40168C90648BF0324FF2104E06D
S31508007EA00668F60648BF03246D1E012C25D12DB39E
S31508007EB0002400940091009CA4B1009C641E0094C8
S31508007EC0009C7CB1009C641E0094009C54B1009CEC
S31508007ED0641E0094009C2CB1009C641E0094009CB7
S31508007EE0002CEAD104240668F60748BF0124DBD42F
S31508007EF006687607D4D50224D6E705B90524042CE6
S31508007F0041D1190C51800F220168C90748BF0124C5
S31508007F1008D40168490748BF022403D40168C90682
S31508007F2048BF0324FF2104E00368DB0648BF032497
S31508007F30521E012C25D12AB3002300930091009BE1
S31508007F40A3B1009B5B1E0093009B7BB1009B5B1E4D
S31508007F500093009B53B1009B5B1E0093009B2BB1C3
S31508007F60009B5B1E0093009B002BEAD10424036848
S31508007F70DB0748BF0124DBD403685B07D4D502249A
S31508007F80D6E702B90524012C04D0416841F6FE72F1
S31508007F9011404160204601B070BC70470C20024079
S31508007FA030B581B005460F4C2078401C2070FEF78E
S31508007FB016FEA068817C294206D1C574A0680821EE
S31508007FC001742046FEF7F5FDA068857C00218174C2
S31508007FD02078401E2070607808B9FEF7FAFD28461A
S31508007FE001B030BD0000002030B581B004460D4612
S31508007FF00C480178491C0170FEF7F1FDA06840B9EC
S315080080004021204600F09CF8FEF7E9FDA06800280C
S31508008010F6D02946204600F0B1F801B0BDE8304058
S31508008020FEF72DBC0000002030B581B004460D4691
S31508008030FEF7D5FDA87C2043A874297C01F0F80139
S31508008040082908D1E97C014205D0284601B0BDE8D7
S315080080503040FEF730BC0548407820B901B0BDE88D
S315080080603040FEF7B6BD01B030BD00BF00000020AD
S31508008070002200F0AFB870B400240025264670C070
S3150800808070C018384360C260017570BC7047000044
S3150800809002686FF30E128B681A430B6A1A430B6950
S315080080A01A434B691A438B691A43CB691A434B6ABD
S315080080B01A438B6A1A430260CA6842600A68826079
S315080080C04968C16070470029016812BF41F0010183
S315080080D04908490001607047028802F441520B883A
S315080080E01A434B881A438B881A43CB881A430B8941
S315080080F01A434B891A438B891A43CB891A43028040
S31508008100828B4FF2FF731A408283098A0182704775
S315080081100029018812BF41F040014FF6BF72114095
S31508008120018070470123090903FA01F189B2002A7F
S31508008130828814BF114322EA01018180704700003A
S3150800814070B584B005460C46029501950A4EB0688E
S315080081500390FEF744FD2868009000A82860009860
S3150800816008B100A94160B06800A981600474FEF7EF
S3150800817004FC04B070BD00BF0000002010B5044622
S31508008180207D226942436368D35C01F8013B521C97
S31508008190401EF8D12069401C2061E168884224BF4E
S315080081A000202061A068421EA260094A52788842CF
S315080081B007D10AB9FEF70DFD2046BDE8104000F0CC
S315080081C023B8002A04BFBDE81040FEF702BD10BD63
S315080081D00000002000B500BF1300964694461039EB
S315080081E028BFA0E80C50FAD85FEA417C28BF0CC02B
S315080081F048BF40F8042BC90728BF20F8022B48BF00
S3150800820000F8012B00BD000010B5044602E0C06866
S31508008210FEF751FBFEF7E3FC20680028F7D1044877
S315080082204078002804BFBDE81040FEF7D2BC10BD58
S3150800823000000020C820FEF7BCFBFBE710B584B0A1
S31508008240FEF7CDFC20484178491C4170FEF7A8FB93
S31508008250FEF7A5F800F056F81C4C022002904FF4E1
S315080082600070019000941A4B32220FF2740104F543
S31508008270007000F053F8022002904FF4007001904D
S3150800828004F50A700090134B34220FF2600104F5CE
S31508008290C56000F043F8022002904FF40070019088
S315080082A004F5856000900C4B35220FF24C0104F55D
S315080082B0CA6000F033F8094801210170FEF767FC2F
S315080082C0002004B010BD000000000020382D00205A
S315080082D0E97A0008ED580008358200084D35002077
S315080082E05461736B31205350490000004C502054A0
S315080082F061736B32000000004C50205461736B337D
S315080083000000000000B581B0FEF73EFEFFF79FFCB7
S3150800831001B05DF804EBFDF79DBB00002DE9F047C1
S3150800832004460D4690469946089E099FDDF828A002
S3150800833018480178491C0170C9B2042921BF16489A
S31508008340006A1649884224BFFE20FEF7D1FD28217F
S315080083502046FFF78DFE84F81180207C10490978A5
S315080083600843207484F81DA005B1A561B819C00892
S31508008370C000002140F8481D4FF08071016409498A
S31508008380C163C0F8449060602046BDE8F047FEF738
S31508008390CFBA00BF4F35002000000020012E9302FF
S315080083A04E350020856B000810B507497944183109
S315080083B0064C7C44163404E0081D0A6851188847A0
S315080083C00146A142F8D110BD0800000028000000AF
S315080083D073CAFFFF243500002C00002000000000AF
S315080083E01FCAFFFF2C0000005000000000000020FC
S315080083F0000000000120C046002801D0FFF7D4FF86
S315080084000020FFF71BFF00F000F800F001B800009D
S315080084100746384600F002F8FBE700000149182035
S31508008420ABBEFBE726000200C046C046C046C046B3
S31508008430FFF7E0FF00000000000000000000000059
S31508008440000000000000000000000000000000001E
S3150800845000000000000000000000000000400000CE
S30908008460000000000A
S7050800842945
