S0120000626F6F746C6F616465722E73726563E7
S31508000000F8020020290F0008370E0008390E0008EC
S315080000103B0E00083D0E00083F0E0008410300088D
S31508000020000000000000000000000000430E000869
S31508000030410E000800000000450E0008470E0008A3
S31508000040490E00084B0E00084D0E00084F0E00081A
S31508000050510E0008530E0008550E0008570E0008EA
S31508000060590E00085B0E00085D0E00085F0E0008BA
S31508000070610E0008630E0008C1020008EF020008BE
S31508000080650E0008670E0008690E00086B0E00086A
S315080000906D0E00086F0E0008710E0008730E00083A
S315080000A0750E0008770E0008790E00087B0E00080A
S315080000B07D0E00087F0E0008810E0008830E0008DA
S315080000C0850E0008870E0008890E00088B0E0008AA
S315080000D08D0E00088F0E0008910E0008930E00087A
S315080000E0950E0008970E0008990E00089B0E00084A
S315080000F09D0E00089F0E0008A10E0008A30E00081A
S31508000100A50E0008A70E0008A90E0008AB0E0008E9
S31508000110AD0E0008AF0E0008B10E0008B30E0008B9
S31508000120B50E0008B70E0008B90E0008BB0E000889
S315080002002DE9F843C64EB08E20B102280FD0042837
S3150800021051D052E0C348408C01284ED10220B08606
S31508000220C14D48F2010068800120E88039E0BD4CE4
S31508000230608C022802D0032836D03EE0BA4D012150
S31508000240E98040F400406880A08C00F1006000F569
S315080002504048B648804522D34FEA88304FEA1069AD
S31508000260706E10EA490F0BD100F0BFF94FEA8920EA
S3150800027000F1006000F0C2F9706E50EA490070663D
S31508000280002604F1280706E057F8041B08EB860049
S3150800029000F0D2F9761CE08CB6EB900FF4D3A08C64
S315080002A0A8800020E88008E09F4D40F40040688060
S315080002B00020E88000E00020B0860020BDE8F28338
S315080002C080B5974897494A8C43889A4202BF8A8CD8
S315080002D083889A4205D02022203100F004FAFFF7DD
S315080002E08FFF9348016841F48051016001BD904831
S315080002F0016841F4803101608B48017E491C017612
S31508000300704780B500F0B9F800F020F900F0F7F86A
S31508000310BDE8014029E080B500F0FCF900F0C6FA16
S3150800032000F0D2FA834800F041FB834800F0FCFB5A
S31508000330824800F05FFC8248BDE8024000F05ABCE3
S3150800034080B5FFF7E8FFFFF7DCFF62B67448808EDA
S315080003500028FDD0FEE772B67448016881F3088864
S3150800036040680047FFF7F7FFFCE72DE9F04186B044
S315080003706C4E40220021304600F0C6FC6A4C4022F2
S315080003800021204600F0C0FC654D20200590002085
S315080003900490294684B06846202200F0CFFC0FBCA2
S315080003A000F0B2FC0222002105F1340000F0ACFC9A
S315080003B0644FAF63EE630020286440206864002021
S315080003C0A8648020E8640020286568652020A86560
S315080003D04FF44058C5F85C8000202866574E05F152
S315080003E03801304600F065FCAF63EC6310202864E2
S315080003F0202068640020A8648020E864002028651E
S3150800040068652020A865C5F85C80002028664C4CE5
S3150800041005F13801204600F04CFC0121304600F079
S3150800042063FC0121204600F05FFC00202862686218
S31508000430A8620820A8850020E885012028863E4F66
S3150800044005F12001384600F0A1FB0122712138464A
S3150800045000F0C2FB0320B880306840F0030030602B
S31508000460206840F0030020600121384600F0AAFB0E
S315080004700020A88606B0BDE8F08180B500F04AF9EC
S315080004804FF4803000F05EF900F075F92E490870D7
S31508000490012825D1102000F0A2F8022000F094F8D7
S315080004A0002000F097F94FF4806000F09FF94FF4B0
S315080004B0806000F094F94FF4E0114FF4803000F0BA
S315080004C072F9012000F077F9392000F0C4F9002804
S315080004D0FAD0022000F072F900F077F90828FBD16B
S315080004E00121082000F093F901214FF4804000F023
S315080004F097F901210120BDE8044000F07FB980B5D5
S315080005004FF47040ADF8000003208DF80200182063
S315080005108DF8030000A9074800F096FA01BD00000F
S315080005200000002068000020A80000200040000805
S3150800053004000240000C014000380040440002401C
S31508000540580002400C380040F000002080B5002119
S315080005504FF0006000F012FA4FF4C06000F0C9F9DD
S3150800056023208DF8000001208DF8010002208DF867
S31508000570020001208DF8030000A800F0BFF924202E
S315080005808DF8000000208DF8010001208DF802008A
S3150800059000A800F0B3F90E208DF8000000208DF8B1
S315080005A0010001208DF8020000A800F0A7F90F202D
S315080005B08DF8000000208DF8010001208DF802005A
S315080005C000A800F09BF901BDDFF8D0100A6802F018
S315080005D03802FFE70A600A68104308607047DFF8C8
S315080005E0BC100A6822F01002F4E7DFF8B400DFF85E
S315080005F0B4100160DFF8B0100160704770B50546A9
S3150800060040F6FF76304600F055F8042813D1274CFB
S31508000610206840F0020020606560206840F04000D5
S315080006202060304600F046F8012804D0216841F6DB
S31508000630FD721140216070BD70B505460E460F204B
S3150800064000F038F8042816D1184C206840F001004C
S3150800065020602E800F2000F02DF8042804D1300CDD
S3150800066068800F2000F026F8012804D0216841F69A
S31508000670FE721140216070BD04200D490A68D20738
S3150800068001D5012070470A68520701D50220704734
S315080006900968C90648BF03207047000000200240C9
S315080006A00420024023016745AB89EFCD10200240A4
S315080006B00C20024038B50546FFF7DEFFFF2408E0A8
S315080006C00098401E009000980028F9D1FFF7D4FF43
S315080006D06D1E012804D125B1002000900094F2E790
S315080006E005B9052032BD10B5044600F017FB2046B3
S315080006F010BD50F8041B61B150F8042BD30744BF52
S31508000700A9F101039A18002342F8043B091FFAD1FC
S31508000710EFE770475A48016841F0010101604168F6
S31508000720584A114041600168574A11400160016802
S3150800073021F480210160416821F4FE014160002115
S31508000740816070474E490A6822F480320A600A6856
S3150800075022F480220A60B0F5803F03D0B0F5802FDE
S3150800076004D07047086840F4803002E0086840F416
S31508000770A0200860704770B5002440F2FF15434E6C
S31508000780312000F068F830707068401C706030786E
S3150800079010B97068A842F3D1312000F05CF800B1B6
S315080007A00124204670BD3A4A136823F47C13184383
S315080007B008431060704737490860704734490A682B
S315080007C0920850EA8200086070473148006800F0D5
S315080007D00C0070472E490A6822F0F00203E02C4903
S315080007E00A6822F4E06210430860704728490A68DC
S315080007F022F4605242EAC00008607047264A00297F
S31508000800116814BF084321EA000010607047234AA4
S315080008100029116814BF084321EA000010607047D8
S315080008201F4A0029116814BF084321EA0000106016
S3150800083070471C4A0029116814BF084321EA0000C2
S3150800084010607047184A0029116814BF084321EA46
S3150800085000001060704700214209094B012A08BFB1
S315080008601A6803D0022A0CBF1A6A5A6A012300F0D2
S315080008701F0003FA00F0024218BF0121084670471C
S31508000880001002400000FFF8FFFFF6FEE800002017
S315080008900410024060004242141002401810024040
S315080008A01C1002400C1002401010024036484FF04F
S315080008B0FF3101606FF07042426034480160426067
S315080008C03C21334800F066BA32484FF02061016097
S315080008D000214160304981600021C16001614161A8
S315080008E08161C16101624FF0FF3141628162C1627B
S315080008F07047294908432949086070472DE9F0419E
S3150800090005780121C27882B3244A126802F4E062AB
S31508000910C2F5E062120A25F003031D4C1F5905F0C3
S315080009200305ED00FF26AE40B74390F801C0C2F1BB
S31508000930040E0CFA0EFC90F802E04FF00F0828FAA5
S3150800094002F202EA0E0242EA0C021201AA40324000
S315080009503A431A5100784211114B00F01F0001FA70
S3150800096000F043F82200BDE8F0816811064A05F058
S315080009701F03994042F82010BDE8F081094A11404A
S31508000980084309490860704780E100E080E200E01A
S3150800099000E400E004ED00E00000FA050CED00E0DC
S315080009A000E100E080FFFF1F08ED00E080B5574931
S315080009B0884212D05649884216D0564988421AD0DB
S315080009C0554988421ED05549884222D05449884202
S315080009D026D0544988422AD001BD01210420FFF7B8
S315080009E028FF002104202AE001210820FFF721FF23
S315080009F00021082023E001211020FFF71AFF00211B
S31508000A0010201CE001212020FFF713FF00212020E1
S31508000A1015E001214020FFF70CFF002140200EE0E1
S31508000A2001218020FFF705FF0021802007E0012132
S31508000A304FF48070FFF7FDFE00214FF48070FFE74A
S31508000A40BDE80440FFF7F5BE2DE9F0410022CC7859
S31508000A5004F00F03E40644BF8C7823430C88E5B200
S31508000A602DB3D0F800C001250F2605FA02F7BE46B9
S31508000A700EEA0408F04515D14FEA820E06FA0EF87A
S31508000A802CEA080C03FA0EFE4EEA0C0C91F803E069
S31508000A90BEF1280F08BF476191F803E0BEF1480F81
S31508000AA008BF0761521C082ADFD3C0F800C0B4F596
S31508000AB0807F28D3D0F804C0002201250F2602F132
S31508000AC0080705FA07F7BE460EEA0408F04515D1E9
S31508000AD04FEA820E06FA0EF82CEA080C03FA0EFE06
S31508000AE04EEA0C0C91F803E0BEF1280F08BF4761E7
S31508000AF091F803E0BEF1480F08BF0761521C082AA7
S31508000B00DDD3C0F804C0BDE8F0810000000801404C
S31508000B10000C01400010014000140140001801407B
S31508000B20001C01400020014080B51549884211D0BB
S31508000B301449884217D01449884220D101214FF41C
S31508000B408050FFF776FE00214FF48050BDE8044040
S31508000B50FFF76FBE01214FF48040FFF773FE0021B7
S31508000B604FF4804007E001214FF40040FFF76AFE8A
S31508000B7000214FF40040BDE80440FFF763BE01BD05
S31508000B8000380040003C004000300140028802F472
S31508000B9041520B881A434B881A438B881A43CB88D1
S31508000BA01A430B891A434B891A438B891A43CB89F3
S31508000BB01A430280828B4FF2FF731A408283098A96
S31508000BC0018270470029018812BF41F040014FF6A3
S31508000BD0BF721140018070470123090903FA01F128
S31508000BE089B2002A828814BF114322EA0101818052
S31508000BF0704700000168490849000160002101604A
S31508000C0041608160C1603D49401A18D014381BD034
S31508000C1014381ED0143821D0143824D0143824D0CF
S31508000C20143827D04FF46271401A28D014382BD0C4
S31508000C3014382ED0143831D0143834D07047304890
S31508000C40016841F00F0132E02D48016841F0F001DA
S31508000C502DE02B48016841F4706128E028480168B6
S31508000C6041F4704123E026481EE02548016841F416
S31508000C7070011CE02248016841F0706117E02148C4
S31508000C80016841F00F0112E01E48016841F0F001C9
S31508000C900DE01C48016841F4706108E019480168D4
S31508000CA041F4704103E01748016841F4702101607E
S31508000CB0704702686FF30E128B681A430B6A1A4361
S31508000CC00B691A434B691A438B691A43CB691A4352
S31508000CD04B6A1A438B6A1A430260CA6842600A68FA
S31508000CE082604968C16070470029016812BF41F0F7
S31508000CF001014908490001607047000008000240E8
S31508000D00040002400404024010B5044610460A4690
S31508000D100146204600F042F8204610BD62B38B0714
S31508000D2008D0521E11F8013B00F8013B00F0248060
S31508000D308B07F6D1830740F0208000BF103A07D30F
S31508000D4030B4B1E83810103AA0E83810F9D230BCFF
S31508000D50530724BFB1E80810A0E8081044BF51F8AB
S31508000D60043B40F8043BD20724BF31F8022B20F895
S31508000D70022B44BF0B7803707047083A07D3B1E8D3
S31508000D800810083A40F8043B40F804CBF7D253075A
S31508000D90E4E70000002200F035B8000062F30F22F5
S31508000DA062F31F42401810F0030308D0C91A1FD374
S31508000DB0DB0748BF00F8012D28BF20F8022D1300D5
S31508000DC030B414461546103928BF20E93C00FAD835
S31508000DD0490728BF20E90C0048BF40F8042D8900C0
S31508000DE028BF20F8022D48BF00F8012D30BC7047F7
S31508000DF0C91818BF00F8012DCB0728BF00F8012D28
S31508000E007047000000B500BF130096469446103997
S31508000E1028BFA0E80C50FAD85FEA417C28BF0CC06E
S31508000E2048BF40F8042BC90728BF20F8022B48BF43
S31508000E3000F8012B00BD7047FEE7FEE7FEE7FEE778
S31508000E4070477047704770477047704770477047DC
S31508000E5070477047704770477047704770477047CC
S31508000E6070477047704770477047704770477047BC
S31508000E7070477047704770477047704770477047AC
S31508000E80704770477047704770477047704770479C
S31508000E90704770477047704770477047704770478C
S31508000EA0704770477047704770477047704770477C
S31508000EB070477047704770477047704710B50749C5
S31508000EC079441831064C7C44163404E0081D0A6837
S31508000ED0511888470146A142F8D110BD0800000004
S31508000EE0140000000FF8FFFFF400000000000020C7
S31508000EF0000000000120C046002801D0FFF7DEFFF1
S31508000F000020FFF72FFA00F000F800F001B8000003
S31508000F100746384600F002F8FBE7000001491820AA
S31508000F20ABBEFBE726000200C046C046C046C04628
S30908000F30FFF7E0FFDA
S70508000F29BA
