S016000061726D5F7065726970686572616C2E7372656343
S31508004000D0380020899E0008E5970008ED9700083B
S31508004010F5970008FD9700080598000800000000BD
S315080040200000000000000000000000000D980008D5
S3150800403015980008000000003D6200082551000898
S315080040401D980008259800082D980008359800083E
S315080040503D980008459800084D98000855980008AE
S315080040605D980008659800086D980008759800081E
S315080040707D9800088598000833880008E3880008BA
S315080040808D980008959800089D980008A59800083E
S31508004090AD980008B5980008BD980008C5980008AE
S315080040A0CD980008D5980008DD980008E59800081E
S315080040B0ED980008F5980008FD980008059900088D
S315080040C00D990008159900081D99000825990008FA
S315080040D055890008A5410008A74100085F43000864
S315080040E02D990008359900083D990008459900085A
S315080040F04D990008559900085D99000865990008CA
S315080041006D990008759900087D9900088599000839
S315080041108D990008959900089D990008A5990008A9
S31508004120AD990008B5990008BD990008C599000819
S3150800413080B500F001FA01BD80B500F0FDF901BDBA
S315080041406422DFF8EC13DFF8EC0300F00CFF4FF401
S315080041507A72DFF8B01CDFF8700D00F004FF8C21CE
S31508004160362001F089F9352001F016F9362001F0DC
S3150800417013F9372001F010F9DFF8500D00210180FE
S315080041804FF480620021DFF8800C01F0E7F9DFF8D0
S315080041903C0D0021A0F8601000F0CEF9C82001F00F
S315080041A00EFDFBE7704780B5DFF8600C0078401C11
S315080041B0DFF8581C0870DFF8180D0078401CDFF887
S315080041C0101D087001F0B0FB0821DFF8440C0068E8
S315080041D001F008FF002805D00821DFF8340C006834
S315080041E001F057FF0221DFF8280C006801F0FAFEFB
S315080041F0002805D00221DFF8180C006801F049FFF5
S315080042000421DFF80C0C006801F0ECFE002805D04C
S315080042100421DFF8FC0B006801F03BFF0121DFF801
S31508004220F00B006801F0DEFE002805D00121DFF85A
S31508004230E00B006801F02DFF2021DFF8D40B0068A1
S3150800424001F0D0FE00281DD0DFF8C40B006801F08D
S31508004250A2FE8DF80000DFF8740CB0F86000DFF8F5
S315080042606C1C40189DF8001080F86210DFF85C0C92
S31508004270B0F86000401CDFF8541CA1F86000AD4897
S3150800428000F0AEFE8021DFF8880B006801F0AAFE78
S3150800429000283FD040F22771DFF8740B006801F060
S315080042A031FF012836D1DFF8240CC08B012820D332
S315080042B0DFF8180C808BDFF8141C401890F82000E3
S315080042C08DF80000DFF8040C808B401CDFF8FC1B1F
S315080042D088839DF8001089B2DFF8340B006801F076
S315080042E035FEDFF8E80BC08B401EDFF8E01BC883FD
S315080042F010E0DFF8D80BC08B00280BD1DFF8CC0B09
S3150800430000218183002240F22771DFF8040B006840
S3150800431001F081FD01F0F1FFDFF8F00A0078411E97
S31508004320DFF8E82A1170C0B2002802D1982001F0FF
S31508004330FBFFDFF89C0B0078012806D1DFF8900B0D
S315080043404068002801D001F0CEFFDFF8840B007822
S31508004350401EDFF87C1B087001F0C9FF01BD7047DD
S3150800436080B50121042002F0AEF801214FF4804007
S3150800437002F0A9F801215FF4003002F0D0F801211B
S315080043805FF4802002F0CBF8DFF84C0B04210180A3
S31508004390DFF8440B03218170DFF83C0B1821C1704C
S315080043A0DFF8341BDFF8340B006802F0F5F8DFF8A5
S315080043B0300B4FF416510160DFF8240B0021818081
S315080043C0DFF81C0B0021C180DFF8140B00210181E6
S315080043D0DFF80C0B00218181DFF8040B0C214181E9
S315080043E0DFF8FC1ADFF8FC0A006801F001FCDFF8C8
S315080043F0F01ADFF81C0A006801F0FAFBDFF8E01A89
S31508004400DFF8E40A006801F0F3FB012240F22551C7
S31508004410DFF8FC09006801F0FEFC012240F2277172
S31508004420DFF8EC09006801F0F6FC0121DFF8E00985
S31508004430006801F0B9FC01BD2DE9F043B0F8009021
S315080044404B465FF000094A4692B2082A2BD2C9B2F7
S3150800445051FA02F919F001094F4613F001094C46C1
S31508004460C3F340094D46C3F380394E4697EA04091B
S3150800447019F00109C84698EA050919F00109CE4656
S3150800448098EA060919F00109CC469BB25B0845F67D
S31508004490FE7919EA03035EEA030353EA4C3353EA47
S315080044A0C833521CD0E70380BDE8F08370B504001A
S315080044B00D0000200600B6B2ADB2AE4217D2B6B2B3
S315080044C0305D102811D0B6B2305D01280DD0B6B2D5
S315080044D0305D022809D0B6B2315DDFF8100AFFF761
S315080044E0ABFFB6B2305D032801D0761CE3E770BD9A
S315080044F080B5012240F22771DFF81409006801F03F
S315080045008AFC01BD10B504002100DFF8BC0902F0E1
S315080045100DFADFF8B40900F063FD10BD38B50400E4
S315080045200D00DFF8A80904802800FFF7EBFF31BD6E
S31508004530314100086435002080B5DFF8B4090078F9
S31508004540002802D0002000F05BBCDFF8A409012196
S315080045500170DFF87809008800281AD0012800F0D1
S315080045604784022846D0032865D0042800F0C28173
S31508004570052800F03382062800F0B182072800F0EB
S315080045809C80082800F040810B2800F03D8300F04D
S3150800459030BCDFF8340900F08BFDDFF83009002164
S315080045A00176DFF8280900214176DFF82009002185
S315080045B080F86214DFF83C0900210160DBA1DFF80E
S315080045C0380902F0D5F94FF480620021DFF838087F
S315080045D000F0C4FFDFF8F4080021A0F86010DFF847
S315080045E01C09002101704FF4FA610220FFF796FFBB
S315080045F000F002BCDFF8D4080021C183DFF8CC083C
S31508004600C08BDFF8C8184018052180F82010DFF89D
S31508004610BC08C08B401CDFF8B418C883FFF768FFD6
S31508004620DFF8A8080021A0F860104FF4FA6103200B
S31508004630FFF774FFE0E3DFF89408B0F8600000289D
S3150800464005D14FF4FA610220FFF768FFD4E3DFF8DB
S315080046507C08B0F86020DFF8B017DFF8A40800F08F
S31508004660D9FBDFF8680890F8620005280AD1DFF858
S315080046705C080021A0F860104FF4FA610420FFF7E7
S315080046804DFFB9E3DFF8440890F86200102809D115
S31508004690DFF838080021A0F86010C8210720FFF7C6
S315080046A03DFFA9E3DFF824080021A0F860104FF4C5
S315080046B07A710320FFF732FF9EE3DFF81008002126
S315080046C0C183DFF80808C08BDFF8001840181021EE
S315080046D080F82010DFF8F407C08B401CDFF8EC17D1
S315080046E0C883DFF8E807C08BDFF8E0174018012118
S315080046F080F82010DFF8D407C08B401CDFF8CC17F1
S31508004700C883DFF8C807407E002812D0DFF8F41700
S31508004710DFF8B807C08BDFF8B4278018203002F01E
S3150800472049F9DFF8A817C98B4018DFF8A017C8831E
S3150800473011E0DFF8D417DFF89407C08BDFF88C2771
S315080047408018203002F036F9DFF88017C98B401838
S31508004750DFF87817C883DFF87407C08BDFF86C17A3
S315080047604018102180F82010DFF86007C08B401C25
S31508004770DFF85817C883DFF85407C08BDFF84C17E3
S315080047804018032180F82010DFF84007C08B401C32
S31508004790DFF83817C883DFF8340700214183DFF8CC
S315080047A02C07C18BDFF86407FFF780FEDFF81C07CC
S315080047B0C08BDFF818174018DFF81017498B80F8F8
S315080047C02010DFF80807C08B401CDFF80017C883E5
S315080047D0DFF8F806C08BDFF8F4164018DFF8EC1699
S315080047E0498B89B2090A80F82010DFF8E006C08BE9
S315080047F0401CDFF8D816C883FFF77AFE4FF47A71A3
S315080048000820FFF78BFEF7E2DFF8C006B0F8600075
S3150800481000280DD1DFF8B40600210176DFF8AC06D2
S31508004820002141764FF47A710220FFF777FEE3E222
S31508004830DFF89806B0F86020DFF8CC15DFF8C00678
S3150800484000F0E8FADFF88406B0F86000022846D1DE
S31508004850DFF8780690F86200102840D1DFF86C0679
S3150800486090F86300312805D0DFF8600690F86300F9
S31508004870302834D1DFF854060021C183DFF84C060E
S31508004880C08BDFF848164018042180F82010DFF89E
S315080048903C06C08B401CDFF83416C883FFF728FE99
S315080048A0DFF8280601210176DFF82006407E002879
S315080048B00AD0DFF818060021A0F864144FF47A71BC
S315080048C00B20FFF72BFE04E04FF47A710420FFF764
S315080048D025FEDFF8F8050021A0F860108CE2DFF865
S315080048E0EC050021A0F860104FF47A710820FFF754
S315080048F015FE81E2DFF8D405B0F8600000280DD176
S31508004900DFF8C80500210176DFF8C00500214176E9
S315080049104FF47A710220FFF701FE6DE2DFF8AC056D
S31508004920B0F86020DFF8E01402E000BF00000000E5
S31508004930DFF8CC0500F06EFADFF8900590F8620013
S31508004940052840D1DFF884050021C183DFF87C05FE
S31508004950C08BDFF878154018102180F82010DFF892
S315080049606C05C08B401CDFF86415C883DFF85C054E
S31508004970C08BDFF85815421CCA83DFF88015097802
S31508004980002901D0312100E0302180B2DFF83C2532
S31508004990801880F82010DFF864050078002801D117
S315080049A0012000E00020DFF854150870FFF7A0FD8D
S315080049B0DFF818050021A0F860104FF47A71052079
S315080049C0FFF7ACFD18E2DFF804050021A0F8601037
S315080049D04FF47A710420FFF7A1FD0DE2DFF8EC042D
S315080049E0B0F8600000280DD1DFF8E0040021017658
S315080049F0DFF8D804002141764FF47A710220FFF7D8
S31508004A008DFDF9E1DFF8C404B0F86020DFF8F8138B
S31508004A10DFF8EC0400F0FEF9DFF8B00490F8620065
S31508004A20102851D1DFF8A404B0F8600004284BD34D
S31508004A30DFF89804B0F86000DFF89014401890F892
S31508004A405F00032840D1DFF884040021C183DFF822
S31508004A507C04C08BDFF874144018102180F82010ED
S31508004A60DFF86804C08B401CDFF86014C883DFF8E1
S31508004A705C04C08BDFF85414421CCA83DFF87C142C
S31508004A800978002901D0312100E0302180B2DFF811
S31508004A903C24801880F82010DFF86004007800288D
S31508004AA001D1012000E00020DFF850140870FFF75C
S31508004AB01FFDDFF818040021A0F860104FF47A7182
S31508004AC00620FFF72BFD97E1DFF800040021A0F888
S31508004AD060104FF47A710520FFF720FD8CE1DFF8AE
S31508004AE0EC03B0F8600000280DD1DFF8E0030021E0
S31508004AF00176DFF8D803002141764FF47A71022057
S31508004B00FFF70CFD78E1DFF8C403B0F86020BE4972
S31508004B10DFF8EC0300F07EF9DFF8B00390F86200E6
S31508004B20042867D1DFF8A40301214176DFF89C0346
S31508004B30007E002854D0DFF894030021A0F86414FE
S31508004B40DFF88803B0F86000022843D3DFF8C00313
S31508004B5000210160DFF8BC0300210160DFF86C0367
S31508004B600021C183DFF86403C08BDFF860134018A7
S31508004B70102180F82010DFF85403C08B401CDFF8A2
S31508004B804C13C883DFF84403C08BDFF84013421C7C
S31508004B90CA83DFF868130978002901D0312100E0BB
S31508004BA0302180B2DFF82423801880F82010DFF83F
S31508004BB04C030078002801D1012000E00020DFF82E
S31508004BC03C130870FFF794FC4FF47A710B20FFF73B
S31508004BD0A5FC0AE04FF47A710B20FFF79FFC04E06E
S31508004BE04FF47A710720FFF799FCB8480021A0F81E
S31508004BF0601001E1B5480021A0F860104FF47A7101
S31508004C000620FFF78BFCF7E0B048B0F860000028F4
S31508004C100BD1AE4800210176AC48002141764FF40D
S31508004C207A710220FFF77AFCE6E0A848B0F860201F
S31508004C307549B34800F0EEF8A44890F862000528D4
S31508004C403AD1B34800210160B248002101609F486B
S31508004C500021A0F860109D480021C1839B48C08BA5
S31508004C609A494018102180F820109848C08B401C9B
S31508004C709649C8839548C08B9449421CCA839F4964
S31508004C800978002901D0312100E0302180B28F4A0D
S31508004C90801880F8201099480078002801D1012052
S31508004CA000E0002095490870FFF722FC4FF47A715E
S31508004CB00B20FFF733FC9FE08448B0F86000062815
S31508004CC06DD3824890F86200102868D17F4890F822
S31508004CD06300022863D17D48B0F860007B4940181C
S31508004CE090F85E0010285AD17848B0F86000801F06
S31508004CF0884908608748026887497448B0F8640498
S31508004D00724BC01800F2664001F06EFE6F48B0F8AC
S31508004D1064048049096808186C49A1F864044FF4CA
S31508004D2080620021384800F019FC68480021A0F884
S31508004D30601077480068401C754908606348002180
S31508004D40C1836248C08B61494018102180F8201041
S31508004D505E48C08B401C5D49C8835C48C08B5B4974
S31508004D60421CCA8365490978002901D0312100E02F
S31508004D70302180B2554A801880F820105F480078A4
S31508004D80002801D1012000E000205C490870FFF7E7
S31508004D90AFFB4FF47A610B20FFF7C0FB2CE04B48C2
S31508004DA090F86200042813D148480021A0F8601042
S31508004DB050480121016047A14F4801F0D9FD012063
S31508004DC0424908804FF47A7180B2FFF7A7FB13E0D7
S31508004DD03E480021A0F860103C48002141763B4837
S31508004DE0002101764FF47A710220FFF797FB03E062
S31508004DF002E03648002101803D480021017000206C
S31508004E0002BD0000394100088E000020C636002089
S31508004E10D43500202DE9FF4104000D0016000020BE
S31508004E200700B7424EDA062E21DBB01E87421ED196
S31508004E30781910F8020C102819D1781910F8010CF5
S31508004E40172804D0781910F8010C03280FD15FF041
S31508004E500008785D7919497850EA012080461FFADA
S31508004E6088F842462D4900A801F0A4FD2AE0785D9D
S31508004E70002818D0012817D0022816D0032815D0E4
S31508004E80042814D0052813D0062812D00A2816D0CC
S31508004E900D2813D010280DD015280CD016280BD0A5
S31508004EA017280AD00CE00BE00AE009E008E007E062
S31508004EB006E005E004E003E002E001E000E0FFE7C9
S31508004EC07F1CAEE7BDE8FF81300000202C000020E3
S31508004ED0000000206F6B0000A0350020043600207B
S31508004EE08C35002034360020D835002046000020B6
S31508004EF09D2C0020A02C0020A42C00209C2C0020F7
S31508004F00949E0008109E0008249E00084C0000206D
S31508004F10942C0020982C0020900000207C9E0008ED
S31508004F2030B581B004467C4D13E0A061016861612B
S31508004F3000210174A069816001F0D9F92878401C24
S31508004F402870A069406880472878401E287001F0BC
S31508004F50D4F9606928B18168226A8A1A012AE4DBD1
S31508004F60616201B030BD2DE9F04104468846164617
S31508004F7000F084FC01F0C1F9684F7D693DB1A54296
S31508004F8004BFAB2001F0D0F92D68002DF7D1787851
S31508004F90F02108421CBF992001F0C6F9787808B9B3
S31508004FA001F0A5F900200021024607C403C4143CF9
S31508004FB065206074E660A660C4F8048001F09DF977
S31508004FC07878F02108421CBF992001F0ADF978786D
S31508004FD0002804BFBDE8F04101F089B9BDE8F081B9
S31508004FE010B5044600F04AFC607C65281CBF812089
S31508004FF001F09AF901F081F9207C20B1204600F0F1
S3150800500057F801F07AF9E068A060204600F010F839
S31508005010424C6078F02108421CBF992001F084F9BF
S315080050206078002804BFBDE8104001F060B910BDE3
S3150800503070B50446607C65281CBF812001F074F9B0
S3150800504000F01CFC207C90BBA06801282FDB334DA8
S31508005050296A0818A060064601F04FF90120207455
S31508005060686920B920606C612D48E8610BE005F29B
S3150800507014018268B21A012A03DB0146086800286F
S31508005080F7D120600C6068698068696A411A48BF70
S3150800509068626878F02108421CBF992001F044F93B
S315080050A06878002804BFBDE8704001F020B970BDDB
S315080050B030B581B0044600F0E1FB607C65281CBF72
S315080050C0812001F031F901F018F9144D207C90B1D6
S315080050D000202074A068296A401AA06005F214000E
S315080050E000E00846016819B1A142FAD121680160B9
S315080050F0686900B9E8616878F02108421CBF992000
S3150800510001F012F9687820B901B0BDE8304001F025
S31508005110EEB801B030BD0000C73600200000002000
S31508005120214F000880B5DFF8C8030078401CDFF877
S31508005130C0130870DFF8BC030078401CDFF8B4130E
S31508005140087000F0F1FB01F06BFC01F0D6F8DFF80F
S31508005150A0030078411EDFF898231170C0B200281A
S3150800516002D1982001F0E0F8DFF8880300780128DA
S3150800517006D1DFF880034068002801D001F0B3F8B3
S31508005180DFF870030078401EDFF86813087001F036
S31508005190AEF801BD38B5DFF85C034078F021084267
S315080051A002D0992001F0C0F801F0A7F8DFF844030F
S315080051B04078401CDFF83C134870DFF83C030021B8
S315080051C00160DFF8380300210160DFF83403142199
S315080051D00160DFF8300300210160DFF82C030021AD
S315080051E00160DFF82803006850F00100DFF81C139F
S315080051F00860DFF81C030068DFF818130840DFF8BA
S3150800520010130860DFF804030068DFF80C13084081
S31508005210DFF8F8120860BD48006830F48020BB4902
S315080052200860BB48006830F4FE00B9490860BB480E
S3150800523000210160B548006830F48030B349086041
S31508005240B248006830F48020B0490860AF4800686A
S3150800525050F48030AD490860AC480068B049096828
S3150800526011F03801AE4A1160AD49096851F00201E2
S31508005270AB4A1160AA49096831F01001A84A1160C1
S31508005280A749096851F01001A54A1160A0490968A3
S3150800529031F0F0019E4A11609D499D4A12680A60E4
S315080052A09B49096831F46051994A1160984900226E
S315080052B00A609749096831F4E061954A1160944992
S315080052C04FF480620A60924909680D0035F47C152E
S315080052D055F4E8158E490D60924901220A608B49FA
S315080052E009688B4A12681500AD08AD0055F002052D
S315080052F0874A15608648006810F00C000828F9D11E
S3150800530089488A4901608A488A4901608A4805218C
S3150800531001608A490F2000F03CF8FF210F2000F0B9
S31508005320ABF8FF210F2000F0A7F80400641EE4B2D2
S3150800533021000F2000F0A0F80F2000F02DF86D488E
S315080053404078F021084202D0992000F0EDFF694824
S315080053504078401E67494870C0B2002801D100F065
S31508005360C6FF31BDFEE7634A126A1100744A754BDF
S315080053701B68D21A1000744A1268520105D5704A81
S31508005380704B1B68D21A1000491C6D4A02FB0100BB
S31508005390704702000020704710B5040000F0ADFF0A
S315080053A04C2C2EDA102C09DB103C601167490122BF
S315080053B014F01F039A4041F8202022E0042C06D15D
S315080053C06348006850F480306149086019E0052C8C
S315080053D006D15F48006850F400305D49086010E067
S315080053E0062C06D15A48006850F4802058490860AF
S315080053F007E00F2C05D15048006850F002004E49CE
S31508005400086000F0B5FA10BD10B5040000F075FF8D
S315080054104C2C2EDA102C09DB103C60114D49012268
S3150800542014F01F039A4041F8202022E0042C06D1EC
S315080054304748006830F480304549086019E0052C73
S3150800544006D14348006830F400304149086010E04E
S31508005450062C06D13E48006830F480203C49086096
S3150800546007E00F2C05D13448006830F002003249B5
S31508005470086000F07DFA10BDF8B507000C000020A2
S3150800548006004C2F31DA102F0DDB103F00F035FFE8
S3150800549007F1604010F564400500287806002C7076
S315080054A000F066FA21E0042F01DA012000E000206E
S315080054B0072F03DB0B2F01DA012100E000210D2F56
S315080054C001D1012200E00022C0B2C9B20843D2B21B
S315080054D01043002809D100F010FF1F4805003F1FA0
S315080054E0785D06007C5500F043FA3000F2BD0000F6
S315080054F0C6360020000000200C10024010100240A2
S3150800550014100240181002401C10024000100240FD
S31508005510041002400000FFF8FFFFF6FE08100240E4
S31508005520002002406000424208ED00E0004000080A
S3150800553014E000E03F19010010E000E025510008E2
S315080055404019010018E000E004ED00E000E100E089
S3150800555024ED00E080E100E018ED00E070B50400FD
S315080055600D0016002A003100200001F083FA200001
S3150800557070BD10B450F8041B81B102681218001DE2
S3150800558050F8043BDC0744BFA9F10104E31852F8BC
S31508005590044B43F8044B091FF9D1EBE710BC7047DD
S315080055A070B500F0AAFEDFF82066B46800203071F6
S315080055B000F09DFE002C1CBF2568002D1ED0607CC7
S315080055C0697C81421AD100E00D46296811B14A7CEE
S315080055D08242F9D000F091FE20683169A14208BFE5
S315080055E0306161690860416165612868206000B1C1
S315080055F044612C6095F8390085F83800BDE870409C
S3150800560000F075BE30B581B0044601F06BFA042887
S3150800561009DBDFF8B405006ADFF8B015884224BF55
S31508005620FE2000F081FE0020A071206A00F57A6055
S315080056306062E16908001CBF2046884700F057FEF3
S31508005640E5681FE000F059FE206920B1687C2169F1
S31508005650497C88421DD3287C400710D5E868216A12
S31508005660401A012806DA284600F0BDF900F045FE82
S31508005670287C70B1E868616A411A48BF606200F028
S3150800568036FE2D68002DDDD101B0BDE8304000F0B2
S3150800569034BE01B030BD00002DE9F04104460020BB
S315080056A060700120207001F02FFA0078CD281CBF09
S315080056B07D2000F039FEA06800281CBFC16B0029B8
S315080056C004D009680A001CBF4068884794F8290076
S315080056D050B1A06894F8281080F83810DFF8E8046C
S315080056E0007908B1FFF75CFFDFF8E4040178D9B167
S315080056F0DFF8E0140968DFF8D024126A891A44BF73
S315080057000021017010D400F0F8FDFFF72CFE0546C5
S3150800571000F0EDFDA068DFF8C01420B1C26AAA182F
S315080057200B68D21AC2620D60A06820B1017C11B95B
S31508005730816A491C8162206938B303E028682061C0
S3150800574000F0D5FD00F0D9FD2569002D1CBF2E7C83
S31508005750002E1CD070070ED5E868216A411A012967
S3150800576005DA284600F03FF9287C20B90DE0616A81
S31508005770411A48BF606206F0FB001028DED1A8680F
S3150800578080684068007C0028D8D100F0B6FDA07972
S3150800579090B9DFF848542878C00732D500F0ADFD37
S315080057A0DFF83C64DFF820743068396A401A01284B
S315080057B027DAD7F820800BE02046FFF723FFA079E9
S315080057C00028F9D1E5E700BFC7F8208000F08FFD73
S315080057D02878C00713D500F090FD28788007F3D500
S315080057E0287800F0FD00287000F081FD386A8045B1
S315080057F0FCD0C7F820803068401C3060786200F022
S315080058007CFD00206071206968B32069007C00284F
S31508005810206902D0806880684068A06090F84400DB
S3150800582064281CBF802000F07FFDA068006A00780D
S31508005830CD281CBF782000F077FDA068C16B21B188
S3150800584049680A001CBF40688847A06890F8380075
S3150800585084F8280084F82900DFF86C73B868416A70
S31508005860491C416207E084F8290084F82800A060F2
S31508005870207000F03CFD2046BDE8F08100B581B0FF
S3150800588001F048F9DFF85C13097804281ED8DFE828
S3150800589000F0030A11172300F1B1A32001B05DF847
S315080058A004EB00F041BDB9B9A42001B05DF804EBE2
S315080058B000F03ABDA62001B05DF804EB00F034BD57
S315080058C0A72001B05DF804EB00F02EBDA82001B0BA
S315080058D05DF804EB00F028BD01B000BD10B501F07D
S315080058E019F90446DFF8FC02007810B1A02000F090
S315080058F01BFD032C12D8DFE804F01602070CA420BF
S31508005900BDE8104000F010BDA620BDE8104000F02C
S315080059100BBDA720BDE8104000F006BDA820BDE8D5
S31508005920104000F001BD10BD00B581B001F0F2F8DD
S31508005930032815D8DFE800F0021A080EA32001B0E4
S315080059405DF804EB00F0F0BCA62001B05DF804EBAE
S3150800595000F0EABCA72001B05DF804EB00F0E4BC57
S31508005960A82001B05DF804EB00F0DEBC01B000BD74
S3150800597010B5DFF854426078F02108421CBF992020
S3150800598000F0D2FC6078002804BFBDE8104000F0A3
S31508005990AEBC10BD10B5DFF83042207810B997209C
S315080059A000F0C2FC2078401E2070C0B2D0B96068F2
S315080059B0C0B100F0A2FC606830B10120207020461A
S315080059C000F085FC002020706078F02108421CBF9A
S315080059D0992000F0A9FC6078002804BFBDE81040B3
S315080059E000F085BC10BD30B581B08168DFF8D841BC
S315080059F041B1226AC2600A68496802B151600A6008
S31508005A0000218160017C11F0030101740ED1216926
S31508005A10E1B92061207838B901202070204600F0CD
S31508005A2056FC0020207001E0012060716078F021AA
S31508005A3008421CBF992000F077FC607820B901B0B5
S31508005A40BDE8304000F053BC01B030BD427C4B7C11
S31508005A509342DEDB8142DDD09A42E7D103461B68DA
S31508005A60002BE3D05D7CAA42E0D18B42F7D1D0E788
S31508005A7010B50446607C54490A78521C0A7001F233
S31508005A800C0100E011460A6812B1537C9842F9DB12
S31508005A90226061610C6042B15461517C81420CBF45
S31508005AA094F83900002084F83800207C20B900F0EA
S31508005AB024FC2046FFF797FFBDE810406AE730B59B
S31508005AC081B0414C2578681C2070204600F0FFFB09
S31508005AD025706078F02108421CBF992000F024FC4C
S31508005AE0607820B901B0BDE8304000F000BC01B0D4
S31508005AF030BD10B501F014F833480121017001F0EA
S31508005B0003F8044601F004F8001BA0F1200101295E
S31508005B1003DBCD22204600F0ADFF3348012101709A
S31508005B2010BD000030B581B0044600F0F3FF05460D
S31508005B302C48007810B1A02000F0F6FB032D09D8F8
S31508005B40DFE805F00B060402A72004E0A62002E021
S31508005B50A42000E0A82000F0E7FB2448007810B154
S31508005B60A12000F0E1FB184D287858B1687810B1EB
S31508005B709A2000F0D9FB00F0BAFB286A001BFCD477
S31508005B8001B030BD00F0B9FBA868C46004210174F7
S31508005B902C78601C2870284600F099FB2C706878D1
S31508005BA0F02108421CBF992000F0BEFB687820B996
S31508005BB001B0BDE8304000F09ABB01B030BD0249E3
S31508005BC0096A0818AEE7000000000020012E9302BB
S31508005BD0C5360020AC360020B4360020C436002076
S31508005BE0B0360020C6360020C8360020C73600204A
S31508005BF02DE9F04786B004000D00002600275FF067
S31508005C0000085FF000095FF0000ADFF8F404844238
S31508005C1014D0DFF8B803844210D0DFF8B403844206
S31508005C200CD0DFF8B003844208D0DFF8AC03844216
S31508005C3004D09521DFF8A40301F04EF9286800285E
S31508005C4004D02868DFF89813884204D39621DFF831
S31508005C508C0301F041F9A888002808D0A888B0F577
S31508005C60805F04D09721DFF8740301F035F9E888DE
S31508005C70002810D0E888B0F5805F0CD0E888B0F529
S31508005C80005F08D0E888B0F5405F04D09821DFF8B7
S31508005C904C0301F021F9288900280CD02889B0F591
S31508005CA0806F08D02889B0F5C06F04D09921DFF835
S31508005CB02C0301F011F968894FF6F371084202D1F5
S31508005CC06889002804D19A21DFF8100301F004F945
S31508005CD0A889002810D0A889B0F5807F0CD0A8899B
S31508005CE0B0F5007F08D0A889B0F5407F04D09B2185
S31508005CF0DFF8E80201F0F0F8DFF8D802844203D0B2
S31508005D00DFF8D402844207D1A889002804D09D214F
S31508005D10DFF8C80201F0E0F8A246208A06004CF631
S31508005D20FF700640E88806432682A08906004EF6DC
S31508005D30F3100640A8882989084369890843064359
S31508005D40A681A08A06004FF6FF400640A8890643AA
S31508005D50A68200A800F000FBDFF8A403824502D162
S31508005D600398070001E002980700192000FB07F0D6
S31508005D7029688900B0FBF1F080466420B8FBF0F092
S31508005D80000106003009642101FB108081465FEAA4
S31508005D90091032306421B0FBF1F010F00F00064311
S31508005DA0268106B0BDE8F08738B504000D00DFF897
S31508005DB05003844215D0DFF81402844211D0DFF86C
S31508005DC0100284420DD0DFF80C02844209D0DFF8B5
S31508005DD00802844205D04FF49D71DFF8000201F0F5
S31508005DE07BF8EDB2002D08D0EDB2012D05D040F2BA
S31508005DF03B11DFF8E80101F06FF8EDB2002D04D091
S31508005E00A08950F40050A08104E0A0894DF6FF71E6
S31508005E100840A08131BD2DE9F04704000D001600A9
S31508005E2000275FF000085FF000095FF0000ADFF85E
S31508005E30D002844215D0DFF89401844211D0DFF8ED
S31508005E40900184420DD0DFF88C01844209D0DFF836
S31508005E508801844205D04FF4B471DFF8800101F05F
S31508005E603BF8ADB2282D26D040F22770ADB2854258
S31508005E7021D040F22660ADB285421CD040F22550B2
S31508005E80ADB2854217D040F22440ADB2854212D059
S31508005E9040F64600ADB285420DD040F66A10ADB266
S31508005EA0854208D0ADB2602D05D040F26911DFF801
S31508005EB02C0101F011F8DFF81C01844203D0DFF849
S31508005EC0180184420AD140F66A10ADB2854205D15E
S31508005ED04FF4B571DFF8040100F0FEFFF6B2002EAC
S31508005EE008D0F6B2012E05D040F26B11DFF8EC00AF
S31508005EF000F0F2FFA2462800C0B24009C0B207006F
S31508005F00ADB215F01F008046012010FA08F0814650
S31508005F10012F02D11AF10C0A06E0022F02D11AF15A
S31508005F20100A01E01AF1140AF6B2002E06D0DAF8C1
S31508005F30000059EA0000CAF8000005E0DAF8000097
S31508005F4030EA0900CAF80000BDE8F08738B5040051
S31508005F500D00DFF8AC01844210D01C4884420DD0F5
S31508005F601B4884420AD01B48844207D01A488442F8
S31508005F7004D040F23E21194800F0AEFFADB2B5F5A7
S31508005F80007F04D340F23F21144800F0A5FFE8053E
S31508005F90C00DA08031BD10B50400DFF8640184424D
S31508005FA010D00A4884420DD0094884420AD00948CC
S31508005FB0844207D00848844204D040F25121074859
S31508005FC000F08AFFA088C005C00D10BD004400403F
S31508005FD000480040004C004000500040489D000822
S31508005FE021AA440070B504000D00002644488442E6
S31508005FF010D08C4884420DD08B4884420AD08B48F6
S31508006000844207D08A48844204D040F23A3189480B
S3150800601000F062FFADB2012D21D0ADB2802D1ED0A9
S31508006020ADB2402D1BD0ADB2202D18D0ADB2102D7B
S3150800603015D0ADB2B5F5807F11D0ADB2B5F5007FFC
S315080060400DD0ADB2082D0AD0ADB2042D07D0ADB231
S31508006050022D04D040F23B31764800F03DFF7348EC
S31508006060844202D07248844208D1ADB2B5F5007FA9
S3150800607004D14FF44F716F4800F02EFF2088284254
S3150800608002D00120060001E0002006003000C0B260
S3150800609070BD38B504000D001948844210D0614817
S315080060A084420DD0604884420AD06048844207D0B2
S315080060B05F48844204D040F266315E4800F00CFF27
S315080060C04FF68040054202D1ADB2002D04D140F210
S315080060D06731584800F000FF5448844202D05448BB
S315080060E0844208D1ADB2B5F5007F04D14FF45A7198
S315080060F0504800F0F1FEADB2E843208031BD000003
S31508006100003801402DE9F84304000D000026002759
S315080061105FF000085FF000094748844210D0414804
S3150800612084420DD0404884420AD04048844207D071
S315080061303F48844204D040F28A313E4800F0CCFE03
S31508006140ADB2282D2ED040F22770ADB2854229D0A7
S3150800615040F22660ADB2854224D040F22550ADB259
S3150800616085421FD040F22440ADB285421AD040F68F
S315080061704600ADB2854215D040F66A10ADB28542EA
S3150800618010D0ADB2B5F5587F0CD0ADB2B5F5187FC5
S3150800619008D0ADB2B5F5B07F04D040F28B312548B2
S315080061A000F09AFE2148844202D02148844209D14F
S315080061B040F66A10ADB2854204D14FF463711D48AA
S315080061C000F08AFE2800C0B24009C0B28046ADB2CF
S315080061D015F01F000700012010FA07F7B8F1010FA4
S315080061E002D1A089074007E0B8F1020F02D1208A40
S315080061F0074001E0A08A0740ADB2280A80B206002F
S31508006200012010FA06F620880640002F04D0002E3A
S3150800621002D00120814601E0002081464846C0B2EE
S31508006220BDE8F2830044004000480040004C0040AE
S3150800623000500040489D00080038014032488168F7
S31508006240002904BF08B008E0EFF30982A2F124028E
S31508006250036882E8F80F83685A6000B5FFF71CFAEE
S315080062605DF804EB816869B14A6892E8F80F036043
S3150800627002F1240282F309884EF0040E13F47F4FCC
S3150800628035D07047214822490968401A80F30888A2
S315080062904FF08071C1611F4981617FF0060E70471A
S315080062A02046DFF874E000BDFEE71C480068184980
S315080062B00968401A203820F0070080F308884FF054
S315080062C0000181F3118862B600F00DF8FEE74FF081
S315080062D0000181F311881249124A0A604FF08001C1
S315080062E081F3118870470E490E4A0A6070474FF0CD
S315080062F0000181F31188704700BF4FF0800181F3D8
S315080063001188704700BF000000000020B038002048
S31508006310A49E000865530008A9620008004000080A
S3150800632004ED00E00000001010B5040008480078ED
S31508006330401C07490870064800214170FFF7D7FF3F
S3150800634004480470034800780028FBD110BD00BF3C
S3150800635000000020C136002030B4002100220023AE
S315080063600024DFF810522D686D6815F00C05290019
S315080063700D00002D04D0042D06D0082D08D031E0DC
S31508006380DFF8F851056030E0DFF8F05105602CE0E1
S31508006390DFF8E0512D686D6815F470152A00920C27
S315080063A0921CDFF8D0512D686D6815F480352B00E6
S315080063B0002B05D1DFF8C85105FB02F5056010E092
S315080063C0DFF8B0512D686D68AD0305D5DFF8B0511B
S315080063D005FB02F5056004E0DFF8A05105FB02F5B0
S315080063E0056002E0DFF894510560DFF888512D68F2
S315080063F06D6815F0F00529000909DFF888514D5D2B
S315080064002C000568E5404560DFF868512D686D6821
S3150800641015F4E0652900090ADFF868514D5D2C007E
S315080064204568E5408560DFF84C512D686D6815F4C0
S3150800643060552900C90ADFF84C514D5D2C004568A6
S31508006440E540C560DFF82C512D686D6815F44045A8
S315080064502900890BDFF830514D5D2C00C568B5FB66
S31508006460F4F5056130BC704738B504000D00DFF857
S315080064701C01044201D1002C05D140F20231DFF89B
S31508006480F80000F029FDEDB2002D08D0EDB2012D7F
S3150800649005D040F20331DFF8E00000F01DFDEDB253
S315080064A0002D08D0DFF8CC00006840692043314948
S315080064B00968486106E02F4800684069A0432D49ED
S315080064C00968486131BD38B504000D00DFF8C00021
S315080064D0044201D1002C04D140F22331264800F0B1
S315080064E0FBFCEDB2002D07D0EDB2012D04D04FF420
S315080064F04971214800F0F0FCEDB2002D07D01D4887
S315080065000068806920431B490968886106E01948C4
S3150800651000688069A04317490968886131BD38B5A4
S3150800652004000D001B48044201D1002C04D140F29E
S315080065304531114800F0D0FCEDB2002D07D0EDB280
S31508006540012D04D040F246310B4800F0C5FCEDB2EF
S31508006550002D07D007480068C06920430549096827
S31508006560C86106E003480068C069A0430149096894
S31508006570C86131BD78360020D09C000800127A0028
S3150800658000093D00489E0008A89E0008A8FAFFFFDB
S315080065900200FFFFC03701C52DE9F84F04000D00C2
S315080065A0002600275FF000085FF000095FF0000A88
S315080065B05FF0000BDFF8540384421CD0DFF8500369
S315080065C0844218D0DFF84C03844214D0DFF848031D
S315080065D0844210D0DFF8440384420CD0DFF840032D
S315080065E0844208D0DFF83C03844204D08221DFF8D5
S315080065F0380300F071FCE878002819D0E8780428F8
S3150800660016D0E878282813D0E878482810D0E878F3
S3150800661014280DD0E87810280AD0E8781C2807D066
S31508006620E878182804D08321DFF8FC0200F054FC2F
S315080066302888002804D18421DFF8EC0200F04CFCFD
S31508006640E87810F00F000600E878C0060FD5A8789D
S3150800665001280AD0A878022807D0A878032804D0E9
S315080066608C21DFF8C40200F037FCA87806432878A6
S31508006670000630D02068824600208046B8F1080F10
S3150800668027D2012010FA08F08146288819EA000066
S3150800669007004F451AD15FEA880081460F2010FA95
S315080066A009F083463AEA0B0A16FA09F050EA0A0A8A
S315080066B0E878282803D1012010FA08F06061E87804
S315080066C0482803D1012010FA08F0206118F10108C2
S315080066D0D4E7C4F800A02888B0F5807F33D3606873
S315080066E0824600208046B8F1080F2AD2012018F108
S315080066F0080188408146288819EA000007004F45A6
S315080067001CD15FEA880081460F2010FA09F08346FB
S315080067103AEA0B0A16FA09F050EA0A0AE87828282B
S3150800672004D1012018F1080188406061E8784828FA
S3150800673004D1012018F108018840206118F10108E8
S31508006740D1E7C4F804A0BDE8F18F70B504000D00C8
S315080067500026DFF8B80184421CD0DFF8B401844271
S3150800676018D0DFF8B001844214D0DFF8AC018442B7
S3150800677010D0DFF8A80184420CD0DFF8A4018442C7
S3150800678008D0DFF8A001844204D0F821DFF8980188
S3150800679000F0A2FBADB2012D39D0ADB2022D36D034
S315080067A0ADB2042D33D0ADB2082D30D0ADB2102D18
S315080067B02DD0ADB2202D2AD0ADB2402D27D0ADB206
S315080067C0802D24D0ADB2B5F5807F20D0ADB2B5F519
S315080067D0007F1CD0ADB2B5F5806F18D0ADB2B5F557
S315080067E0006F14D0ADB2B5F5805F10D0ADB2B5F577
S315080067F0005F0CD0ADB2B5F5804F08D0ADB2B5F597
S31508006800004F04D0F921DFF8200100F065FBA068ED
S31508006810ADB2284202D00120060001E000200600A1
S315080068203000C0B270BD70B504000D0016003748C0
S31508006830844218D03648844215D03648844212D04D
S31508006840354884420FD0354884420CD034488442B7
S3150800685009D0DFF8D000844205D04FF4BB71DFF8C9
S31508006860C80000F039FBADB2012D3AD0ADB2022D09
S3150800687037D0ADB2042D34D0ADB2082D31D0ADB27B
S31508006880102D2ED0ADB2202D2BD0ADB2402D28D054
S31508006890ADB2802D25D0ADB2B5F5807F21D0ADB291
S315080068A0B5F5007F1DD0ADB2B5F5806F19D0ADB284
S315080068B0B5F5006F15D0ADB2B5F5805F11D0ADB2A4
S315080068C0B5F5005F0DD0ADB2B5F5804F09D0ADB2C4
S315080068D0B5F5004F05D040F27711DFF84C0000F00F
S315080068E0FBFAF6B2002E08D0F6B2012E05D04FF408
S315080068F0BC71DFF8340000F0EFFAF6B2002E02D0D1
S31508006900ADB2256101E0ADB2656170BD0008014018
S31508006910000C01400010014000140140001801401D
S31508006920001C014000200140949C000830B581B04D
S3150800693004460D46FEF7A2FF607C65281CBF812031
S31508006940FFF7F2FCFFF7D9FCE560084C6078F02108
S3150800695008421CBF9920FFF7E7FC607820B901B010
S31508006960BDE83040FFF7C3BC01B030BD00000020D1
S315080069705FEA000C830706D011F8013B00F8013BDB
S31508006980B3B18307F8D10A68B2F1013323EA0203E7
S3150800699013F0803F02BF40F8042B51F8042FF3E7A9
S315080069A011F8013B00F8013B13B111F8013BF9E777
S315080069B0604670470CB41CB5044604A801900094C0
S315080069C001AB0A4600A907487844183000F086FA51
S315080069D0009900220A7000285CBF0098001B16BCAC
S315080069E05DF80CFBF700000070B504000D001600FA
S315080069F032002900200001F0D9F8200070BD50F8B7
S31508006A00041B61B150F8042BD30744BFA9F1010355
S31508006A109A18002342F8043B091FFAD1EFE770479A
S31508006A2010B51148007810B9A220FFF77DFC0F4871
S31508006A30016A491C0162426A891A5CBF0121817197
S31508006A4090F8281031B1491E80F82810C9B209B942
S31508006A50012101710648046824B1606880472468EA
S31508006A60002CFAD110BD00BFC63600200000002059
S31508006A70BC36002062F30F2262F31F42401810F062
S31508006A80030308D0C91A1FD3DB0748BF00F8012D36
S31508006A9028BF20F8022D130030B4144615461039C5
S31508006AA028BF20E93C00FAD8490728BF20E90C008E
S31508006AB048BF40F8042D890028BF20F8022D48BF9A
S31508006AC000F8012D30BC7047C91818BF00F8012D11
S31508006AD0CB0728BF00F8012D70470268531C0360D6
S31508006AE01170704710B507480178491C0170C068D5
S31508006AF0002418B10068641C0028FBD1FEF74AFF81
S31508006B00204610BD0000002000487047D0360020FF
S31508006B1068467047EFF30580002841F08380704788
S31508006B20EFF3108072B604490A6842F47F020A60DD
S31508006B3080F31088704700BF20ED00E010B5040010
S31508006B40E4B2E00706D501220821DFF88403FFF73F
S31508006B506AFE05E000220821DFF87403FFF763FEEA
S31508006B60E4B2A00706D501220421DFF86403FFF783
S31508006B705AFE05E000220421DFF85403FFF753FE0E
S31508006B80E4B2600706D501220221DFF84403FFF7C5
S31508006B904AFE05E000220221DFF83403FFF743FE30
S31508006BA0E4B2200705D501220121C948FFF73BFEBB
S31508006BB004E000220121C648FFF735FE10BD10B5D6
S31508006BC00400E4B22009FFF7B9FF00F068F914F0F1
S31508006BD00F00FFF7B3FF00F062F900F001F9002893
S31508006BE0FBD110BD10B5040000224FF48051B848FF
S31508006BF0FFF719FE2000C0B2FFF7E1FF10BD10B580
S31508006C00040001224FF48051B148FFF70CFE200022
S31508006C10C0B2FFF7D4FF10BD80B501211020FFF7E1
S31508006C2052FCAC4803218170AA481021C170A948BA
S31508006C304FF480610180A749A548FFF7ADFCA54838
S31508006C4003218170A3481021C170A2484FF4006146
S31508006C500180A0499E48FFF79FFC9E48032181704A
S31508006C609C481021C1709B484FF480510180994976
S31508006C709748FFF791FC97480321817095481021A2
S31508006C80C17094480F21018092499148FFF784FC0E
S31508006C90012208218E48FFF7C6FD012204218C48EF
S31508006CA0FFF7C1FD002202218948FFF7BCFD00223B
S31508006CB001218748FFF7B7FD43F6982000F000F951
S31508006CC0012208218248FFF7AEFD012204218048EF
S31508006CD0FFF7A9FD002202217D48FFF7A4FD002247
S31508006CE001217B48FFF79FFD00F0D9F841F2040027
S31508006CF000F0E6F8012208217548FFF794FD012205
S31508006D0004217348FFF78FFD002202217048FFF720
S31508006D108AFD002201216E48FFF785FD00F0BFF8C5
S31508006D20642000F0CDF8012208216948FFF77BFDB1
S31508006D30012204216648FFF776FD002202216448F5
S31508006D40FFF771FD002201216148FFF76CFD00F095
S31508006D50A6F800F045F80028FBD1002208215C4877
S31508006D60FFF761FD012204215948FFF75CFD002267
S31508006D7002215748FFF757FD002201215448FFF723
S31508006D8052FD00F08CF800F02BF80028FBD12820E3
S31508006D90FFF728FF0C20FFF725FF0620FFF722FF45
S31508006DA00120FFF71FFF43F6982000F089F801BD80
S31508006DB010B5040054F080042000C0B2FFF712FF9B
S31508006DC010BD38B5040000200500102D07DA285D2F
S31508006DD0002804D0285DFFF712FF6D1CF5E731BDCA
S31508006DE080B53C48032181703A480421C17039486E
S31508006DF00121018037493648FFF7CEFB00224FF4C0
S31508006E0080513348FFF70FFD01224FF400613048E7
S31508006E10FFF709FD01224FF480612D48FFF703FDB6
S31508006E20642000F04DF801212948FFF78EFC01285F
S31508006E301AD100224FF480612548FFF7F4FC00229E
S31508006E404FF400612248FFF7EEFC224803218170C7
S31508006E5020481021C1701F48012101801D491C4886
S31508006E60FFF79AFB012019E000224FF480611848C9
S31508006E70FFF7D9FC00224FF400611548FFF7D3FC51
S31508006E8014480321817013481021C170114801214B
S31508006E90018010490E48FFF77FFB002002BD80B530
S31508006EA001224FF480610A48FFF7BDFC322000F04A
S31508006EB007F800224FF480610548FFF7B4FC01BDCE
S31508006EC001B40098411E00910028FAD101B070471C
S31508006ED0001001409C350020FEE700002DE9F04F28
S31508006EE0A1B0804617461D46029102AE0020706288
S31508006EF011AC6FF000490AE017F8011B0298C04769
S31508006F000290002800F06A82706A401C7062387825
S31508006F1008B9706A64E22528EED10020F060306175
S31508006F207061B061F061306201E040F0010017F86D
S31508006F30011F2029F9D023290DD02B2904D02D296A
S31508006F4006D030290AD00CE040F0020080B2EEE705
S31508006F5040F00400FAE740F00800F7E740F01000B8
S31508006F60F4E72A290DD129680A1D2A600968F16201
S31508006F70002904D54942F16240F0040080B27F1C22
S31508006F8012E00021F16209E0F16A494505D001EBFA
S31508006F90810302EB43013039F1627F1C3A78A2F192
S31508006FA03001C9B20A29EFD339782E2903D04FF018
S31508006FB0FF31B1621DE017F8011F2A2906D1296899
S31508006FC00A1D2A600968B1627F1C12E00021B162BD
S31508006FD009E0B16A494505D001EB810302EB43019B
S31508006FE03039B1627F1C3A78A2F13001C9B20A2958
S31508006FF0EFD3308639780FF6983000F02BFE08B1BB
S3150800700017F8010B8DF83A009DF83A00682804D164
S31508007010387868280AD1622005E06C2804BF3878D9
S315080070206C2803D171208DF83A007F1C11A8B06036
S315080070303978B1F1250023D01C3871D0001F0228F9
S315080070406ED9133800F09680093869D0801E00F092
S315080070502781401E00F0D180401E022860D9001FFB
S3150800706000F0CB80401F30D0401E00F08380401EC9
S3150800707020D0C01E09D0801E7CD0C01E7AD017E151
S31508007080F068411CF16025211BE12868011D296073
S3150800709000687060B26A002A02D500F0E7FD07E0D2
S315080070A0002100F0FFFD00281ABF7168401AB06A77
S315080070B0306107E12868011D296000680021CDE9D3
S315080070C0000111A870607821E6E09DF83A00622870
S315080070D018D0682806D06A280BD06C2819D07128D1
S315080070E007D016E02868011D2960716A00680180CA
S315080070F0E8E02A68101D2860706AC1171268C2E99C
S315080071000001DFE02868011D2960716A00680170C6
S31508007110D8E02868011D2960716A00680160D1E01D
S315080071202868C01D20F00700286000F108022A60C0
S31508007130D0E90023CDE90023002B04D5F068421CD2
S31508007140F2602D220DE0308E820704D5F068421CCD
S31508007150F2602B2205E0C00704D5F068421CF260F5
S3150800716020220255F06811AA8018706000A800F065
S31508007170C5F9A7E09DF83A006C2808BF2A6811D01F
S31508007180712808BF2A6802D06A282A680AD1D21D3F
S3150800719022F007022A6094460CF108022A60DCE90C
S315080071A0002303E0131D2B6012680023CDE900239A
S315080071B0682808BF92B207D0622808BFD2B203D0A7
S315080071C0742818BF7A2802D10023CDE9002396F83F
S315080071D0300000075CD5DDE90023002B08BF002A34
S315080071E056D041F02000782852D1F0683022025556
S315080071F0401C421CF26001554AE09DF83A0062289C
S315080072000CD0682810D06A281AD06C2823D0712888
S3150800721016D074281FD07A280CD01CE02868021DC6
S315080072202A6090F900201AE02868021D2A60B0F941
S31508007230002014E02868021D2A60026800230FE077
S315080072402868C01D20F00700286000F108022A609F
S31508007250D0E9002304E02868021D2A600268D317D3
S31508007260CDE90023002B04DAF068421CF2602D22D7
S315080072700DE0308E820704D5F068421CF2602B229E
S3150800728005E0C00704D5F068421CF26020220255CA
S31508007290F06811AA8018706000A800F0A4F811E040
S315080072A0F068411CF16029680A1D2A60096808E02F
S315080072B0F068421CF2602522025519B1F068421C9A
S315080072C0F26001557F1CF06AF168401AB169401AEC
S315080072D03169401AF169401A7169401A316AA0EB9E
S315080072E0010A96F83000400711D420208DF8400096
S315080072F0BAF1010F0BDBD346012310AA00A94046B9
S3150800730000F02FFC002869D1BBF1010BF4D1F3681A
S3150800731011AA00A9404600F024FC00285ED13020BE
S315080073208DF84000D6F818B0BBF1010F0ADB01232F
S3150800733010AA00A9404600F014FC00284ED1BBF163
S31508007340010BF4D13369726800A9404600F009FCC4
S31508007350002843D130208DF84000D6F81CB0BBF188
S31508007360010F09DB012310AA00A9404600F0F9FB2A
S31508007370A0BBBBF1010BF5D173693069716842187E
S3150800738000A9404600F0EDFB40BB30208DF84000D8
S31508007390D6F820B0BBF1010F09DB012310AA00A91A
S315080073A0404600F0DEFBC8B9BBF1010BF5D196F8F3
S315080073B0300040077FF5ABAD20208DF84000BAF1CC
S315080073C0010FFFF6A4AD012310AA00A9404600F05C
S315080073D0C8FB18B9BAF1010AF5D198E54FF0FF30A4
S315080073E021B0BDE8F08F2DE9FA4782B00646356927
S315080073F06F2908BF082705D041F02000782814BF58
S315080074000A2710273C24D6E90001804689469DF8BC
S315080074100820642A18BF692A05D1002903DAD8F199
S31508007420000869EB4909B9F1000F08BFB8F1000F68
S315080074300CD1306B50B9082F3BD196F838000007AD
S3150800744037D53B24302085F83B0032E0A4F1010A09
S315080074505446FB17404649463A4600F04FFCCDE9EC
S315080074600089B846A8FB0023DDE90089A8EB0202DB
S315080074703032D2B23A2A03D39DF80830513B9A18D3
S315080074800AF8052080465FEA010908BFB8F1000F2F
S3150800749003D0F06861198842D8D3082F09D196F825
S315080074A03800000705D5605D302802D0641E3020FC
S315080074B06055C4F13C00B0616119F160316B8842D6
S315080074C007DA081A3062308F4FF6EF7108403087B6
S315080074D010E000290ED596F8381001F0140110298D
S315080074E008D1716B7269891A326A891A081A0128D1
S315080074F0A8BF306204B0BDE8F08700002DE9F24F5E
S315080075008EB0044604AED4E90001CDE902019DF827
S31508007510380040F020008DF8000061280BD0206B61
S31508007520002848BF062005D404BF9DF80000672838
S3150800753001D1012020636168C1F30A5040F2FF734C
S3150800754098421ED1080304BF206800280AD10320E8
S31508007550A0619DF838006138C0B21A2838D30FF2F6
S31508007560446109E00320A0619DF838006138C0B283
S315080075701A282AD30FF224610322E06800F016FBCA
S31508007580B9E1012817DA204600F02FFC012812DBA2
S31508007590002700209DF80010612920D1E1683022DB
S315080075A001F8012B4A1CE2609DF83820612A0CBFBD
S315080075B0782258220FE040F2FE31626861F31E52CB
S315080075C06260471A4FF0FF30E4E70FF2CC51D3E779
S315080075D00FF2CC51D0E70A706169891C616110B954
S315080075E0002500277EE19DF80000612840F097807D
S315080075F0206B00284CBF2125451C2DB26E1CD4E9F2
S315080076000089DDE902010022002300F00FFC3ABFE1
S3150800761089F00040CDE90280CDE902893F1F8DF847
S3150800762010200DF11108012E35DBDDE902010022DB
S31508007630002300F013FC2ED21C2102A800F026FC21
S31508007640DDE9020100F0A8FC8146F61F012E09DBE0
S3150800765000F0CEFC02460B46DDE9020100F0E0FC34
S31508007660CDE9020108F20700072105E009F00F023B
S3150800767000F8012D4FEA2919B9F1010F01DB491E5E
S31508007680F4D5491E5CBF002200F8012DF9D500F299
S315080076900708012EC9DA0DF11100A8EB00010DF15A
S315080076A01106A942B8BF0D462DB2002D30D4284682
S315080076B0884206DA04A941184978082928BF0F2103
S315080076C000D2002104AA821800E06D1E401E12F89E
S315080076D001398B42F9D00F2904D104A941184A78F7
S315080076E0521C4A70002802D504AE6D1C3F1D2DB2EF
S315080076F0681E0DD481190A783032D2B23A2A03D3D9
S315080077009DF838303A3B9A1801F80129401EF2D5FF
S31508007710206B002840F1E680681E2063E2E0DDE980
S3150800772002010022002300F081FB3CBF81F00041EA
S31508007730CDE902013FB247F297507843474990FB9B
S31508007740F1F73FB2C7F107069246DFF814B1012EEA
S3150800775019DBDDE90289F00707D552465B46404644
S31508007760494600F01DFD8046894676105046594622
S3150800777052465B4600F014FD82468B46002EEAD13F
S31508007780CDE9028921E076429046DFF8D89012E0EA
S31508007790F00707D552465B464046494600F000FDCD
S315080077A08046894676105046594652465B4600F052
S315080077B0F7FC82468B46002EEAD1DDE902014246F5
S315080077C04B4600F0BFFDCDE902019DF80000662892
S315080077D00CBF07F10A000620216B4518142DA8BF17
S315080077E0132530208DF810000DF11106DFF878907A
S315080077F0012D3BDBDDE9020100F0E4FB06F108019F
S3150800780004220A26B0FBF6F303EB830EA0EB4E0028
S31508007810303001F8010DB3FBF6F000EB8006A3EB60
S315080078204603303301F8013D521EEAD101F108063C
S31508007830083D012DDCDBDDE9020100F0C3FB00F0A9
S31508007840E1FB02460B46DDE9020100F0E9FB0022F6
S315080078504B4600F0A5FCCDE90201CBE7A086010066
S31508007860000024400000F03F84D797410DF1110035
S31508007870301A0DF1110602E0401E7F1E761C317883
S315080078803029F9D09DF80010662902D13FB2791C3B
S3150800789003E065290CBF01210021226B8D182DB24A
S315080078A0A842B8BF05462DB2002D1BD429468142F1
S315080078B004DA885D352828BF392000D230208A1995
S315080078C0521E00E06D1E491E12F801398342F9D096
S315080078D0392802D1885D401C8855002902D5761EB4
S315080078E06D1C7F1C3FB200972BB232469DF83810AC
S315080078F0204600F003F80FB0BDE8F08F2DE9F043FD
S3150800790085B00546894617461E46D5F83080012EAD
S3150800791002DA01260FF2902749F02000BDF930401F
S31508007920662808BF641C18D0672840F082806FF06C
S3150800793003008442C0F28380444580F28080641C40
S3150800794095F83800000702D44645B8BFB04624B2B9
S31508007950B8EB040848BF4FF00008E868A96924B2E4
S31508007960012C25DA4A1C30230B54B8F1010F03DA2F
S3150800797095F83810090702D52E211154521CAA6110
S3150800798018EB040FB8BFC8F1000424B2614269625B
S31508007990A044B045B8BF464636B2EE6132463946CF
S315080079A0AB69181800F002F9A8EB0600A862C1E056
S315080079B00818A64218DA3246394600F0F7F8A969D7
S315080079C07118A961A01B6862B8F1010F03DA95F86E
S315080079D03800000705D5E8682E220A54E869401CD5
S315080079E0E861C5F82880A5E02246394600F0DEF8A9
S315080079F0A8692018361BB8F1010F03DA95F8381074
S31508007A00090703D5E9682E224254401CA86136B2FC
S31508007A10B045B8BF464636B23246E119EB68C018DB
S31508007A2000F0C4F8A8693018A861A8EB06006862D7
S31508007A3080E0B9F1610F16D14FF0700918E046459C
S31508007A4004DA95F83810090758BFB046B8F10108A6
S31508007A5048BF4FF00008B9F1670F14BF4FF045094A
S31508007A604FF0650904E0B9F1410F08BF4FF050091E
S31508007A70A9694A1CE86817F8013B0B54B8F1010FCD
S31508007A8005DA95F83810090758BFAA6117D52E21C7
S31508007A901154531CAB61B8F1010F10DB761E36B2D8
S31508007AA0B045B8BF464636B232463946181800F0D1
S31508007AB07DF8A8693018A861A8EB06006862A8696D
S31508007AC0E968471807F8019B002C03D42B2007F810
S31508007AD0010B03E02D2007F8010B644200260DF187
S31508007AE0080809E00A22214600A800F04EFD019880
S31508007AF008F8010B009C761C24B2012CF2DA022E3F
S31508007B0006DA49F02000652804BF302007F8010B83
S31508007B104EB9302007F8010B07E0761E02A8305C44
S31508007B20303007F8010B012EF7DAA869E968401822
S31508007B30381AE86195F8380000F0140010280DD1BD
S31508007B406869A9690818696A0818E9690818A96AAC
S31508007B500818696B8842BCBF081A286205B0BDE8D8
S31508007B60F083F8B504460D4616461F46002077B141
S31508007B7016F8011BA868A047A86030B1E86A401C3F
S31508007B80E86200207F1EF3D1F2BD4FF0FF30F2BD50
S31508007B90686A6C747A4C00006E616E004E414E0045
S31508007BA0696E6600494E46003000000062B38B07D6
S31508007BB008D0521E11F8013B00F8013B00F0248062
S31508007BC08B07F6D1830740F0208000BF103A07D311
S31508007BD030B4B1E83810103AA0E83810F9D230BC01
S31508007BE0530724BFB1E80810A0E8081044BF51F8AD
S31508007BF0043B40F8043BD20724BF31F8022B20F897
S31508007C00022B44BF0B7803707047083A07D3B1E8D4
S31508007C100810083A40F8043B40F804CBF7D253075B
S31508007C20E4E700001028A4BF0849085C07DA0E2814
S31508007C3001D1042070470649401810F8040C802822
S31508007C4001D2022070470120704700BFF0E300E030
S31508007C5018ED00E00278C9B28A421AB11CBF10F8C2
S31508007C60012FF9E718BF00207047000000F1010353
S31508007C70810704D010F8011B89B18107FAD102687F
S31508007C80B2F10131914311F0803F04BF50F8042F3F
S31508007C90F6E710F8011B11B110F8011BFBE7C01A33
S31508007CA070470000C9B2830706D0521E22D310F8C7
S31508007CB0013B9942F7D11FE0083A13D302F10402B7
S31508007CC041EA012141EA014150F8043B121F21BF54
S31508007CD04B40A3F1013C2CEA030C1CF0803FF3D087
S31508007CE0C9B2001F083210F8013B521E28BF91EA9C
S31508007CF0030FF8D818BF0120401E70471B4213D146
S31508007D00094236D12AB18446B0FBF2F002FB10C212
S31508007D10704700F041BCFCD30022002370470B00DB
S31508007D200200002100207047904271EB030CF6D345
S31508007D3070B5B1FA81F4B3FA83F52C1BA340C4F1EC
S31508007D40200532FA05F63343A2405FF00046E640C6
S31508007D5002E05B085FEA3202841A71EB030524BF6E
S31508007D60204629467641F4D302000B003000002154
S31508007D7070BD012ACFD970B5140C20D0B1FA81F4A0
S31508007D80B2FA82F5C4F120046419B4F12006D6D3F8
S31508007D90B2405FF00044F440002502E052085FEA72
S31508007DA03303C61A71EB020E24BF3046714664418E
S31508007DB06D41F3D302000B002000290070BD0C466C
S31508007DC0B1FBF2F102FB11452D0445EA1045B5FB5E
S31508007DD0F2F402FB145580B240EA0545B5FBF2F011
S31508007DE002FB105240EA044070BD30B4436803F009
S31508007DF0004201211B031B0B436004BF0368002BD1
S31508007E0008D10DE00368DD0F45EA440444605B00D1
S31508007E100360491E4468E302F4D523031B0B436041
S31508007E2043681A434260084630BC70474FF4001C4A
S31508007E301CEB410F94BF1CEB430F09E041EA030C0E
S31508007E4050EA4C0C52EA0C0C03D2994208BF9042F5
S31508007E50704714BF8B428242704700004FF4001CE3
S31508007E601CEB410F94BF1CEB430F09E041EA030CDE
S31508007E7050EA4C0C52EA0C0C03D28B4208BF8242E1
S31508007E80704714BF994290427047000070B5044687
S31508007E900D466068C0F30A5040F2FF72904207D15F
S31508007EA06068000304BF2068002817D0022070BD50
S31508007EB020B92046FFF799FF012867DA012D0FDB65
S31508007EC040F2FF71091A8D420AD36068002847BF3D
S31508007ED000202F4900202F49C4E90001012070BD68
S31508007EE04142A942616806DA6FF31E51401941EA18
S31508007EF00050606041E001F000410122636862F3CE
S31508007F001F536360401E451905F13500352803D314
S31508007F1061600020206070BD002215F11F0F04DA91
S31508007F2020352268236000206060684213D0521E04
S31508007F309241D243C0F1200325689D4055EAD2728A
S31508007F402568C540666806FA03F32B432360636811
S31508007F5023FA00F06060606808436060B2F1004F81
S31508007F6003D80DD12078C0070AD52068401C2060A8
S31508007F70206828B96068401C60604FF0FF3070BD0B
S31508007F806068884204BF20680028F6D1002070BDCA
S31508007F900000F0FF0000F07FF446400D40EAC120E3
S31508007FA0490006D200F014F8004248BF6FF00040BE
S31508007FB0604700F00DF84FF0004188428CBF084634
S31508007FC040426047400D40EAC120490080F00D80DC
S31508007FD040F00040490DA1F58061491C05D4D1F156
S31508007FE01F0154BFC840C01770474FF000007047C4
S31508007FF0010040F10980F446404200F005F851F0CE
S3150800800000416047010000BF09D0B0FA80F18840FE
S31508008010C91CC1F58461090501EBD02140057047EB
S3150800802070B44FF0004591EA030F44BF6B4000F06F
S31508008030B5BA00BF841A71EB030604D26E40001B62
S31508008040B141121973414FF4001C1CEB410F34BFA8
S315080080507CEB430684E00C0DA4EB1356362E7DDC30
S31508008060012E43DC45EAC32343EA525312BFD20228
S3150800807092025B08240545EAC12141EA5051D2EB38
S31508008080C020994125D407D1B0FA80F610FA06F136
S3150800809064D00020203608E0B1FA81F6B140C6F176
S315080080A0200220FA02F21143B0404FEAF474B4EB0E
S315080080B0465434F001064FEA74040AD8D6F5001679
S315080080C0760D04F00044F04061FA06F25040F140A3
S315080080D04840C00A40EA415021F0004128BF5FEA03
S315080080E0500550F1000044EBD12137E045EAC3239F
S315080080F0DB0A45EAC121C90AB6F120050EDD42EAC6
S315080081000242120CC5F1200603FA06F6EB4042EAD3
S3150800811006056D42984161F100010DE062FA06F527
S31508008120F240554063FA06FC82EA0C02F3405A40D4
S315080081306D42904161EB030111F4801F05D1641E65
S31508008140620502D06D004041494121F4801143087F
S3150800815075F1004350F1000041EB045170BC7047C3
S315080081601CEB410F15D223F0004352EA43060BD00D
S315080081704FEA4C0CBCEB410F04D80C0D661E342E8E
S31508008180B7DDEBE7801A994150EA410608BF00219E
S31508008190E4E708BF1CEB430F28BF6FF00001DDE7DB
S315080081A0B0B581EA030C0CF0004C40F2FF7515EAF5
S315080081B011541DBF15EA1357AC42AF4239E0E41912
S315080081C023EA455343F48013C90241F0004141EACA
S315080081D0505EC7021100A7FB020200284FF00000FC
S315080081E0EEFB01204FF00001E3FB072118BF42F028
S315080081F00102401800214941E3FB0E01A4F5806401
S315080082000F0302D252004041494154F101046CDD8A
S31508008210470872F1004250F1000051EB0451A1F5F4
S3150800822080115CBF41EA0C01B0BD4CEA0551002043
S31508008230B0BD05EA1357AC4214BFAF4241E050EA5D
S31508008240410E1CBF52EA430E02E061460020B0BD53
S3150800825024423C441BD15FEA070EF6D0090302BF4D
S3150800826001460020AEF1140EB1FA81F7AEEB070411
S3150800827001FA07FE0C37C7F1200100FA07F7C840D4
S315080082804EEA000E23EA455343F48013A2E733F07F
S315080082900043B3FA83F704BFB2FA82FE77440B3F72
S315080082A0E41BB7F1200E2FBF02FA0EF3BB40C7F14D
S315080082B0200E22FA0EFE38BF43EA0E03BA40641CAB
S315080082C082E750EA410E14BF52EA430E6FF00001EE
S315080082D04FF4001717EB430F8ABF194617EB410FE8
S315080082E0B5E74CEA05510020B0BDD4F10104B4F15C
S315080082F020070FDAC4F12007520828BF42F001020E
S3150800830010FA07F501FA07F7E1BF2A43E0403843B8
S31508008310E1400FE0352C98DCC7F1200452EA400210
S3150800832020FA07F218BF42F0010231FA07F0A1401D
S315080083300A43002172F1004250F1000051EB0C0192
S31508008340B0BD0000F0B540F2FF7581EA030C0CF0F1
S31508008350004C15EA11541DBF15EA1357AC42AF423B
S31508008360E5E0BC41C1F31301C3F31303801A994135
S3150800837043F4801304D2641E4000494180185941D1
S31508008380C90241EA5051B1FBF3F603FB1611A2FBF1
S315080083900675D7EBC020A94102D2761E801859412E
S315080083A0C90241EA5051B1FBF3FE03FB1E11A2FBC1
S315080083B00E75D7EBC020A94103D2AEF1010E801885
S315080083C05941890241EA9051760546EA8E2EB1FB5B
S315080083D0F3F603FB1611A2FB0675D7EB8020A9411D
S315080083E002D2761E80185941C90241EA50514EEA16
S315080083F0060EB1FBF3F603FB1611A2FB0675D7EBC7
S31508008400C020A94102D2761E80185941C90241EA04
S315080084105051B1FBF3F703FB1711A2FB0735D3EB5A
S31508008420C020A94167F100070CBF004247F00107C9
S3150800843066F3D5274FEA1E31B80814F5806412DDB5
S31508008440BD0775F1004250EB0E5051EB045111F582
S31508008450801F5CBF41EA0C01F0BD4CF07F6141F022
S31508008460E0410020F0BDBD076D0840EA0E5041F41A
S315080084708011D4F10104B4F120060ADAC4F1200609
S315080084800200E04001FA06F3E1401843B240154302
S315080084900EE0342C13DCC6F1200445EA40056D08CD
S315080084A020FA06F2154321FA06F0A1400D430021F1
S315080084B075F1004250F1000051EB0C01F0BD0020AF
S315080084C05FEA0C01F0BDCFB992185B41B3FA83F7A6
S315080084D004BFB2FA82F6BF190B3FB7F120062FBFC9
S315080084E002FA06F3BB40C7F1200622FA06F638BFA1
S315080084F03343BA401CB1E419641E33E77F4231F0B6
S315080085000041B1FA81F404BFB0FA80F6A4190B3C15
S31508008510B4F120062FBF00FA06F1A140C4F12006E7
S3150800852020FA06F638BF3143A0403C1B1AE7AC4296
S315080085301ABF05EA1357AF4212E050EA41061CBFBC
S3150800854052EA4306BFE750EA4107304661461CBF78
S3150800855041EA0551F0BD52EA430C08BFC143F0BDDC
S3150800856000204FF4001616EB410F98BF16EB430F89
S3150800857008BF16EB410F24BFC14305E016EB430FB6
S315080085800CBF61464CEA0551F0BD91FBF2F303FBC3
S315080085901211C0E90031704770470000841A71EB68
S315080085A0030603D2001BB141121973414FF4001C94
S315080085B01CEB410F34BF7CEB430443E00C0DA4EBEA
S315080085C01356352E50DC45EAC323DB0A45EAC1219A
S315080085D0C912B6F120050DDD63FA05F6EB4086EA09
S315080085E00305124218BF45F00105C01851F10001F4
S315080085F00CD213E062FA06F5F2405540F3415A40B0
S31508008600B340F3405A408018594107D349085FEAF6
S3150800861030005FEA350528BF45F0010501F58011F0
S31508008620420875F1004250F1000041EB045170BC5C
S315080086304FF4001C1CEB410F38BF70470020090D92
S31508008640090570471CEB410F10D252EA43060BD0BE
S31508008650BCEB410F05D80C0DAB43661E342EB5DDB9
S3150800866002E0AB438018594170BC704770BC704734
S3150800867080B572B65FF00060006880F30888DFF89E
S31508008680900400680400A04701BD70B5DFF88404B3
S315080086900088002806D0022818D016D304286CD0E3
S315080086A06AD36EE0DFF87004408C012804D00BD33F
S315080086B0032809D007D307E00F20FCF7A5FE72B6FA
S315080086C0FFF7D6FFFEE7FFE75BE05AE0DFF848046E
S315080086D0408C022802D0032835D04CE0DFF83C0451
S315080086E00121C180DFF83004408C50F40040DFF8E7
S315080086F02C144880DFF82004808C00F1006010F507
S31508008700FE30040000200500DFF80C04C08C0421AC
S3150800871090FBF1F085420BD2DFF8FC0310EB8500E5
S31508008720866A310014EB850000F020FA6D1CEBE731
S31508008730DFF8E803DFF8E013898C8180DFF8DC03D3
S315080087400021C18017E0DFF8CC0304210180DFF89F
S31508008750C803408C50F40040DFF8C0134880DFF8A7
S31508008760BC030021C180DFF8AC0300210180DFF8DB
S31508008770B0030021017004E003E0DFF8980300214C
S315080087800180002070BD98B000253420FCF704FE57
S315080087901E20FCF701FE1F20FCF7FEFD8C211E2083
S315080087A0FCF76AFE8C211F20FCF766FE0020FEF708
S315080087B0FFFADFF87003FEF704FB032000F072FAF5
S315080087C00400E00730D500A9DFF85C0300F0A0FA42
S315080087D020220021DFF84403FCF7C0FE20220021F6
S315080087E0DFF84803FCF7BAFEBDF80200012804D0FA
S315080087F00CD303280AD008D308E0BDF8020050F4C9
S315080088000040DFF81813488000E0FFE76D1C0020E1
S31508008810FEF7CEFAADB22A00DFF8141308A8FEF761
S31508008820C9F808A8FEF7CDFAA007C6D5FFF72DFFA9
S31508008830C3E780B5BF480078401CBE490870BE48EB
S315080088400078401CBC490870FDF76EF8B248408CA9
S31508008850BA494988884205D1AF48808CB749898882
S31508008860884217D02022B649B448FEF7BDF8A94871
S315080088700088002808D1A848408C012804D1B149AD
S31508008880022000F075FA05E0A2480088022801D106
S31508008890FFF7FBFEAC480068406850F48050AA49D0
S315080088A009684860FDF729FDA2480078411EA14ADB
S315080088B01170C0B2002802D19820FDF735FD9E48F8
S315080088C00078012805D19C484068002801D0FDF7AA
S315080088D00AFD99480078401E97490870FDF707FD7C
S315080088E001BD80B593480078401C924908709248AB
S315080088F00078401C90490870FDF716F89248006801
S31508008900406850F480309049096848608348007E82
S31508008910401C82490876FDF7F0FC86480078411E1F
S31508008920844A1170C0B2002802D19820FDF7FCFCD9
S3150800893081480078012805D17F484068002801D081
S31508008940FDF7D1FC7C480078401E7B490870FDF78E
S31508008950CEFC01BD704780B5202200216E48FCF789
S31508008960FDFD202200217648FCF7F8FD2022002193
S315080089706A48FCF7F3FD202200216C48FCF7EEFD5F
S31508008980202200216D48FCF7E9FD022200216148FA
S31508008990FCF7E4FD6D4B04222021634800F01CFA25
S315080089A001210120FDF760FD01210820FDF78BFD5F
S315080089B001214FF48040FDF7B2FD65484FF4704140
S315080089C0018063480321817061481821C17060499C
S315080089D060480068FDF7E0FD5F4800680C305F49B5
S315080089E008605E484C4941605C48002181605B48EC
S315080089F04021C160594800210161584880214161E0
S31508008A0056480021816155480021C16153482021FB
S31508008A10016252484FF44051416250480021816238
S31508008A204E494F48006800F021FA4B4800680C3060
S31508008A304A490860494839494160484810218160D7
S31508008A4046482021C16045480021016143488021EC
S31508008A50416142480021816140480021C1613F4887
S31508008A60202101623D484FF4405141623B480021B4
S31508008A7081623A493B48006800F0F8F90121384814
S31508008A80006800F0C0FA01213648006800F0BBFA19
S31508008A9035480021018034480021418032480021B0
S31508008AA0818031480021C1802F48002101812E484C
S31508008AB0002141812C48082181812B480021C18150
S31508008AC029480121018228492348006800F008FB4B
S31508008AD0012271212048006800F0E1FB1E48006869
S31508008AE0032181801E480068006850F003001C4975
S31508008AF0096808601B480068006850F003001949B7
S31508008B000968086001211448006800F099FB01BD56
S31508008B101C000008A43500207C340020BC3400204A
S31508008B20C0360020389E000848350020DC34002076
S31508008B309C9E0008C636002000000020283500202C
S31508008B409C340020A4330020403600202433002023
S31508008B509C35002008360020CC350020FC34002047
S31508008B6054360020583600207835002070B50400A9
S31508008B700D000426B4F1006F03D3DFF8D400844255
S31508008B8005D340F23B11DFF8C000FEF7A5F90F2028
S31508008B9000F060F80600F6B2042E34D1DFF8AC0017
S31508008BA00068006950F00100DFF8A0100968086144
S31508008BB025800F2000F04EF80600F6B2042E14D1D8
S31508008BC0280C60800F2000F045F80600F6B2012E4A
S31508008BD019D0DFF878000068006941F6FE71084090
S31508008BE0DFF86810096808610DE0F6B2012E0AD0B0
S31508008BF0DFF858000068006941F6FE710840DFF8A2
S31508008C004C10096808613000C0B270BD04200F49D5
S31508008C100968C968C90702D50121080011E00B498E
S31508008C200968C968490702D50221080009E0074909
S31508008C300968C968C90602D50321080001E00421AC
S31508008C400800C0B270470000589C00088036002013
S31508008C50FFFF070838B504000425FFF7D7FF05000E
S31508008C60EDB2012D08D1002C06D000F00CF8FFF764
S31508008C70CDFF0500641EF3E7002C01D10520050091
S31508008C802800C0B232BD81B000200090FF200090BD
S31508008C900098002803D00098401E0090F8E701B01D
S31508008CA07047000030B581B004461748007810B107
S31508008CB0A120FDF739FBFCF711FE144D2878401C5E
S31508008CC02870FDF71AFBA868817C214206D1C47476
S31508008CD0A868082101742846FDF7F9FAA868847C73
S31508008CE0002181742878401E28706878F02108428F
S31508008CF01CBF9920FDF718FB687808B9FDF7F7FA45
S31508008D00204601B030BD00BFC73600200000002055
S31508008D1030B581B004460D4613480178491C0170E8
S31508008D201248007810B1A120FDF7FEFAFCF7D6FD2F
S31508008D30607E66281CBF8220FDF7F6FAFDF7DDFA8D
S31508008D40E06840B94021204600F0FCFAFDF7D5FA64
S31508008D50E0680028F6D02946204600F011FB01B04D
S31508008D60BDE83040FCF716BE00000020C7360020DC
S31508008D7030B581B005460C4694F8440064281CBFFB
S31508008D808020FDF7D1FAFCF779FDFDF7B6FAA07C4D
S31508008D902843A074217C01F0F801082908D1E17C58
S31508008DA0014205D0204601B0BDE83040FCF71BBEA5
S31508008DB0084C6078F02108421CBF9920FDF7B4FAE8
S31508008DC0607820B901B0BDE83040FDF790BA01B02F
S31508008DD030BD00BF000000202DE9F04381B00446F5
S31508008DE00D4690469946FDF788FA1E4E37683FB1FC
S31508008DF0A74204BFAC20FDF797FA7F68002FF7D18A
S31508008E00194F7878F02108421CBF9920FDF78CFA93
S31508008E10787808B9FDF76BFAFCF730FD00200021D9
S31508008E20024603460FC407C41C3CC4F80890C4F89D
S31508008E301080257666206076FDF75FFA30686060F8
S31508008E4034607878F02108421CBF9920FDF76CFA47
S31508008E50787820B901B0BDE8F043FDF748BA01B00B
S31508008E60BDE8F083B83600200000002070B5040085
S31508008E700D000026DFF83402844230D0DFF83002D5
S31508008E8084422CD0DFF82C02844228D0DFF828024E
S31508008E90844224D0DFF82402844220D0DFF820025E
S31508008EA084421CD0DFF81C02844218D0DFF818026E
S31508008EB0844214D0DFF81402844210D0DFF810027E
S31508008EC084420CD0DFF80C02844208D0DFF808028E
S31508008ED0844204D0A821DFF80402FDF7FDFFA86844
S31508008EE0102807D0A868002804D0A921DFF8EC01CB
S31508008EF0FDF7F2FFE868002803D0E868B0F5803F80
S31508008F0004D3AA21DFF8D401FDF7E6FF2869402833
S31508008F1007D02869002804D0AB21DFF8C001FDF787
S31508008F20DBFF6869802807D06869002804D0AC216F
S31508008F30DFF8A801FDF7D0FFA86900280CD0A869BA
S31508008F40B0F5807F08D0A869B0F5007F04D0AD21C0
S31508008F50DFF88801FDF7C0FFE86900280CD0E8694A
S31508008F60B0F5806F08D0E869B0F5006F04D0AE217F
S31508008F70DFF86801FDF7B0FF286A202807D0286ABD
S31508008F80002804D0AF21DFF85401FDF7A5FF686A71
S31508008F90B0F5405F0FD0686AB0F5005F0BD0686A1D
S31508008FA0B0F5805F07D0686A002804D0B021DFF8E2
S31508008FB02C01FDF791FFA86AB0F5804F07D0A86A83
S31508008FC0002804D0B121DFF81401FDF785FF2068D9
S31508008FD006006FF30E16A868296A0843296908432C
S31508008FE069690843A9690843E9690843696A08433E
S31508008FF0A96A084306432660E86860602868A06096
S315080090006868E06070BD38B504000D00DFF89C00A4
S31508009010844231D0DFF8980084422DD0DFF89400DE
S31508009020844229D0DFF89000844225D0DFF88C00EE
S31508009030844221D0DFF8880084421DD0DFF88400FE
S31508009040844219D0DFF88000844215D0DFF87C000E
S31508009050844211D0DFF8780084420DD0DFF874001E
S31508009060844209D0DFF87000844205D04FF4887135
S31508009070DFF86800FDF730FFEDB2002D08D0EDB23D
S31508009080012D05D040F21111DFF85000FDF724FF3D
S31508009090EDB2002D04D0206850F00100206003E0F6
S315080090A0206840084000206031BD000008000240EA
S315080090B01C000240300002404400024058000240B2
S315080090C06C00024080000240080402401C04024072
S315080090D03004024044040240580402401C9C000824
S315080090E070B504000D000026DFF8480284420CD053
S315080090F0DFF84402844208D0DFF84002844204D0F4
S315080091006F21DFF83C02FDF7E7FE2888002810D01B
S315080091102888B0F5806F0CD02888B0F5004F08D0A5
S315080091202888B0F5404F04D07221DFF81402FDF705
S31508009130D3FE6888B0F5827F07D06888002804D0F7
S315080091407321DFF8FC01FDF7C7FEA888B0F5006FAC
S3150800915007D0A888002804D07421DFF8E401FDF7B9
S31508009160BBFEE888002807D0E888022804D07521C5
S31508009170DFF8CC01FDF7B0FE2889002807D028893A
S31508009180012804D07621DFF8B801FDF7A5FE688925
S31508009190B0F5007F07D06889002804D07721DFF86A
S315080091A0A001FDF799FEA889002819D0A8890828E2
S315080091B016D0A889102813D0A889182810D0A889ED
S315080091C020280DD0A88928280AD0A889302807D0B1
S315080091D0A889382804D07821DFF86401FDF77CFED9
S315080091E0E889002807D0E889802804D07921DFF8A3
S315080091F05001FDF771FE288A012804D27A21DFF88A
S315080092004001FDF769FE2088060016F441562888B5
S3150800921069880843A9880843E988084329890843CF
S3150800922069890843A9890843E989084306432680CA
S31508009230A08B4FF2FF710840A083288A208270BD58
S3150800924038B504000D00DFF8EC0084420DD0DFF8D5
S31508009250E800844209D0DFF8E400844205D040F2F1
S315080092605111DFF8DC00FDF737FEEDB2002D08D00E
S31508009270EDB2012D05D04FF4A971DFF8C400FDF752
S315080092802BFEEDB2002D04D0208850F0400020803F
S3150800929004E020884FF6BF710840208031BD2DE9D3
S315080092A0F04104000D00160000275FF00008DFF803
S315080092B0840084420DD0DFF88000844209D0DFF8AC
S315080092C07C00844205D040F29111DFF87400FDF766
S315080092D003FEF6B2002E08D0F6B2012E05D04FF4E2
S315080092E0C971DFF85C00FDF7F7FDEDB2712D0BD003
S315080092F0EDB2602D08D0EDB2502D05D040F2931195
S31508009300DFF83C00FDF7E8FDEDB22809C0B207001A
S315080093100120B8408046F6B2002E04D0A08858EA4C
S315080093200000A08003E0A08830EA0800A080BDE81D
S31508009330F08100000030014000380040003C004049
S315080093400C9D000870B584B005460C46029501953B
S315080093500A4EB0680390FCF7D0FF2868009000A872
S315080093602860009808B100A94160B06800A981602A
S315080093700474FCF7A4FB04B070BD00BF0000002015
S3150800938030B581B00446207E62694243A368D35C47
S3150800939001F8013B521C401EF8D16069401C60610F
S315080093A02169884224BF00206061E068421EE260AD
S315080093B0114D6A7888420FD1F02002421CBF9920CD
S315080093C0FCF7B2FF687808B9FCF791FF204601B0B0
S315080093D0BDE8304000F012B8F02002421CBF9920C8
S315080093E0FCF7A2FF687820B901B0BDE83040FCF769
S315080093F07EBF01B030BD00000000002010B5044655
S3150800940002E0C068FCF7EFFAFCF777FF206800284F
S31508009410F7D1084C6078F02108421CBF9920FCF768
S3150800942083FF6078002804BFBDE81040FCF75FBFE3
S3150800943010BD00BF00000020624863490160634810
S31508009440634901606348644901606448644901608E
S31508009450644865490160654865490160654866492B
S315080094600160664866490160664867490160674861
S31508009470674901606748684901606848684901604A
S3150800948068486949016069486949016069486A49E3
S3150800949001606A486A4901606A486B4901606B481D
S315080094A06B4901606B486C4901606C486C49016006
S315080094B06C486D4901606D486D4901606D486E499B
S315080094C001606E486E4901606E486F4901606F48D9
S315080094D05FF0204101606E486E4901606E486F4931
S315080094E001606F486F4901606F48704901607048B4
S315080094F0704901607048714901607148714901609D
